:020000022000DC
:1070000000000420197202000172020003720200E3
:1070100005720200077202000972020000000000FF
:107020000000000000000000000000000B720200E1
:107030000D720200000000000F72020011720200C7
:10704000B99B02001372020055A9020013720200DC
:1070500013720200137202004DA8020013720200A4
:107060001372020013720200137202001372020004
:1070700013720200137202001372020013720200F4
:107080001372020015DD0200137202001372020077
:1070900013720200137202008907030013720200C8
:1070A00013720200137202001372020013720200C4
:1070B00013720200137202000000000000000000C2
:1070C00013720200137202001372020013720200A4
:1070D0001372020013720200137202001372020094
:1070E000137202001372020013720200000000000B
:1070F0000000000013720200000000001372020082
:10710000000000000000000000000000000000007F
:10711000000000000000000000000000000000006F
:10712000000000000000000000000000000000005F
:10713000000000000000000000000000000000004F
:10714000000000000000000000000000000000003F
:10715000000000000000000000000000000000002F
:10716000000000000000000000000000000000001F
:10717000000000000000000000000000000000000F
:1071800000000000000000000000000000000000FF
:1071900000000000000000000000000000000000EF
:1071A00000000000000000000000000000000000DF
:1071B00000000000000000000000000000000000CF
:1071C00000000000000000000000000000000000BF
:1071D00000000000000000000000000000000000AF
:1071E000000000000000000000000000000000009F
:1071F000000000000000000000000000000000008F
:10720000FEE7FEE7FEE7FEE7FEE7FEE7FEE7FEE756
:10721000FEE7FEE700F002B8FFF7FCBF0F484FF0B3
:107220000701884385460E4880470E48016841F4AF
:1072300070010160BFF34F8FBFF36F8F00F01AB87A
:1072400009480A490A4A884207D0521A05D00378E9
:1072500001300B700131013AF9D170470000042070
:107260004587020088ED00E0A40F0300D818002035
:10727000D81800203A493B480A1A02D00722914305
:107280008D46394939480A1A06D00722914381F3BD
:107290000988022282F3148835483649364A00F0BC
:1072A00041F836483649374A00F03CF83648374905
:1072B000374A00F037F837483749384A00F032F893
:1072C00037483849384A00F02DF838483849394AA3
:1072D00000F028F838483949394A00F023F839488D
:1072E0003949002200F036F838483949002200F0C8
:1072F00031F838483849091A09F076FD374A90477D
:1073000025482649884205D00268043003B49047D6
:1073100003BCF7E700208646EC4600200021304AF7
:107320009047FEE7884214D0521A12D003460B430E
:1073300013430324234206D1036804300B60043155
:10734000043AF9D17047037801300B700131013AEA
:10735000F9D17047884202D002700130FAE77047D5
:107360000000042000E003200000042000000420AE
:10737000C4250300D8180020041A0020E47302007A
:10738000E4730200F00E0300C4250300D8180020A7
:10739000D8180020A40F0300A40F0300A40F0300BB
:1073A000A40F0300A40F0300A40F0300A40F030005
:1073B000A40F0300C1250300F0260300041A0020D7
:1073C000041A0020041A00200C2300200C230020A3
:1073D0000C2300200C2300200C43002041720200EB
:0473E00085760200AC
:1073E40072DF704700BF184673DF704700BF18464E
:1073F40000B583B003460091ADF80630BDF8063001
:10740400009A1946034805F007FB00BF03B05DF876
:1074140004FB00BFEFBEADDE00B597B004238DF8CA
:1074240057305923ADF80030294B02931723ADF898
:10743400043003AB3C220021184609F027FD002349
:107444008DF80C309DF857308DF80F306B460C9347
:10745400182200211F4809F019FD1E4B00225A6012
:107464001C4B00221A751B4BA0229A60194B002258
:107474009A81184B06221A70164B04225A75154B22
:1074840004229A75144B196803AB144A184601F088
:10749400DEFE1490149B1393139B002B04D0104A0C
:1074A400B621139805F0B8FA0A4A0B490D48FFF7BC
:1074B40097FF1490149B1293129B002B04D0084A3C
:1074C400B921129805F0A8FA00BF17B05DF804FBC3
:1074D400EC180020041A0020DC180020E01800201A
:1074E400A40F0300D818002000B585B0114B1B78F9
:1074F40001211846FFF778FF0390039B0293029B38
:10750400002B04D00C4AC421029805F085FA02200D
:1075140000F062FE0390039B0193019B002B04D0B7
:10752400054AC721019805F077FA00BF05B05DF858
:1075340004FB00BFD8180020A40F030000B587B0D7
:1075440009F09EF80590059B0493049B002B04D03E
:10755400144AD421049805F05FFA0023019301AB87
:107564001946012009F044F90590059B0393039BF8
:10757400002B04D00B4ADA21039805F04DFA01AB35
:10758400184609F027FA0590059B0293029B002BED
:1075940004D0044ADE21029805F03EFA00BF07B089
:1075A4005DF804FBA40F030000B583B04FF48041E1
:1075B400002007F0DDFF0190019B0093009B002B4E
:1075C40004D0054AE621009805F026FA07F066FF84
:1075D40000BF03B05DF804FBA40F030000B583B043
:1075E4000021012000F012FE0190019B0093009BFA
:1075F400002B04D0044AEF21009805F00DFA00BFD7
:1076040003B05DF804FB00BFA40F030000B583B012
:1076140005F0B2FD0190019B0093009B002B04D068
:10762400044AF721009805F0F7F900BF03B05DF8AC
:1076340004FB00BFA40F030000B583B007F0E0FB18
:107644000190019B0093009B002B05D0044A40F25B
:107654000111009805F0E0F900BF03B05DF804FBE8
:10766400A40F030008B508F0B5FA034683F001033C
:10767400DBB2002B01D007F0D9FB00BF08BD00002E
:1076840008B5FFF791FFFFF7C1FFFFF7A7FFFFF76B
:10769400D3FFFFF753FFFFF7BFFE084A084BD31A87
:1076A400DB081B0443F003030649184608F036FAC6
:1076B400FFF71AFFFFF7D6FFFCE700BF4C0F0300EC
:1076C400240F0300EC0F030000B583B00190019B6D
:1076D4001B68184600F002F90346002B04D10B493D
:1076E4004FF4F670FFF784FE019B1B681F2B02D832
:1076F4004FF0A04306E0019B1B6803F01F02019BAF
:107704001A60034B184603B05DF804FB0410030031
:107714000003005000B585B00190084611461A4692
:1077240003468DF803300B468DF8023013468DF86E
:10773400013001AB1846FFF7C7FF03909DF8032003
:107744009DF802305B001A439DF801309B001A43F8
:107754009DF818301B0242EA03019DF81C301B04FB
:10776400019A1943039B02F5E07243F8221000BF0B
:1077740005B05DF804FB00B585B0039000230193C8
:10778400002300930023012201210398FFF7C2FF85
:1077940000BF05B05DF804FB00B585B003900B464F
:1077A4008DF80B309DF80B300022019200220092DC
:1077B400002200210398FFF7ADFF00BF05B05DF87C
:1077C40004FB00B585B0019001AB1846FFF77CFFC0
:1077D4000390019B012202FA03F31946039800F077
:1077E40069F800BF05B05DF804FB00B585B00190F1
:1077F40001AB1846FFF768FF0390019B012202FAD0
:1078040003F31946039800F05FF800BF05B05DF874
:1078140004FB00B585B0019001AB1846FFF754FF97
:107824000390039BD3F804350293029BDA43019B34
:10783400012101FA03F31A40039BC3F80825019BB5
:1078440001229A40029B1A40039BC3F80C2500BFF7
:1078540005B05DF804FB00B583B001900091009B76
:10786400002B03D10198FFF7C0FF02E00198FFF756
:10787400A8FF00BF03B05DF804FB00B585B001901C
:1078840001AB1846FFF720FF0390039800F00AF8B5
:107894000246019B22FA03F303F00103184605B0E4
:1078A4005DF804FB82B00190019BD3F804351846BF
:1078B40002B0704782B001900091019B009AC3F816
:1078C400082500BF02B0704782B001900091019B6F
:1078D400009AC3F80C2500BF02B0704784B0019031
:1078E400019B5B09029300230393029B002B03D0AB
:1078F400029B012B04D007E04FF0FF33039303E016
:107904004FF6FF73039300BF019B03F01F03019322
:10791400039A019B22FA03F303F00103002B14BF23
:1079240001230023DBB2184604B0704700B585B0CC
:107934000190019B032B03D911493A20FFF758FD0D
:10794400104A019B13441B781846FFF796FF034621
:10795400002B14BF012300238DF80F309DF80F3046
:10796400002B14BF01230023DBB283F00103DBB23D
:1079740003F00103DBB2184605B05DF804FB00BF59
:10798400301003005C10030000B583B00190019B2C
:10799400032B03D907494120FFF72AFD064A019B1F
:1079A40013441B7800211846FFF755FF00BF03B0AE
:1079B4005DF804FB301003005C10030000B583B0D5
:1079C4000190019B032B03D907494720FFF710FDC2
:1079D400064A019B13441B7801211846FFF73BFF1D
:1079E40000BF03B05DF804FB301003005C1003001B
:1079F40000B583B00023019305E00198FFF7DEFF93
:107A0400019B01330193019B032BF6D900BF00BFF7
:107A140003B05DF804FB00B583B00023019305E0D7
:107A24000198FFF7B1FF019B01330193019B032BE5
:107A3400F6D900BF00BF03B05DF804FB00B583B006
:107A44000190019B032B03D907495F20FFF7D0FC6A
:107A5400064A019B13441B781846FFF7DAFE00BF61
:107A640003B05DF804FB00BF301003005C1003009A
:107A740000B583B00023019309E0094A019B134434
:107A84001B781846FFF777FE019B01330193019B96
:107A9400032BF2D9FFF7ACFF00BF03B05DF804FB82
:107AA4005C10030000B583B0002301930AE0094A87
:107AB400019B13441B7803211846FFF76DFE019BBD
:107AC40001330193019B032BF1D900BF00BF03B025
:107AD4005DF804FB6010030084B001904FF0FF33A5
:107AE4000293002303930DE00A4A039B13441B787B
:107AF4001A46019B934202D1039B029305E0039B28
:107B040001330393039B032BEED9029B184604B065
:107B1400704700BF6010030000B583B00190019B63
:107B240003F00103002B01D0FFF7A2FF019B03F038
:107B34000203002B01D0FFF7B5FF00BF03B05DF8CF
:107B440004FB000000B587B003460A468DF80730F1
:107B540013468DF8063000238DF817300023049364
:107B64009DF807301846FFF7B7FF0490049B032BDA
:107B740062D89DF80630022B52D0022B5CDC002B1D
:107B840031D0012B58D13549049A13465B00134474
:107B94000B441B788DF817303049049A13465B0068
:107BA40013440B4401331B78002B0ED02C4B2D4A6D
:107BB4004FF48041184605F057FB0390039B002BBC
:107BC40003D1284A9DF8073013702449049A1346B8
:107BD4005B0013440B4402331978234A049B134477
:107BE4000A461A7028E01E4B184605F095FB1E4AFB
:107BF400049B134419781948049A13465B001344F0
:107C0400034402331B78994215D11449049A13464C
:107C14005B0013440B4402331B788DF817300AE0E1
:107C24000E49049A13465B0013440B4401331B783A
:107C34008DF8173000E000BF9DF81730002B09D0F5
:107C44000A4B1B68002B05D0084B1B689DF81720B6
:107C54001046984700BF07B05DF804FB2C1B0020BA
:107C640048190020381B00203C1B0020281B002042
:107C740000B583B00190019B1B7802211846FFF7E1
:107C840061FF00BF03B05DF804FB000000B583B0E2
:107C94000C4B1B78002B0FD00023019308E0019BB1
:107CA400022B02D00198FFF789FE019B0133019357
:107CB400019B032BF3D901E0FFF79AFE00BF03B049
:107CC4005DF804FB241B00202DE9D04F92B003463D
:107CD4008DF83F300023119300231093CC4B1B7875
:107CE400002B04D0CA4A00231370FFF7CFFF9DF87E
:107CF4003F30172B00F23F8201A252F823F000BF5D
:107D0400657D02007D7D02007D7D0200197E0200FA
:107D1400B57E0200317F0200C57F0200E57F0200CC
:107D2400F57F0200218002003F8002005D80020096
:107D34007B80020089800200898002008980020021
:107D440089800200898002001D8102002B810200CB
:107D54003F810200538102006D8102006D810200A7
:107D6400FFF794FFAB4B184605F0D6FA1190AA4AD8
:107D74009DF83F301370FFE10020FFF7D7FD034665
:107D8400002B0DD00020FFF719FE9DF83F30022B89
:107D940002D14FF4E16301E04FF47A6310930BE0F6
:107DA4000020FFF7F1FD9DF83F30022B01D1C823DD
:107DB40001E04FF4C8731093974A9DF83F30137055
:107DC400944C109B0022009301924FF000024FF05C
:107DD4000003DDE900673946CB03314643EA5143EA
:107DE4003146CA0312F57A71029143F100030393F9
:107DF4004FF4FA624FF00003DDE9020108F05AFF84
:107E040002460B46134600221946204605F02CFA7A
:107E14001190B1E10020FFF789FD0346002B0DD03E
:107E24000020FFF7CBFD9DF83F30032B02D14FF428
:107E3400487301E04FF47A6310930BE00020FFF7DE
:107E4400A3FD9DF83F30032B01D1C82301E04FF47B
:107E5400C8731093704A9DF83F3013706D4C109B9B
:107E64000022049305924FF000024FF00003DDE975
:107E740004673946CB03314643EA51433146CA03CA
:107E840012F57A71069143F1000307934FF4FA62F5
:107E94004FF00003DDE9060108F00CFF02460B4633
:107EA400134600221946204605F0DEF9119063E1DD
:107EB4000020FFF73BFD0346002B06D00020FFF710
:107EC4007DFD4FF47A63109305E00020FFF75CFD1D
:107ED4004FF4C8731093504A9DF83F3013704D4CC3
:107EE400109B00229A4693464FF000024FF0000385
:107EF4004FEACB3343EA5A434FEACA3212F57A7156
:107F0400089143F1000309934FF4FA624FF0000320
:107F1400DDE9080108F0CEFE02460B4613460022B6
:107F24001946204605F0A0F9119025E10020FFF73D
:107F3400FDFC0346002B0CD00020FFF73FFD9DF80D
:107F44003F30052B01D1C82301E04FF47A6310932D
:107F54000BE00020FFF718FD9DF83F30052B01D101
:107F6400C82301E04FF4C87310932B4A9DF83F30A7
:107F74001370284C109B0022984691464FF0000243
:107F84004FF000034FEAC93343EA58434FEAC8327B
:107F940012F57A710A9143F100030B934FF4FA62DC
:107FA4004FF00003DDE90A0108F084FE02460B46A7
:107FB400134600221946204605F056F91190DBE0DD
:107FC4000020FFF73BFD144A9DF83F301370114B1E
:107FD400002240F26661184605F046F91190CBE0A4
:107FE4000020FFF7D1FC0C4A9DF83F301370C3E02A
:107FF400074B01221A700120FFF720FD054B0022D8
:1080040040F26661184605F02FF91190B4E000BF04
:108014001C1B0020081900201B1B0020594B0122A7
:108024001A700120FFF70AFD574B00224FF400514C
:10803400184605F019F911909EE0524B01221A706E
:108044000120FFF7FBFC504B002240F2666118460A
:1080540005F00AF911908FE04A4B01221A700120B1
:10806400FFF7ECFC484B00224FF40051184605F092
:10807400FBF8119080E0FFF7CEFC444A9DF83F30B6
:10808400137079E0424B184605F046F911909DF8BB
:108094003F30C3F111031093109B002B35D0119B7B
:1080A400002B32D1109B012B28D9394C109B9BB249
:1080B4001A46C82302FB03F3DA171E4617464FF08D
:1080C40000024FF00003FB0343EA5643F20312F5A8
:1080D4007A710C9143F100030D934FF4FA624FF05F
:1080E4000003DDE90C0108F0E5FD02460B461346EA
:1080F40000221946204605F0B7F811900220FFF738
:1081040043FC244B01221A7036E00220FFF756FC90
:10811400204B00221A702FE0FFF7B8FD1B4A9DF890
:108124003F30137028E0FFF7B1FD0020FFF72CFC6F
:10813400164A9DF83F3013701EE0FFF7A7FD01209B
:10814400FFF722FC114A9DF83F30137014E0FFF74B
:108154009DFD0020FFF718FC0120FFF715FC0B4ADA
:108164009DF83F30137007E0FFF755FC074A9DF870
:108174003F30137000E000BF119B184612B0BDE8F9
:10818400D08F00BF1C1B0020081900201B1B0020DF
:1081940028190020241B002000B583B00190074B50
:1081A4001B6803F00103002B04D0054B1B78184611
:1081B400FFF78AFD00BF03B05DF804FB201B00201D
:1081C4001B1B002000B583B001900220FFF736FC92
:1081D40000BF03B05DF804FB00B585B003468DF81D
:1081E400073000230393084B1B6803F00103002BA3
:1081F40005D09DF807301846FFF766FD0390039BF2
:10820400184605B05DF804FB201B002000B585B0BE
:1082140001900091002303932A4A019B13602A4A88
:10822400009B1360019B03F00203002B2AD0002360
:10823400029308E001220121029800F055F803900E
:10824400029B01330293029B032B02D8039B002B56
:10825400F0D0039B002B06D140F2333204211B489B
:1082640004F0DAFA0390039B002B02D104F05CFBC8
:108274000390039B002B05D1154A0021154804F0F7
:10828400B9FF0390019B03F00103002B14D00120DC
:10829400FFF742FC039B002B05D10F4A00210F4836
:1082A40004F0A8FF0390039B002B05D10C4A012185
:1082B4000C4804F09FFF0390039B184605B05DF83B
:1082C40004FB00BF201B0020281B002070100300AB
:1082D400757C02006C1003009D8102006410030091
:1082E400C98102006810030084B001900B468DF828
:1082F400033013468DF8023000230393019B032BB4
:108304003CD89DF80230012B0BD19DF80330012B92
:1083140004D1019BDBB20E33DBB200E000238DF805
:1083240002309DF80330022B0FD0022B23DC002BEC
:1083340016D0012B1FD11449019A13465B00134434
:108344000B449DF802201A701AE00F49019A134653
:108354005B0013440B4401339DF802201A700FE0B4
:108364000949019A13465B0013440B4402339DF8F8
:1083740002201A7004E00723039301E00723039308
:10838400039B184604B070472C1B0020BFF34F8F8B
:1083940000BF064BDB6803F4E0620449044B13435B
:1083A400CB60BFF34F8F00BF00BFFDE700ED00E0DF
:1083B4000400FA0582B0164B1B680193154B1B6829
:1083C4000093019B082B1FD1009B052B1AD801A2F7
:1083D40052F823F0F1830200F5830200F9830200CE
:1083E400FD830200018402000584020001230CE0E5
:1083F40001230AE0012308E0012306E0012304E04D
:10840400012302E0012300E00023184602B0704774
:10841400300100103401001082B0164B1B68019328
:10842400154B1B680093019B082B1FD1009B052B48
:108434001AD801A252F823F055840200598402008C
:108444005D84020061840200658402006984020084
:1084540001230CE001230AE0012308E0012306E0E4
:10846400012304E0012302E0012300E00023184675
:1084740002B07047300100103401001082B0164B76
:108484001B680193154B1B680093019B082B1FD19C
:10849400009B052B1AD801A252F823F0B9840200DC
:1084A400BD840200C1840200C5840200C9840200A4
:1084B400CD84020001230CE000230AE0002308E03D
:1084C400002306E0002304E0002302E0002300E090
:1084D4000023184602B07047300100103401001028
:1084E40082B0164B1B680193154B1B680093019BCC
:1084F400082B1FD1009B052B1AD801A252F823F098
:108504001D850200218502002585020029850200BF
:108514002D8502003185020001230CE000230AE0CE
:10852400002308E0002306E0002304E0002302E027
:10853400002300E00023184602B070473001001009
:108544003401001082B0164B1B680193154B1B6855
:108554000093019B082B1FD1009B052B1AD801A265
:1085640052F823F081850200858502008985020086
:108574008D850200918502009585020001230CE09F
:1085840000230AE0002308E0002306E0002304E0BF
:10859400002302E0002300E00023184602B07047E5
:1085A400300100103401001082B0164B1B68019397
:1085B400154B1B680093019B082B1FD1009B052BB7
:1085C4001AD801A252F823F0E5850200E9850200D9
:1085D400ED850200F1850200F5850200F9850200AF
:1085E40001230CE000230AE0002308E0002306E056
:1085F400002304E0002302E0002300E000231846E7
:1086040002B07047300100103401001082B0164BE4
:108614001B680193154B1B680093019B082B1FD10A
:10862400009B052B1AD801A252F823F049860200B8
:108634004D860200518602005586020059860200CA
:108644005D86020001230CE001230AE0012308E017
:10865400012306E0012304E0012302E0012300E0FA
:108664000023184602B07047300100103401001096
:1086740082B0164B1B680193154B1B680093019B3A
:10868400082B1FD1009B052B1AD801A252F823F006
:10869400AD860200B1860200B5860200B9860200EA
:1086A400BD860200C186020000230CE000230AE01C
:1086B400002308E0002306E0012304E0012302E094
:1086C400012300E00023184602B070473001001077
:1086D4003401001008B5FFF7CBFF0346002B07D089
:1086E4004FF010234FF08042D3F80832C2F85835C7
:1086F40000BF08BD00BF044BD3F80034002BFAD0F0
:1087040000BF00BF704700BF00E0014000B583B068
:108714000190054A019BC2F80435FFF7EBFF00BF47
:1087240003B05DF804FB00BF00E00140024B034AC4
:108734001A6000BF704700BF681900200090D00382
:1087440008B5FFF737FE0346002B0ED04FF08043E9
:108754000022C3F80C214FF080430022C3F81021FB
:108764004FF080430022C3F83825FFF755FE034637
:10877400002B76D04FF08053734AD3F80434C2F8F8
:1087840020354FF08053704AD3F80834C2F82435AA
:108794004FF080536C4AD3F80C34C2F828354FF0AC
:1087A4008053694AD3F81034C2F82C354FF0805303
:1087B400654AD3F81434C2F830354FF08053624A16
:1087C400D3F81834C2F834354FF080535E4AD3F8E6
:1087D4001C34C2F840354FF080535B4AD3F8203440
:1087E400C2F844354FF08053574AD3F82434C2F8C2
:1087F40048354FF08053544AD3F82834C2F84C35E6
:108804004FF08053504AD3F82C34C2F850354FF00F
:1088140080534D4AD3F83034C2F854354FF0805366
:10882400494AD3F83434C2F860354FF08053464A8D
:10883400D3F83834C2F864354FF08053424AD3F841
:108844003C34C2F868354FF080533F4AD3F8403483
:10885400C2F86C354FF080533B4AD3F84434C2F825
:108864007035FFF70BFE0346002B02D0374B384A16
:108874001A60FFF735FE0346002B03D0354BFB226D
:10888400C3F81825FFF75EFE0346002B0AD0324BCF
:108894001B6823F00F02314B1B6803F00F032E49B2
:1088A40013430B60FFF780FE0346002B03D02C4BD1
:1088B4004FF400721A60FFF7A9FE0346002B0DD097
:1088C4004FF08043D3F8003403F00103002B05D0AC
:1088D4004FF080436FF00102C3F80024214BD3F81A
:1088E4008830204A43F47003C2F88830BFF34F8FB6
:1088F40000BFBFF36F8F00BFFFF7ECFE4FF01023F4
:10890400D3F80032002B05DB4FF01023D3F80432E8
:10891400002B15DA0120FFF7F9FE4FF01023122285
:10892400C3F80022FFF7E6FE4FF010231222C3F82B
:108934000422FFF7DFFE0020FFF7E8FEFFF726FD25
:10894400FFF7F4FE00BF08BD00C000408C56004095
:108954004881030000F00040E40E0040580200107B
:108964004096024000ED00E06DDF704700BF1846FE
:1089740079DF704700BF18467DDF704700BF184697
:1089840064DF704700BF184682B003460091ADF81B
:108994000630BDF80630DAB2009B1A70BDF8063016
:1089A4001B0A9AB2009B0133D2B21A7002231846F2
:1089B40002B0704700B589B0039002911346ADF838
:1089C4000630029B1B8803F10902BDF806309A4267
:1089D40001D90C2353E004AB1846FFF7C5FF0790F9
:1089E400079B0693069B002B01D0069B47E0029B46
:1089F4001B881A46039B134408221A70029B1B8887
:108A040001339AB2029B1A80029B1B881A46039B6D
:108A140013441B221A70029B1B8801339AB2029BD7
:108A24001A80029B1B881A46039B981804AB0133D7
:108A34000622194608F0F8F9029B1B8806339AB2FD
:108A4400029B1A809DF8103023F00103DBB2002B47
:108A540007D1029B1B881A46039B134400221A70F9
:108A640006E0029B1B881A46039B134401221A70DA
:108A7400029B1B8801339AB2029B1A80002318467A
:108A840009B05DF804FB00B589B00390029101922E
:108A9400ADF80230039B1B78012B05D1039B5B7857
:108AA400002B01D1072391E0019B1B889A1CBDF880
:108AB40002309A420ED8039B1B78012B0CD1019BE8
:108AC4001B881A46039B5B7813449A1CBDF802303A
:108AD4009A4201D90C2379E0019B1B88BDF802203E
:108AE400D31A9BB2023BADF81C30BDF81C30ADF874
:108AF4001230019B1B880233029A13440DF11202B7
:108B040011461846FFF738FF0690069B0593059B10
:108B1400002B01D0059B59E0039B1B78022B06D048
:108B2400039B5B781A46BDF812309A4209D3BDF80C
:108B34001230BDF81C209A4203D309238DF81F304C
:108B440016E008238DF81F30039B1B78012B0BD1F3
:108B5400039B5B781A46BDF81C30934204D3039BF5
:108B64005B78ADF8123003E0BDF81C30ADF812307C
:108B7400BDF81230FE2B01D90C2327E0BDF81230CA
:108B8400DAB2019B1B881946029B0B440132D2B214
:108B94001A70019B1B8801339AB2019B1A80019BB6
:108BA4001B881A46029B13449DF81F201A70019BD0
:108BB4001B8801339AB2019B1A80019B1A88BDF865
:108BC400123013449AB2019B1A800023184609B04C
:108BD4005DF804FB00B589B0039002911346ADF82B
:108BE4000630029B1B881A1DBDF806309A4201D933
:108BF4000C233AE00DF116031846FFF7B9FE07906F
:108C0400079B0693069B002B01D0069B2DE0029B3D
:108C14001B881A46039B134403221A70029B1B8869
:108C240001339AB2029B1A80029B1B881A46039B4B
:108C3400134419221A70029B1B8801339AB2029BB7
:108C44001A80BDF81620029B1B881946039B0B440F
:108C540019461046FFF798FE03461A46029B1B88E6
:108C640013449AB2029B1A800023184609B05DF897
:108C740004FB84B0029101921A4603468DF80F302A
:108C84001346ADF80C30019B1B88DA1CBDF80C3080
:108C94009A4201D90C2328E0019B1B881A46029BA7
:108CA400134402221A70019B1B8801339AB2019B60
:108CB4001A80019B1B881A46029B134401221A70D6
:108CC400019B1B8801339AB2019B1A80019B1B886C
:108CD4001A46029B13449DF80F201A70019B1B88AF
:108CE40001339AB2019B1A800023184604B07047DE
:108CF40084B0029101921A4603468DF80F30134650
:108D0400ADF80C30019B1B88DA1CBDF80C309A427C
:108D140001D90C2328E0019B1B881A46029B1344AB
:108D240002221A70019B1B8801339AB2019B1A809C
:108D3400019B1B881A46029B13440A221A70019B4A
:108D44001B8801339AB2019B1A80019B1B881A4627
:108D5400029B13449DF80F201A70019B1B8801335A
:108D64009AB2019B1A800023184604B0704700B5DC
:108D74008FB0039001930B468DF80B3013468DF89A
:108D84000A3000238DF83330109B1B88ADF8303047
:108D940000230D9370E0039B5A680D9B9B001A44BB
:108DA40005AB106818600DF11B0105AB00221846D5
:108DB400FFF7E6FD0A900A9B0993099B002B01D05B
:108DC400099B7BE09DF81B309DF80A209A4250D104
:108DD4009DF83330002B01D0002300E002238DF8EE
:108DE4002330109B1B881A469DF81B301A449DF8AB
:108DF40023301A44BDF844309A4201DD0C235DE06F
:108E04009DF8333083F00103DBB2002B16D0109BA6
:108E14001B8801339AB2109B1A80109B1B881A4638
:108E2400019B13449DF80B201A70109B1B8801337F
:108E34009AB2109B1A8001238DF83330109B1B8843
:108E44001A46019B1A440DF11B0105AB1846FFF7A6
:108E540097FD0A900A9B0793079B002B01D0079B61
:108E64002CE0109B1B889DF81B2013449AB2109B86
:108E74001A800D9B01330D93039B1B881A460D9B8F
:108E8400934288DB9DF83330002B16D0109B1A8850
:108E9400BDF83030D31A9BB2013BADF82E30BDF88B
:108EA4002E30FF2B01D90C2308E0BDF83030019A95
:108EB4001344BDF82E20D2B21A70002318460FB006
:108EC4005DF804FB00B58BB0059003930B468DF859
:108ED400133013468DF812309DF81310BDF834305A
:108EE40001930C9B0093039B02220598FFF73FFF1D
:108EF4000990099B0893089B002B01D0089B14E060
:108F04009DF81210BDF8343001930C9B0093039B21
:108F140010220598FFF72BFF0990099B0793079BE5
:108F2400002B01D0079B00E0002318460BB05DF82E
:108F340004FB82B00190019B1B88052B0AD9019B7D
:108F44001B88B3F5486F07D9019B1B884FF6FF7246
:108F5400934201D0072325E0019B5B88052B0AD9A6
:108F6400019B5B88B3F5486F07D9019B5B884FF67B
:108F7400FF72934201D0072314E0019B1B884FF634
:108F8400FF7293420DD0019B5B884FF6FF729342B0
:108F940007D0019B1A88019B5B889A4201D9072359
:108FA40000E00023184602B0704700B587B0039074
:108FB40002910192ADF80230019B1B889A1DBDF805
:108FC40002309A4201D90C234BE00398FFF7B1FF1A
:108FD4000590059B0493049B002B01D0049B40E067
:108FE400019B1B881A46029B134405221A70019B9D
:108FF4001B8801339AB2019B1A80019B1B881A4675
:10900400029B134412221A70019B1B8801339AB2EB
:10901400019B1A80039B1A88019B1B881946029B9B
:109024000B4419461046FFF7AFFC03461A46019B52
:109034001B8813449AB2019B1A80039B5A88019B94
:109044001B881946029B0B4419461046FFF79CFCEB
:1090540003461A46019B1B8813449AB2019B1A804B
:109064000023184607B05DF804FB00B587B00390F1
:1090740002910192ADF80230039B9B880233059361
:10908400019B1B881A46059B13449A1CBDF80230A9
:109094009A4201D90C2353E0059BFE2B01D90C23E2
:1090A4004EE0059BDAB2019B1B881946029B0B44D8
:1090B4000132D2B21A70019B1B8801339AB2019B10
:1090C4001A80019B1B881A46029B1344FF221A70C4
:1090D400019B1B8801339AB2019B1A80039B1A8857
:1090E400019B1B881946029B0B4419461046FFF747
:1090F4004BFC03461A46019B1B8813449AB2019BFE
:109104001A80039B9B88002B19D0039B9B68002B20
:1091140001D1072314E0019B1B881A46029B98186F
:10912400039B9968039B9B881A4607F07DFE019B6D
:109134001A88039B9B8813449AB2019B1A800023CC
:10914400184607B05DF804FB00B589B0039002919E
:109154000192ADF80230039B9B6A002B01D10723D7
:1091640071E000238DF81F3065E0039B996A9DF838
:109174001F2013465B0013449B000B440693069B7D
:109184009B8802330593059BFE2B01D90C235AE0DF
:10919400059BDAB2019B1B881946029B0B440132E2
:1091A400D2B21A70019B1B8801339AB2019B1A80B8
:1091B400019B1B881A46029B134416221A70019BBA
:1091C4001B8801339AB2019B1A80069B1A88019B63
:1091D4001B881946029B0B4419461046FFF7D4FB23
:1091E40003461A46019B1B8813449AB2019B1A80BA
:1091F400069B9B88002B19D0069B9B68002B01D1F2
:10920400072320E0019B1B881A46029B9818069BA3
:109214009968069B9B881A4607F006FE019B1A88EC
:10922400069B9B8813449AB2019B1A809DF81F30B9
:1092340001338DF81F30039B93F82C309DF81F20C9
:109244009A4292D30023184609B05DF804FB00B596
:1092540095B005900491039200231393039B1B88FC
:10926400ADF84A30039B00221A80059B93F82D30F9
:10927400002B0ED0BDF84A301A4603990498FFF724
:1092840099FB1390139B1193119B002B01D0119BFD
:10929400D8E0059B9B78002B0ED0BDF84A301A46C7
:1092A40003990498FFF796FC1390139B1093109B5B
:1092B400002B01D0109BC5E0059BDB78002B10D060
:1092C400059BDB7858B2BDF84A30039A0499FFF73E
:1092D400D0FC1390139B0F930F9B002B01D00F9B7B
:1092E400B0E0059B5B68002B11D0059B5B6893F98C
:1092F4000000BDF84A30039A0499FFF7F9FC139073
:10930400139B0E930E9B002B01D00E9B9AE0059BA2
:109314001B89002B14D0059B03F10800BDF84A30CB
:109324000193039B0093049B06220221FFF7CAFDCD
:109334001390139B0D930D9B002B01D00D9B81E08B
:10934400059B1B8A002B14D0059B03F11000BDF86C
:109354004A300193039B0093049B07220321FFF7E8
:10936400B1FD1390139B0C930C9B002B01D00C9B11
:1093740068E0059B1B8B002B14D0059B03F11800A0
:10938400BDF84A300193039B0093049B15221421DA
:10939400FFF798FD1390139B0B930B9B002B01D0AD
:1093A4000B9B4FE0059B1B6A002B0FD0059B186A93
:1093B400BDF84A30039A0499FFF7F7FD1390139B05
:1093C4000A930A9B002B01D00A9B3BE0059B5B6A36
:1093D400002B0FD0059B586ABDF84A30039A0499B4
:1093E400FFF743FE1390139B0993099B002B01D0B5
:1093F400099B27E0059B93F82C30002B0ED0BDF879
:109404004A30039A04990598FFF79EFE1390139B24
:109414000893089B002B01D0089B13E0059B1B7845
:10942400002B0ED0BDF84A30039A04990598FFF733
:109434002AFB1390139B0793079B002B01D0079BD8
:1094440000E0139B184615B05DF804FB82B0034698
:109454008DF807309DF90730002B13DB9DF807309A
:1094640003F01F0209499DF907305B09012000FA46
:1094740002F2203341F82320BFF34F8F00BFBFF324
:109484006F8F00BF00BF02B0704700BF00E100E073
:10949400044BD3F80034002B14BF01230023DBB2A8
:1094A400184670470000014008B507F03DF903462F
:1094B40083F00103DBB2002B03D109497B20FDF7C4
:1094C40097FFFFF7E5FF034683F00103DBB2002BB0
:1094D40004D000F04FFB034B00229A7000BF08BD7C
:1094E40098100300401B002000B583B000230193B3
:1094F400184B1B78002B02D0852301931CE0154BDD
:1095040000229A60134B00225A60124B00221A6107
:10951400104B0022DA60104800F0F2FA019007F0D4
:1095240003F9034683F00103DBB2002B01D000F002
:109534000DFB084B01221A70FFF7AAFF0346002B0C
:1095440002D0044B01229A70019B184603B05DF8C7
:1095540004FB00BF401B00203596020084B001903C
:10956400019B1B680393039B002B03D0039B1A6886
:10957400019B1A60039B184604B0704700B583B082
:10958400164B1B78002B04D1154940F21710FDF738
:109594002FFF124BDB68002B04D111494FF48C7060
:1095A400FDF726FF00238DF807300DF10703184659
:1095B40003F082FF094BDB68013B084AD360074B89
:1095C400DB68002B01D1FFF76FFF9DF807301846C9
:1095D40003F088FF00BF03B05DF804FB401B0020CC
:1095E4009810030000B585B003468DF807309DF848
:1095F4000730002B02D10C4B039301E00B4B039378
:109604000398FFF7ABFF0290029B002B06D0029B4E
:109614005B689DF8072010469847F1E700BF00BF3C
:1096240005B05DF804FB00BF481B0020501B002060
:1096340000B583B003468DF807309DF80730002B42
:1096440005D10A4B01225A700020FFF7CBFF9DF889
:109654000730012B05D1054B01229A700120FFF739
:10966400C1FF00BF03B05DF804FB00BF401B002036
:1096740000B583B001900091019B002B05D1054BEF
:1096840001225A700020FFF7ADFF00BF03B05DF860
:1096940004FB00BF401B002000B585B003460091C9
:1096A4008DF807309DF80730032B29D0032B35DCC8
:1096B400002B02D0012B04D030E00020FFF7C6FEBF
:1096C4002DE000238DF80F300DF10F03184603F041
:1096D400F3FE154B1B7883F00103DBB2002B01D0A2
:1096E400FFF702FF104BDB6801330F4AD3600E4BC8
:1096F40001229A709DF80F30184603F0F3FE0EE035
:10970400094B1B78002B04D1084940F25220FDF785
:109714006FFE00F01BFAFFF731FF00E000BF00BF4F
:1097240005B05DF804FB00BF401B00209810030047
:1097340000B589B001900091009B0793019B1B78B1
:109744008DF80C30019B5B680493019B9B68DBB232
:109754008DF81430019BDB680693074A079B52F887
:1097640023300649079A51F8221003AA1046984755
:1097740000BF09B05DF804FB541B00205C1B0020F3
:1097840000B589B001900091009B0793019B1B7861
:109794008DF80C30019B5B680493019B9B68DBB2E2
:1097A4008DF81430019BDB680693074A079B52F837
:1097B40023300649079A51F8221003AA1046984705
:1097C40000BF09B05DF804FB541B00205C1B0020A3
:1097D40030B58FB0039002910192039B1B780C93D8
:1097E4002C490C9B019A41F82320029B1A692A49AF
:1097F4000C9B41F823200C9B012B07D1029B5B7F20
:10980400002B03D125497620FDF7F2FD029B5B7FF7
:109814001946234A0C9B13440A461A70029B04AC53
:109824001D460FCD0FC495E80F0084E80F000C9B74
:10983400089300230D93039B1B781A46184B9B5CDB
:10984400002B0DD0039B181D019B002B01D0154A42
:1098540000E0002204AB194602F00CFB0D9014E06A
:10986400039B1B781A460E4B9B5C002B0DD1039B6C
:1098740003F10C00019B002B01D00B4A00E00022F5
:1098840004AB194601F06EFC0D900D9B18460FB009
:1098940030BD00BF541B00205C1B0020D01003000F
:1098A400641B0020359702008597020082B00346AE
:1098B4008DF807309DF90730002B0CDB9DF807303D
:1098C40003F01F0205499DF907305B09012000FAE6
:1098D40002F241F8232000BF02B0704700E100E02B
:1098E40082B0034600918DF807309DF90730002BB4
:1098F4000ADB009BDAB20C499DF907305201D2B25F
:109904000B4483F800230BE0009BDAB207499DF86F
:10991400073003F00F03043B5201D2B20B441A7612
:1099240000BF02B0704700BF00E100E000ED00E0BE
:1099340082B00190019B1B0B5BB2184602B07047CA
:1099440000B583B003460A468DF8073013468DF8F8
:1099540006309DF80630012B03D99DF80630032B01
:109964000BD99DF80630042B03D99DF80630072B3C
:1099740003D908496B20FDF73BFD9DF806209DF9AE
:10998400073011461846FFF7ABFF00BF03B05DF880
:1099940004FB00BF0811030000B583B003468DF833
:1099A40007309DF907301846FFF780FF00BF03B06A
:1099B4005DF804FB82B003468DF807300F4A9DF929
:1099C4000730002B00DA1F335B115BB252F82320FF
:1099D4009DF90730594203F01F0301F01F0158BFDE
:1099E4004B425BB222FA03F303F00103002B14BFD2
:1099F40001230023DBB2184602B0704700E100E007
:109A040082B001904FF08042019BC2F8083300BF3E
:109A140002B0704782B003468DF807309DF80730D6
:109A240003F1804301221A6000BF02B0704784B082
:109A34000346ADF80630BDF8063003F1804300223A
:109A44001A60BDF8063003F180431B680393039B3F
:109A540000BF04B0704782B00346ADF80630BDF8CD
:109A6400063003F180431B68002B14BF012300233D
:109A7400DBB2184602B0704782B001904FF08042CA
:109A8400019BC2F8183500BF02B070474FF0804305
:109A9400D3F818341B0C03F00103002B14BF01236B
:109AA4000023DBB21846704700B583B006238DF857
:109AB40007304FF08040FFF73BFF03461846FFF79F
:109AC40079FF034683F00103DBB2002B13D04FF080
:109AD4008040FFF72DFF03461A469DF807301946CC
:109AE4001046FFF72DFF4FF08040FFF721FF03469C
:109AF4001846FFF751FF00BF03B05DF804FB0000F8
:109B040000B585B00190019B002B03D10D49A42021
:109B1400FDF76EFC002303930B4B1B79002B02D043
:109B24008523039308E0084A019B1360064B012236
:109B34001A71054B00225A71039B184605B05DF853
:109B440004FB00BF3C110300681B002008B5074B51
:109B54001B79002B03D10649BD20FDF749FCFFF713
:109B6400A3FF0120FFF788FF00BF08BD681B00208A
:109B74003C11030008B50D4B1B79002B03D10C4994
:109B8400F720FDF735FC0220FFF73AFF4FF482700F
:109B9400FFF74DFF0C20FFF73DFF00BFFFF776FFF7
:109BA4000346002BFAD100BF00BF08BD681B00208C
:109BB4003C11030008B54FF48070FFF74CFF0346D7
:109BC400002B14D04FF48070FFF731FF0120FFF712
:109BD40017FF114B5B7983F00103DBB2002B06D036
:109BE4000D4B01225A710C4B1B68002098474FF40F
:109BF4008270FFF730FF0346002B0AD04FF48270C7
:109C0400FFF715FF0220FFF7FBFE034B1B68012043
:109C1400984700BF08BD00BF681B002082B0034600
:109C24008DF807309DF90730002B0CDB9DF80730C9
:109C340003F01F0205499DF907305B09012000FA72
:109C440002F241F8232000BF02B0704700E100E0B7
:109C540082B0034600918DF807309DF90730002B40
:109C64000ADB009BDAB20C499DF907305201D2B2EB
:109C74000B4483F800230BE0009BDAB207499DF8FC
:109C8400073003F00F03043B5201D2B20B441A769F
:109C940000BF02B0704700BF00E100E000ED00E04B
:109CA40082B00190019B1B0B5BB2184602B0704757
:109CB40000B583B003460A468DF8073013468DF885
:109CC40006309DF80630012B03D99DF80630032B8E
:109CD4000BD99DF80630042B03D99DF80630072BC9
:109CE40003D908496B20FDF783FB9DF806209DF9F5
:109CF400073011461846FFF7ABFF00BF03B05DF80D
:109D040004FB00BF7411030000B583B003468DF853
:109D140007309DF907301846FFF780FF00BF03B0F6
:109D24005DF804FB00B583B00346ADF80630BDF81A
:109D34000630184600F026F803461B68012B0CBFBA
:109D440001230023DBB2184603B05DF804FB00B521
:109D540085B00346ADF80630BDF80630184600F06D
:109D640011F803461A4600231360BDF8063018465E
:109D740000F008F803461B680393039B00BF05B07B
:109D84005DF804FB82B00346ADF80630BDF806303A
:109D940003F1804303F5C043184602B07047000046
:109DA40082B00190034A019BC2F8043300BF02B0A1
:109DB400704700BF0060004082B00190034BD3F8AD
:109DC4000423019B1340184602B070470060004012
:109DD40082B00190084A019B03F5A27352F8233024
:109DE400054943F00102019B03F5A27341F82320C6
:109DF40000BF02B0704700BF0060004084B0039011
:109E0400029113468DF80730144A039B03F5A2739D
:109E140052F82330114923F44F3323F44073039A47
:109E240002F5A27241F822300C4A039B03F5A27397
:109E340052F82320029B1B0203F47C519DF8073047
:109E44001B0403F440330B4304491A43039B03F5F7
:109E5400A27341F8232000BF04B0704700600040A3
:109E640082B00190054A019B03F5A27352F8233096
:109E74001B0A03F03F03184602B07047006000401D
:109E840082B00190064A019B03F5A27352F8233075
:109E94001B0C03F00303DBB2184602B0704700BF8B
:109EA4000060004000B583B00190019B1B68184618
:109EB40000F028F90346002B04D10B494FF4F67047
:109EC400FDF796FA019B1B681F2B02D84FF0A043A5
:109ED40006E0019B1B6803F01F02019B1A60034B01
:109EE400184603B05DF804FBA01103000003005002
:109EF40000B585B00190084611461A4603468DF810
:109F040003300B468DF8023013468DF8013001AB57
:109F14001846FFF7C7FF03909DF803209DF8023011
:109F24005B001A439DF801309B001A439DF81830DA
:109F34001B0242EA03019DF81C301B04019A1943D9
:109F4400039B02F5E07243F8221000BF05B05DF8F0
:109F540004FB00B585B003900B468DF80B309DF8DB
:109F64000B3000220192002200920022002103986B
:109F7400FFF7BEFF00BF05B05DF804FB00B585B078
:109F8400019001AB1846FFF78DFF0390019A039BE4
:109F940002F5E07253F8223023F002030293019A8F
:109FA400039B02F5E072029943F8221000BF05B04A
:109FB4005DF804FB00B585B001900B468DF80330C5
:109FC40001AB1846FFF76EFF0390019A039B02F55D
:109FD400E07253F82230019A23F44031039B02F5D6
:109FE400E07243F82210019A039B02F5E07253F8E1
:109FF40022109DF803301B04019A1943039B02F5B8
:10A00400E07243F8221000BF05B05DF804FB00B510
:10A0140085B0019001AB1846FFF744FF0390039805
:10A0240000F020F80246019B22FA03F303F0010337
:10A03400184605B05DF804FB00B585B0019001AB8E
:10A044001846FFF72FFF0390019A039B02F5E07275
:10A0540053F822301B0C03F00303DBB2184605B09F
:10A064005DF804FB82B00190019BD3F810351846CB
:10A0740002B0704788B0039002910192164A05AB72
:10A0840092E8030083E80300039B079319E0079B0E
:10A094009B0020336B4453F80C3CD3F82025019BE0
:10A0A4001A60079B9B0020336B4453F80C3C019AC5
:10A0B4001268C3F82025019B04330193079B0133E5
:10A0C4000793039A029B1344079A9A42DFD300BF73
:10A0D40000BF08B0704700BFCC11030000B585B0C5
:10A0E400019001AB1846FFF7DDFE0390019B0122AE
:10A0F40002FA03F31A46039BC3F8202500BF05B0F8
:10A104005DF804FB84B00190019B5B09029300237A
:10A114000393029B002B03D0029B012B04D007E086
:10A124004FF0FF33039303E04FF6FF73039300BF35
:10A13400019B03F01F030193039A019B22FA03F38B
:10A1440003F00103002B14BF01230023DBB21846E4
:10A1540004B0704784B001900091009B0393019B6D
:10A16400DB080293019B03F0070301930122019B87
:10A1740002FA03F30399029A0A4412781340184628
:10A1840004B0704784B001900091009B0393019B3D
:10A19400DB080293019B03F007030193039A029BDC
:10A1A40013441B785AB20121019B01FA03F35BB2F9
:10A1B400134359B2039A029B1344CAB21A7000BFE4
:10A1C40004B0704782B001900C4A019B13443033B1
:10A1D40093F90030002B09DB084A019B1344303308
:10A1E40093F90030072B01DC012300E0002303F086
:10A1F4000103DBB2184602B0704700BF701B002099
:10A2040082B00190064A019B1344303393F9003025
:10A21400072BCCBF01230023DBB2184602B07047E2
:10A22400701B002082B00190064A019B1344303316
:10A2340093F90030DB43DBB2DB09DBB2184602B032
:10A24400704700BF701B002084B0039002910192FC
:10A254008DF80330029B59B20E4A039B13443033EA
:10A264000A461A700B49029B019A41F823209DF873
:10A27400033083F00103DBB2002B08D0029B083BC0
:10A28400039A51B2034A13440A4683F8602000BF7C
:10A2940004B07047701B002082B00190044A019BF7
:10A2A40013443033FF221A7000BF02B0704700BF5E
:10A2B400701B002000B583B0019004490198FFF79A
:10A2C40061FF00BF03B05DF804FB00BFD41B002096
:10A2D40082B00190044A019B1344303393F9003057
:10A2E400184602B0704700BF701B002082B0019076
:10A2F400034A019B52F82330184602B0704700BF4E
:10A30400701B002084B00190074A019B1344603302
:10A3140093F900308DF80F309DF80F3023F0C0030F
:10A32400184604B0704700BF701B002084B0019031
:10A33400074A019B1344603393F900308DF80F30C2
:10A344009DF80F309B09DBB2184604B0704700BF7C
:10A35400701B002000B589B00390029113468DF85C
:10A364000730FF238DF81F309DF80730002B01D0F4
:10A37400002300E0082305939DF80730002B01D04B
:10A38400082300E00C230493059B069314E00F4A72
:10A39400069B52F82330B3F1FF3F0AD19DF80730F2
:10A3A400029A06990398FFF74FFF069B8DF81F301A
:10A3B40006E0069B01330693069A049B9A42E6D371
:10A3C4009DF91F30184609B05DF804FB701B00208E
:10A3D40082B003468DF807309DF80730094A4FF0E4
:10A3E400FF3142F823109DF80730072B07D99DF859
:10A3F4000730083B034A1344FF2283F8602000BF60
:10A4040002B07047701B002000B583B02D4B93F849
:10A414006A30002B03D008230093009B4EE00023F6
:10A424008DF8073011E09DF807301846FFF76AFEF3
:10A434000346002B04D09DF807301846FFF72CFF85
:10A444009DF8073001338DF807309DF807302F2B26
:10A45400E9D900238DF8073009E09DF80730184644
:10A46400FFF7B6FF9DF8073001338DF807309DF8EC
:10A4740007300B2BF1D906220021134806F006FD04
:10A484001248FFF70DFC034606211846FFF710FC9F
:10A494000E48FFF705FC03461846FFF735FC4FF45A
:10A4A400BE70FFF754FC4FF00040FFF779FC054BFA
:10A4B400012283F86A2000230093009B184603B00E
:10A4C4005DF804FB701B0020D41B002000600040DA
:10A4D400044B93F86A30002B14BF01230023DBB232
:10A4E40018467047701B002000B587B00390029196
:10A4F40001920398FFF706FE0346002B04D1364968
:10A504004FF40C70FCF774FF002305930398FFF7D6
:10A5140089FE0346002B02D00823059357E0029BD3
:10A524009B78C3F34003DBB21A4601990398FFF703
:10A5340011FF03468DF813309DF91330B3F1FF3F3B
:10A5440043D0029B9B78C3F38003DBB283F0010307
:10A55400DBB2002B13D0029B9B7803F00103DBB228
:10A56400002B03D00398FFF709FD05E0029B5B78FD
:10A5740019460398FFF7EDFC0398FFF79BFE029B37
:10A584009B7803F00203DBB2002B08D09DF9130083
:10A59400029B1B781A460399FFF730FC17E09DF9DC
:10A5A4001330083B0D4A134493F96010029B1B7847
:10A5B4009B015AB29DF91330083B0A4351B2074A32
:10A5C40013440A4683F8602001E004230593059BA5
:10A5D400184607B05DF804FBDC110300701B002073
:10A5E40000B589B001900B468DF803300198FFF750
:10A5F40089FD0346002B04D13A494FF41870FCF747
:10A60400F7FE0198FFF70EFE0346002B04D13549EF
:10A6140040F26120FCF7ECFE0198FFF7F1FD0346E0
:10A62400002B2AD00198FFF753FE0346083B184637
:10A63400FFF77CFE03468DF80F309DF80F30032B97
:10A644000BD10198FFF7E3FC0346002B01D0032351
:10A6540000E002238DF81F3008E09DF80F30012B35
:10A6640001D1022300E003238DF81F309DF81F3031
:10A6740019460198FFF79EFC30E00198FFF7A2FD10
:10A684000346002B2AD00198FFF722FE03460693C7
:10A69400069B9BB240339BB29B00ADF81630069BE1
:10A6A4001846FFF795FBBDF816301846FFF74FFB29
:10A6B4009DF80330002B11D00198FFF709FE0346E3
:10A6C4001846FFF713FE0490049B002B06D00122CA
:10A6D400069B02FA03F31846FFF762FB00BF09B0BA
:10A6E4005DF804FBDC11030000B583B00190019810
:10A6F400FFF708FD0346002B04D1094940F2B220BC
:10A70400FCF776FE0198FFF782FC0346002B14BF8A
:10A7140001230023DBB2184603B05DF804FB00BF3D
:10A72400DC11030000B585B00190019A02210020DC
:10A73400FFF7A0FC002303930BE0039B9B00019A0B
:10A7440013441B68002B01D0012306E0039B013353
:10A754000393039B012BF0D90023184605B05DF841
:10A7640004FB000000B587B00190002305935BE073
:10A77400344A059B1344603393F90030B3F1FF3F2F
:10A784004ED00598FFF7BEFD049001990498FFF799
:10A79400E1FC0346002B44D00598FFF7C7FD0346B0
:10A7A4008DF80F300498FFF747FC03468DF80E3000
:10A7B4009DF80E30022B01D1032300E002238DF813
:10A7C4000D309DF80D3019460498FFF7F3FB0498FB
:10A7D400FFF784FC0498FFF77BFD03461846FFF758
:10A7E40085FD0290029B002B1BD09DF80F30032B9C
:10A7F4000FD09DF80E30022B03D19DF80F30012BA2
:10A8040007D09DF80E30032B0BD19DF80F30022B8F
:10A8140007D19DF80F20029B11460498984700E049
:10A8240000BF059B01330593059B032BA0D9019819
:10A83400FFF778FF0346002B97D100BF00BF07B096
:10A844005DF804FB701B002000B58BB00023089357
:10A8540001AB00221A605A604FF48073ADF81A30CD
:10A86400012309930023079321E0BDF81A30184609
:10A87400FFF758FA0346002B0ED00998FFF79CFA0D
:10A884000346002B08D0BDF81A301846FFF75FFACC
:10A89400089A099B13430893099B5B000993BDF82D
:10A8A4001A300433ADF81A30079B01330793079B22
:10A8B400072BDAD94FF4BE70FFF734FA0346002BA6
:10A8C4000DD04FF4BE70FFF742FA089B43F00043EB
:10A8D400089301AB1A4602210020FFF7CBFB089B2B
:10A8E400DBB2002B29D0012309930023079321E035
:10A8F400099A089B1340002B16D00798FFF7B0FA6B
:10A9040005900798FFF7BCFA03468DF813300798B3
:10A91400FFF7ECFC0390039B002B05D09DF813205C
:10A92400039B114605989847099B5B000993079B75
:10A9340001330793079B072BDAD9089B002B03DA13
:10A9440001AB1846FFF70EFF00BF0BB05DF804FB28
:10A9540008B5064B1B68002B03D105495120FCF7B1
:10A9640047FD024B1B68984708BD00BFDC1B002055
:10A974001812030082B00190019B044A934201D152
:10A98400034B00E00023184602B07047002000404B
:10A99400DC1B002000B587B001900091019B002BC7
:10A9A40003D11C497720FCF723FD0198FFF7E2FF50
:10A9B4000590059B002B25D000238DF81330002330
:10A9C4008DF80B300DF10B03184602F075FD059B55
:10A9D4001B79002B03D001238DF8133005E0059B70
:10A9E400009A1A60059B01221A719DF80B301846D3
:10A9F40002F078FD9DF81330002B03D0112303934C
:10AA0400039B02E000230393039B184607B05DF801
:10AA140004FB00BF1812030000B585B00190019B30
:10AA2400002B03D10A499B20FCF7E2FC0198FFF7B5
:10AA3400A1FF0390039B002B05D0039B00221A6007
:10AA4400039B00221A7100BF05B05DF804FB00BF30
:10AA54001812030082B003468DF807309DF90730C1
:10AA6400002B0CDB9DF8073003F01F0205499DF90C
:10AA740007305B09012000FA02F241F8232000BFED
:10AA840002B0704700E100E082B003468DF8073061
:10AA94009DF90730002B13DB9DF8073003F01F02EC
:10AAA40009499DF907305B09012000FA02F22033BD
:10AAB40041F82320BFF34F8F00BFBFF36F8F00BF58
:10AAC40000BF02B0704700BF00E100E082B003465F
:10AAD40000918DF807309DF90730002B0ADB009BAD
:10AAE400DAB20C499DF907305201D2B20B4483F813
:10AAF40000230BE0009BDAB207499DF8073003F00E
:10AB04000F03043B5201D2B20B441A7600BF02B0C9
:10AB1400704700BF00E100E000ED00E082B001906A
:10AB2400019B1B0B5BB2184602B0704700B583B0A3
:10AB340003460A468DF8073013468DF806309DF813
:10AB44000630012B03D99DF80630032B0BD99DF851
:10AB54000630042B03D99DF80630072B03D9084986
:10AB64006B20FCF745FC9DF806209DF90730114643
:10AB74001846FFF7ABFF00BF03B05DF804FB00BF4E
:10AB84005012030000B583B003468DF807309DF9D9
:10AB940007301846FFF75EFF00BF03B05DF804FB03
:10ABA40000B583B003468DF807309DF90730184689
:10ABB400FFF76AFF00BF03B05DF804FB84B00190A7
:10ABC4000B46ADF80230BDF80230019A134400225E
:10ABD4001A60BDF80230019A13441B680393039B67
:10ABE40000BF04B0704782B001900B46ADF802304C
:10ABF400BDF80230019A13441B68002B14BF0123D3
:10AC04000023DBB2184602B0704782B00190009175
:10AC1400019B009AC3F8042300BF02B0704782B0BE
:10AC240001900091019BD3F80423009B1340002B57
:10AC340014BF01230023DBB2184602B0704782B070
:10AC440001900091019B009AC3F8082300BF02B051
:10AC5400704784B00190019BD3F880340393019B27
:10AC6400039AC3F88024039B184604B0704782B04B
:10AC74000190019B0422C3F8002500BF02B0704775
:10AC840082B00190019B0022C3F8002500BF02B0EE
:10AC9400704784B0039002910192039B019AC3F818
:10ACA4001425039B029AC3F80C2500BF04B0704717
:10ACB40000B583B001904FF0FF324FF0FF3101989F
:10ACC400FFF7E7FF00BF03B05DF804FB82B001901B
:10ACD400019BD3F80C35184602B0704782B001903E
:10ACE400019BD3F81435184602B0704782B0019026
:10ACF400019BD3F80835184602B0704782B0019022
:10AD0400019BD3F81035184602B0704784B0039005
:10AD140002910192039B029AC3F80825039B019AAE
:10AD2400C3F8102500BF04B0704700B583B001908C
:10AD34004FF0FF324FF0FF310198FFF7E7FF00BFFC
:10AD440003B05DF804FB82B00190019BD3F8183581
:10AD5400DBB2184602B0704782B001900B468DF802
:10AD640003309DF80320019BC3F81C2500BF02B0EB
:10AD7400704782B001900B468DF803309DF8033084
:10AD8400019A134401221A6000BF02B0704782B0D6
:10AD940001900B468DF8033013468DF802309DF870
:10ADA40003209DF802301343DBB21A46019BC3F81B
:10ADB4006C2500BF02B0704782B001900091019BE6
:10ADC400009AC3F8242500BF02B0704700B583B0D1
:10ADD4000190019B1B68184600F0A4F80346002B61
:10ADE40004D10B494FF4F670FCF702FB019B1B687E
:10ADF4001F2B02D84FF0A04306E0019B1B6803F011
:10AE04001F02019B1A60034B184603B05DF804FB54
:10AE14007C1203000003005000B585B00190084681
:10AE240011461A4603468DF803300B468DF802305E
:10AE340013468DF8013001AB1846FFF7C7FF0390A6
:10AE44009DF803209DF802305B001A439DF8013001
:10AE54009B001A439DF818301B0242EA03019DF837
:10AE64001C301B04019A1943039B02F5E07243F85A
:10AE7400221000BF05B05DF804FB00B585B0039057
:10AE8400002301930023009300230122012103984E
:10AE9400FFF7C2FF00BF05B05DF804FB00B585B045
:10AEA40003900B468DF80B309DF80B300022019275
:10AEB40000220092002200210398FFF7ADFF00BF9B
:10AEC40005B05DF804FB00B585B003900023019341
:10AED400002300930023012200210398FFF79CFF25
:10AEE40000BF05B05DF804FB00B585B0019001AB6F
:10AEF4001846FFF76BFF0390019B012202FA03F34C
:10AF04001946039800F004F800BF05B05DF804FB8F
:10AF140082B001900091019B009AC3F8082500BFFC
:10AF240002B0704784B00190019B5B090293002337
:10AF34000393029B002B03D0029B012B04D007E058
:10AF44004FF0FF33039303E04FF6FF73039300BF07
:10AF5400019B03F01F030193039A019B22FA03F35D
:10AF640003F00103002B14BF01230023DBB21846B6
:10AF740004B0704700B583B001900091009B1B683A
:10AF8400B3F1FF3F09D0009B1B681846FFF7ACFFE5
:10AF9400009B1B681846FFF770FF009B5B68B3F1CA
:10AFA400FF3F05D0009B5B6800211846FFF776FF42
:10AFB400019B1A68009B9B6919461046FFF7FCFE2B
:10AFC400019B1868009B597D009B1B7D1A46FFF767
:10AFD400DEFE019B1868009B1968009B5B681A469B
:10AFE400FFF757FE009B1B7D012B22D1009B9B6822
:10AFF400B3F1FF3F05D0009B9B6800211846FFF783
:10B004004DFF009BDB68B3F1FF3F09D0009BDB6879
:10B014001846FFF769FF009BDB681846FFF72DFF12
:10B02400019B1868009BD968009B9B681A46FFF730
:10B034006DFE00BF03B05DF804FB000000B583B0F3
:10B0440001900B468DF80330019B1B684FF48E7101
:10B054001846FFF7B3FD019B1B684FF4A271184615
:10B06400FFF7ACFD019B1B680E491846FFF7CDFDA9
:10B07400019B1B681846FFF751FD03461A469DF8CD
:10B08400033019461046FFF751FD019B1B68184613
:10B09400FFF744FD03461846FFF774FD00BF03B0F5
:10B0A4005DF804FB8000020000B583B00190019BB1
:10B0B4001B6808491846FFF7C2FD019B1B68184628
:10B0C400FFF72CFD03461846FFF76AFD00BF03B0E7
:10B0D4005DF804FB8402020000B587B00190019B77
:10B0E4001B681846FFF7F2FD0590019B1B68184684
:10B0F400FFF7F4FD0490019B1B681846FFF7F6FD6B
:10B104000390019B1B681846FFF7F8FD0290019B12
:10B114001B681846FFF7CCFD019B1B681846FFF718
:10B1240004FE059BB3F1FF3F02D00598FFF7CBFE69
:10B13400049BB3F1FF3F02D00498FFF7C4FE029BC7
:10B14400B3F1FF3F02D00298FFF7BDFE039BB3F1BA
:10B15400FF3F02D00398FFF7B6FE00BF07B05DF8CB
:10B1640004FB000000B587B0039002910192029B9A
:10B17400002B03D12D49AA20FCF73AF9039B1B7934
:10B184001A462C2302FB03F3294A13440493002395
:10B194000593049B93F82A30002B03D008230593CE
:10B1A400059B3EE0039B1A68039B1B791946214BC0
:10B1B40053F8213019461046FFF7ECFB0346002BE9
:10B1C40003D011230593059B2BE002990398FFF705
:10B1D400D1FE049B019A5A60029B1A69049B1A606F
:10B1E400049B5B68002B05D0029B1B7F19460398C8
:10B1F400FFF724FF039B1B681846FFF738FD049BE9
:10B2040000229A61049B0022DA61049B002283F8E5
:10B214002920049B00225A61049B012283F82A20DE
:10B22400059B184607B05DF804FB00BFB01203008D
:10B23400E41B0020E412030000B585B00190019BDB
:10B244001B791A462C2302FB03F3114A134403937C
:10B25400019B1B681846FFF713FD039B5B68002BDB
:10B2640002D00198FFF720FF0198FFF735FF019BFB
:10B274001B681846FFF7D0FB039B002283F82A20A3
:10B28400039B00225A6000BF05B05DF804FB00BFB9
:10B29400E41B002000B585B0019000914FF48E713D
:10B2A4000198FFF78BFC009B9A68009B1B6A134470
:10B2B4001B788DF80F30009B1B6A5A1C009B1A6286
:10B2C4009DF80F3019460198FFF746FD00BF05B001
:10B2D4005DF804FB00B585B001900091009B5B69AB
:10B2E400039316E0009B93F82830DBB2002B01D0C7
:10B2F400002314E04FF48E710198FFF774FC0346A9
:10B3040083F00103DBB2002BECD100990198FFF725
:10B31400C1FF009B1B6A039A9A42EBD8012318468B
:10B3240005B05DF804FB000000B587B003900291FE
:10B334000192039B1B791A462C2302FB03F33C4A1C
:10B3440013440493049B93F82A30012B04D0394905
:10B354004FF48C70FCF74CF8029B002B04D1354958
:10B3640040F21910FCF744F8019B002B04D1314939
:10B374004FF48D70FCF73CF8039800F05DF8034639
:10B38400002B03D011230593059B4CE0049B019AE9
:10B394005A61049B029A9A60049B00221A62049BDD
:10B3A400002283F8282000230593039B1B684FF495
:10B3B4008E711846FFF702FC039B1B680821184690
:10B3C400FFF7D7FC039B1B6804991846FFF762FF3D
:10B3D400049B5B68002B25D1039B1B6804991846CA
:10B3E400FFF778FF034683F00103DBB2002B02D0A2
:10B3F4000F23059313E000BF039B1B684FF48E716A
:10B404001846FFF7F0FB034683F00103DBB2002B81
:10B41400F2D1039B1B680C211846FFF7AAFC049B7E
:10B4240000225A61059B184607B05DF804FB00BF73
:10B43400E41B0020B012030082B00190019B1B7931
:10B444001946074A2C2301FB03F3134414331B68E6
:10B45400002B14BF01230023DBB2184602B070474F
:10B46400E41B002010B582B001900091009B9B6901
:10B47400002B08D14FF484710198FFF79FFB0198CA
:10B48400FFF761FC13E04FF484710198FFF796FB1A
:10B49400009BDA68009B5B6AD4180198FFF753FCA1
:10B4A40003462370009B5B6A5A1C009B5A6202B0DD
:10B4B40010BD00B589B003900291019201238DF86B
:10B4C4001030029B0693019B0593039B5B68039AD0
:10B4D400116804AA1046984700BF09B05DF804FB40
:10B4E40000B587B00190009100238DF80830009BCF
:10B4F4000493019B9B680393019B00225A61019B67
:10B504005B68019A116802AA1046984700BF07B009
:10B514005DF804FB00B58BB0019000914FF400710D
:10B524000198FFF77CFB0346002B39D04FF492714E
:10B534000198FFF758FB0346002B31D04FF492716A
:10B544000198FFF73BFB4FF401710198FFF777FB7C
:10B55400009B93F8293083F00103DBB2002B03D066
:10B5640004210198FFF705FC02238DF80C300198A3
:10B57400FFF76FFB03460693009B9B690593009BB3
:10B58400DB680493009B00229A61009B0022DA612D
:10B59400009B5B68009A116803AA1046984752E022
:10B5A40004210198FFF73BFB0346002B4BD04FF4DB
:10B5B40084710198FFF717FB0346002B43D00099D1
:10B5C4000198FFF74FFF009B9A69009B5B6A9A42C0
:10B5D40039D1009BDB69002B19D0009BDB680993F0
:10B5E400009B5B6A0893009BDA69009B9A61009B4D
:10B5F4001A69009BDA60009B0022DA61009B00223A
:10B604005A62099A08990098FFF753FF1BE0009BC0
:10B6140093F8293083F00103DBB2002B03D004211B
:10B624000198FFF7A6FB4FF401710198FFF707FBA0
:10B63400009B00229A61009B596A009BDB681A46B2
:10B644000098FFF736FF4FF48E710198FFF7CBFA9D
:10B654000346002B24D0009B5B690793009B1B6A65
:10B66400079A9A420DD9009B93F82830DBB283F0F5
:10B674000103DBB2002B04D000990198FFF70AFE06
:10B684000EE04FF48E710198FFF798FA009B5B6906
:10B69400002B05D0009B5B6919460098FFF720FF3B
:10B6A4004FF4A2710198FFF79EFA0346002B1CD0B9
:10B6B4004FF4A2710198FFF781FA009B93F82930A7
:10B6C400002B03D000210198FFF753FB009B9B69DB
:10B6D400002B0AD0009B00229A61009B596A009BB0
:10B6E400DB681A460098FFF7E4FE00BF0BB05DF874
:10B6F40004FB000008B503490348FFF70BFF00BF34
:10B7040008BD00BFE41B00200020004082B00346B7
:10B714008DF807309DF90730002B0CDB9DF80730BE
:10B7240003F01F0205499DF907305B09012000FA67
:10B7340002F241F8232000BF02B0704700E100E0AC
:10B7440082B003468DF807309DF90730002B13DBD8
:10B754009DF8073003F01F0209499DF907305B0982
:10B76400012000FA02F2203341F82320BFF34F8F67
:10B7740000BFBFF36F8F00BF00BF02B0704700BFB0
:10B7840000E100E082B0034600918DF807309DF996
:10B794000730002B0ADB009BDAB20C499DF9073015
:10B7A4005201D2B20B4483F800230BE0009BDAB2BF
:10B7B40007499DF8073003F00F03043B5201D2B24E
:10B7C4000B441A7600BF02B0704700BF00E100E0EE
:10B7D40000ED00E082B00190019B03F06043B3F1FF
:10B7E400005F0CBF01230023DBB2184602B0704790
:10B7F40082B00190019B1B0B5BB2184602B07047EC
:10B8040000B583B003460A468DF8073013468DF819
:10B8140006309DF80630012B03D99DF80630032B22
:10B824000BD99DF80630042B03D99DF80630072B5D
:10B8340003D908496B20FBF7DBFD9DF806209DF931
:10B84400073011461846FFF79DFF00BF03B05DF8AF
:10B8540004FB00BFE812030000B583B003468DF873
:10B8640007309DF907301846FFF750FF00BF03B0BB
:10B874005DF804FB00B583B003468DF807309DF9ED
:10B8840007301846FFF75CFF00BF03B05DF804FB08
:10B8940084B001900B46ADF80230BDF80230019A35
:10B8A400134400221A60BDF80230019A13441B6845
:10B8B4000393039B00BF04B0704782B001900B4612
:10B8C400ADF80230BDF80230019A13441B68002B16
:10B8D40014BF01230023DBB2184602B0704782B0C4
:10B8E40001900091019BD3F80022009BDB431A4096
:10B8F400019BC3F8002200BF02B0704782B00190E0
:10B904000091019B009AC3F8042300BF02B0704762
:10B9140082B001900091019B009AC3F8082300BFF4
:10B9240002B0704784B00190019BD3F88034039334
:10B93400019B039AC3F88024039B184604B0704704
:10B9440082B00190019B0822C3F8002500BF02B019
:10B95400704782B00190019B0022C3F8002500BF0C
:10B9640002B0704784B0039002910192039B029A43
:10B97400C3F80C25039B019AC3F8142500BF04B037
:10B98400704700B583B001904FF0FF324FF0FF31A4
:10B994000198FFF7E7FF00BF03B05DF804FB82B036
:10B9A4000190019BD3F80C35184602B0704782B061
:10B9B4000190019BD3F81435184602B0704782B049
:10B9C4000190019BD3F80835184602B0704782B045
:10B9D4000190019BD3F81035184602B0704784B02B
:10B9E400039002910192039B029AC3F80825039BDA
:10B9F400019AC3F8102500BF04B0704700B583B0A6
:10BA040001904FF0FF324FF0FF310198FFF7E7FF4D
:10BA140000BF03B05DF804FB82B001900B468DF8C3
:10BA240003309DF80330019A134401221A6000BFC9
:10BA340002B0704782B001900B468DF80330134674
:10BA44008DF802309DF803209DF802301343DBB2D9
:10BA54001A46019BC3F86C2500BF02B0704782B040
:10BA640001900091019B009AC3F8242500BF02B005
:10BA7400704784B0039002910192029A039BC3F829
:10BA84004425039B019AC3F8482500BF04B07047BE
:10BA940082B00190019BD3F84C35184602B0704730
:10BAA40082B00190019BD3F83C35184602B0704730
:10BAB40000B583B00190019B1B68184600F0A4F800
:10BAC4000346002B04D10B494FF4F670FBF790FCAE
:10BAD400019B1B681F2B02D84FF0A04306E0019B7B
:10BAE4001B6803F01F02019B1A60034B184603B046
:10BAF4005DF804FB141303000003005000B585B087
:10BB04000190084611461A4603468DF803300B4649
:10BB14008DF8023013468DF8013001AB1846FFF75B
:10BB2400C7FF03909DF803209DF802305B001A4381
:10BB34009DF801309B001A439DF818301B0242EA1D
:10BB440003019DF81C301B04019A1943039B02F561
:10BB5400E07243F8221000BF05B05DF804FB00B5A5
:10BB640085B0039000230193002300930023012256
:10BB740001210398FFF7C2FF00BF05B05DF804FB85
:10BB840000B585B003900B468DF80B309DF80B3053
:10BB94000022019200220092002200210398FFF764
:10BBA400ADFF00BF05B05DF804FB00B585B00390A0
:10BBB4000023019300230093002301220021039812
:10BBC400FFF79CFF00BF05B05DF804FB00B585B02E
:10BBD400019001AB1846FFF76BFF0390019B012214
:10BBE40002FA03F31946039800F004F800BF05B005
:10BBF4005DF804FB82B001900091019B009AC3F8A8
:10BC0400082500BF02B0704784B00190019B5B0916
:10BC1400029300230393029B002B03D0029B012B6E
:10BC240004D007E04FF0FF33039303E04FF6FF73B4
:10BC3400039300BF019B03F01F030193039A019B2D
:10BC440022FA03F303F00103002B14BF01230023A2
:10BC5400DBB2184604B0704700B583B00190009180
:10BC6400009B1B68B3F1FF3F09D0009B1B6818467B
:10BC7400FFF7ACFF009B1B681846FFF770FF009BA3
:10BC84005B68B3F1FF3F05D0009B5B680021184659
:10BC9400FFF776FF019B1A68009B9B6919461046C3
:10BCA400FFF7DDFE019B1868009B597D009B1B7DFF
:10BCB4001A46FFF7BFFE019B1868009B1968009B9A
:10BCC4005B681A46FFF74EFE009B1B7D012B22D1B9
:10BCD400009B9B68B3F1FF3F05D0009B9B6800214C
:10BCE4001846FFF74DFF009BDB68B3F1FF3F09D017
:10BCF400009BDB681846FFF769FF009BDB6818466A
:10BD0400FFF72DFF019B1868009BD968009B9B6877
:10BD14001A46FFF764FE00BF03B05DF804FB0000A1
:10BD240000B583B001900B468DF80330019B1B686E
:10BD34004FF488711846FFF7ABFD019B1B684FF465
:10BD440090711846FFF7A4FD019B1B684FF4927194
:10BD54001846FFF79DFD019B1B684FF4A27118461E
:10BD6400FFF796FD019B1B684FF4AC711846FFF773
:10BD74008FFD019B1B680F491846FFF7BFFD019B10
:10BD84001B681846FFF734FD03461A469DF8033036
:10BD940019461046FFF734FD019B1B681846FFF750
:10BDA40027FD03461846FFF757FD00BF03B05DF8B3
:10BDB40004FB00BF1003420000B583B00190019B57
:10BDC4001B6808491846FFF7A3FD019B1B6818462A
:10BDD400FFF70EFD03461846FFF74CFD00BF03B006
:10BDE4005DF804FB1003420000B587B00190019B8D
:10BDF4001B681846FFF7D3FD0590019B1B68184686
:10BE0400FFF7D5FD0490019B1B681846FFF7D7FD8B
:10BE14000390019B1B681846FFF7D9FD0290019B14
:10BE24001B681846FFF7ADFD019B1B681846FFF71A
:10BE3400E5FD059BB3F1FF3F02D00598FFF7B5FE82
:10BE4400049BB3F1FF3F02D00498FFF7AEFE029BC0
:10BE5400B3F1FF3F02D00298FFF7A7FE039BB3F1B3
:10BE6400FF3F02D00398FFF7A0FE00BF07B05DF8C4
:10BE740004FB000000B587B0039002910192029B7D
:10BE8400002B03D12B49CF20FBF7B2FA039B1B797C
:10BE94001A461346DB0013449B00274A13440493B9
:10BEA40000230593049B93F82030002B03D0082330
:10BEB4000593059B3AE0039B1A68039B1B7919467B
:10BEC4001E4B53F8213019461046FEF763FD034616
:10BED400002B03D011230593059B27E002990398B7
:10BEE400FFF7BAFE049B019A5A60029B1A69049BED
:10BEF4001A60049B5B68002B05D0029B1B7F1946CC
:10BF04000398FFF70DFF039B1B681846FFF718FD06
:10BF1400049B00229A61049B0022DA61049B0022A4
:10BF24005A61049B012283F82020059B184607B020
:10BF34005DF804FB48130300101C00208013030069
:10BF440000B585B00190019B1B791A461346DB00AE
:10BF540013449B002A4A13440393019B1B680293D6
:10BF6400039B5B68002B02D00198FFF725FF20217B
:10BF74000298FFF7B4FC039B9B69002B08D04FF495
:10BF8400A2710298FFF784FC04210298FFF744FD94
:10BF94004FF4AC710298FFF77BFC0C210298FFF779
:10BFA4003BFD00BF4FF4AC710298FFF786FC0346DB
:10BFB40083F00103DBB2002BF4D1039B9B69002BBC
:10BFC4000AD04FF4A2710298FFF777FC034683F07E
:10BFD4000103DBB2002BE5D10298FFF7BAFC01980C
:10BFE400FFF702FF0298FEF717FD039B002283F878
:10BFF4002020039B00225A6000BF05B05DF804FBBB
:10C00400101C002000B589B0039002910192039B9B
:10C014001B791A461346DB0013449B00574A13440A
:10C024000593059B93F82030012B04D0544940F22A
:10C034005310FBF7DDF9029B002B04D150494FF458
:10C04400AA70FBF7D5F9019B002B04D14C4940F2AF
:10C054005510FBF7CDF9039B1B79002B03D1019BF2
:10C06400B3F5803F04D346494FF4AB70FBF7C0F9F6
:10C074000298FFF7AFFB034683F00103DBB2002B0A
:10C0840003D010230793079B73E0039800F07AF81A
:10C094000346002B03D011230793079B69E0059BFC
:10C0A400019A5A61059B029A9A6000230793039BA5
:10C0B4001B684FF490711846FFF7EAFB039B1B685B
:10C0C4004FF4AC711846FFF7E3FB039B1868059B1C
:10C0D4009968059B5B691A46FFF7CBFC039B1B68B9
:10C0E40008211846FFF798FC059B5B68002B3FD19D
:10C0F400039B1B684FF490711846FFF7DEFB034661
:10C104008DF81B30039B1B684FF4AC711846FFF786
:10C11400D4FB03468DF81A309DF81B3083F00103DD
:10C12400DBB2002B06D09DF81A3083F00103DBB29A
:10C13400002BDDD19DF81A30002B02D00F2307937A
:10C1440013E0039B1B680C211846FFF765FC00BF36
:10C15400039B1B684FF4AC711846FFF7AEFB034614
:10C1640083F00103DBB2002BF2D1059B00225A615C
:10C17400079B184609B05DF804FB00BF101C0020A3
:10C184004813030082B00190019B1B791946084AA9
:10C194000B46DB000B449B00134414331B68002B39
:10C1A40014BF01230023DBB2184602B0704700BF5E
:10C1B400101C002000B589B0039002910192012364
:10C1C4008DF81030029B0693019B0593039B5B68DB
:10C1D400039A116804AA1046984700BF09B05DF895
:10C1E40004FB00B587B00190009100238DF808305E
:10C1F400009B0493019B9B680393019B00225A615B
:10C20400019B5B68019A116802AA1046984700BF17
:10C2140007B05DF804FB00B589B0019000914FF4BC
:10C2240092710198FFF749FB0346002B22D04FF48B
:10C2340092710198FFF72CFB02238DF808300198C6
:10C24400FFF770FB034605930198FFF729FC0346AB
:10C254000493009BDB680393009B00229A61009B7C
:10C264000022DA61009B5B68009A116802AA1046FA
:10C2740098473BE04FF488710198FFF71EFB034693
:10C28400002B33D04FF488710198FFF701FB01981C
:10C29400FFF706FC0790009B9B69079A9A4225D1F9
:10C2A400009BDB69002B17D0009BDB6806932021E1
:10C2B4000198FFF714FB009BDA69009B9A61009BCD
:10C2C4001A69009BDA60009B0022DA61069A0799DA
:10C2D4000098FFF76FFF09E0009B00229A61009B22
:10C2E400DB681A4607990098FFF764FF4FF4A271C0
:10C2F4000198FFF7E2FA0346002B18D04FF4A2711D
:10C304000198FFF7C5FA009B9B69002B0FD0009B97
:10C3140000229A61009B0022DA610198FFF7C0FBBA
:10C324000146009BDB681A460098FFF743FF4FF471
:10C3340090710198FFF7C1FA0346002B14D04FF413
:10C3440090710198FFF7A4FA0C210198FFF764FBA0
:10C35400009B5B69002B07D00198FFF799FB03460C
:10C3640019460098FFF73DFF4FF4AC710198FFF7B1
:10C37400A4FA0346002B10D04FF4AC710198FFF7D8
:10C3840087FA009B5B69002B07D00198FFF780FBBD
:10C39400034619460098FFF724FF00BF09B05DF873
:10C3A40004FB000008B503490348FFF734FF00BF4E
:10C3B40008BD00BF101C00200020004084B00346CC
:10C3C4008DF807309DF807305B08DBB21A460D4B39
:10C3D4009B5C8DF80F309DF8073003F00103002BB0
:10C3E40004D09DF80F301B09DBB204E09DF80F3038
:10C3F40003F00F03DBB28DF80E309DF80E301846B3
:10C4040004B07047481C002084B003460A468DF8E7
:10C41400073013468DF806309DF8073003F001030A
:10C42400002B01D00F2300E0F0238DF80F309DF88E
:10C43400073003F00103002B04D09DF806301B01E4
:10C44400DBB201E09DF806308DF80E309DF8073020
:10C454005B08DBB21A46114B9A5C9DF807305B0807
:10C46400DBB219469DF80F301340DAB20B4B5A5425
:10C474009DF807305B08DBB21A46084B9A5C9DF8BE
:10C4840007305B08DBB219469DF80E301343DAB26D
:10C49400024B5A5400BF04B0704700BF481C002030
:10C4A40000B585B003468DF807300023039310E0F0
:10C4B4000F4B1A68039BDB0013440293029B1B7807
:10C4C4009DF807209A4201D1029B0DE0039B0133A2
:10C4D4000393084B1B781A46039B9342E8DB0649F7
:10C4E4008820FAF785FF0023184605B05DF804FBA1
:10C4F400341C0020381C00209013030000B585B0C4
:10C5040003460A468DF8073013468DF806309DF829
:10C5140007301846FFF7C4FF0390039B002B0BD092
:10C52400039B5B68002B07D0039B5B689DF8061098
:10C534009DF807201046984700BF05B05DF804FB3E
:10C544002DE9F04F87B003460A468DF80F301346A5
:10C554008DF80E309DF80F301846FFF72FFF034675
:10C56400042B00F2C28001A252F823F085C5020018
:10C57400F9C5020015C6020045C602005BC60200EA
:10C584009DF80E30002B00F0AD809DF80F30012196
:10C594001846FFF739FF00238DF817300DF1170304
:10C5A400184600F089FF9DF80F104FF001024FF07C
:10C5B4000003A1F12004C1F1200003FA01F702FAFB
:10C5C40004F4274322FA00F0074302FA01F6494B28
:10C5D400D3E9002346EA020100913B430193454B12
:10C5E400DDE90012C3E900129DF81730184600F087
:10C5F40079FF77E09DF80E30002B01D0022200E095
:10C6040000229DF80F3011461846FFF7FDFE6CE03E
:10C614009DF80E30002B0CD09DF80F3003211846E6
:10C62400FFF7F2FE9DF80F3001211846FFF766FF71
:10C634005BE09DF80F3001211846FFF7E5FE54E05A
:10C644009DF80E30002B4FD19DF80F300421184671
:10C65400FFF7DAFE48E09DF80E30002B06D09DF877
:10C664000F3003211846FFF7CFFE3EE09DF80F3050
:10C6740000211846FFF7C8FE9DF80F300021184628
:10C68400FFF73CFF00238DF816300DF11603184612
:10C6940000F012FF9DF80F104FF001024FF000035D
:10C6A400A1F12006C1F1200003FA01F502FA06F611
:10C6B400354322FA00F0054302FA01F46FEA040854
:10C6C4006FEA05090B4BD3E9002308EA020A09EAD9
:10C6D400030B084BC3E900AB9DF81630184600F075
:10C6E40001FF02E000BF00E000BF00BF07B0BDE8EB
:10C6F400F08F00BF401C002000B583B00648074BF4
:10C704001B685B080022194600F0AEFD019000BFD3
:10C7140003B05DF804FB00BF701900203C1C00202E
:10C7240000B587B001900023059328E01C4B1A68DC
:10C73400059BDB0013440493049B1B781846FDF708
:10C74400D3FF03468DF80F30049B5B78012B0CBF9D
:10C7540001230023DBB21A469DF80F309A420CBF26
:10C76400012300238DF80E30049B1B789DF80E20C6
:10C7740011461846FFF7E4FE059B01330593094B68
:10C784001B781A46059B9342D0DB074BD3E9002361
:10C79400134301D0FFF7B0FF00BF07B05DF804FBFF
:10C7A400341C0020381C0020401C002000B585B03B
:10C7B40001900B468DF80330019BDBB21846FFF75E
:10C7C4006FFE0390039B1B781846FDF78DFF03460D
:10C7D4008DF80B30039B5B78012B0CBF01230023E6
:10C7E400DBB21A469DF80B309A420CBF012300239A
:10C7F4008DF80A309DF80A30002B06D0054BD3E99A
:10C804000023134301D1FFF777FF00BF05B05DF8A4
:10C8140004FB00BF401C002000B58BB003900B4606
:10C8240001928DF80B30019B092B01D8072367E097
:10C83400FDF74EFE034683F00103DBB2002B09D063
:10C84400FDF7E2FD0990099B0893089B002B01D09A
:10C85400089B55E02C4A039B13602C4A9DF80B302F
:10C8640013702B4A019B136020220021294804F0F5
:10C874000DFB29494FF000024FF00003C1E90023EA
:10C8840031E09DF80B30DB00039A13440793032334
:10C894008DF8143000238DF815309DF816306FF3A1
:10C8A40000038DF816309DF816306FF341038DF8B0
:10C8B40016309DF816306FF382038DF81630079BFF
:10C8C4009B788DF81530079B1B78184605AB134AE7
:10C8D4001946FDF709FE0990099B0693069B002B58
:10C8E40001D0069B0CE09DF80B305A1E8DF80B20EE
:10C8F400002BC6D10A4A00210A4800F07BFC0346FB
:10C9040018460BB05DF804FB341C0020381C0020D2
:10C914003C1C0020481C0020401C0020B1C7020021
:10C9240025C70200C813030000B583B0114B1B6870
:10C93400002B04D1104940F23510FAF759FD0023B9
:10C9440001930CE00B4B1A68019BDB0013441B782A
:10C9540001211846FDF744FE019B01330193074B67
:10C964001B781A46019B9342ECD30023184603B06C
:10C974005DF804FB341C002090130300381C0020D5
:10C9840086B003900291019201238DF817309DF82F
:10C994001730204A039B13601E4A029B53601D4AB2
:10C9A400019B9360039B44F20102934212D0039BC8
:10C9B40044F20202934220D1019B164AD360154BE4
:10C9C400DB681B68134A9361124BDB685B68114A8E
:10C9D400D36112E0019B0F4A13610E4B1B699B68E4
:10C9E4000C4A53610B4B1B691B680A4A9361094B40
:10C9F4001B695B68074AD36100BF72B600BF00BF02
:10CA04009DF81730DBB2002BFAD162B600BF00BF2D
:10CA140006B07047681C002000B583B002900091F6
:10CA2400019244F2010071466A4600F003F803B033
:10CA340000BD00BF30B58BB007900691059272B669
:10CA440000BF03F009FB03F0C5F80346002BFAD13D
:10CA5400079B44F2020293422FD0079B44F2020246
:10CA6400934269D8079B44F20102934237D0079B53
:10CA740044F2010293425FD8079B012B05D0079B28
:10CA840041F2010293420CD056E0394A394BD31A91
:10CA9400DB081B0443F001033749184603F03EF852
:10CAA40057E0334A334BD31ADB081B0443F001032A
:10CAB4003249184603F032F84BE0059B09932C4A9F
:10CAC4002C4BD31ADB081B0443F00100099B5B6861
