:020000022000DC
:106000000000012019620200016202000362020026
:10601000056202000762020009620200000000003F
:106020000000000000000000000000000B62020001
:106030000D620200000000000F6202001162020007
:1060400069F5020013620200C90203001362020034
:106050001362020013620200C50103001362020012
:106060001362020013620200136202001362020054
:1060700013620200010703001362020013620200B0
:1060800013620200913903001362020013620200DE
:10609000136202001362020071C303001362020064
:1060A0001362020013620200136202001362020014
:1060B00013620200136202000000000000000000F2
:1060C00013620200136202001362020013620200F4
:1060D000136202001362020013620200000000005B
:1060E00000000000000000000000000000000000B0
:1060F00000000000000000000000000000000000A0
:10610000000000000000000000000000000000008F
:10611000000000000000000000000000000000007F
:10612000000000000000000000000000000000006F
:10613000000000000000000000000000000000005F
:10614000000000000000000000000000000000004F
:10615000000000000000000000000000000000003F
:10616000000000000000000000000000000000002F
:10617000000000000000000000000000000000001F
:10618000000000000000000000000000000000000F
:1061900000000000000000000000000000000000FF
:1061A00000000000000000000000000000000000EF
:1061B00000000000000000000000000000000000DF
:1061C00000000000000000000000000000000000CF
:1061D00000000000000000000000000000000000BF
:1061E00000000000000000000000000000000000AF
:1061F000000000000000000000000000000000009F
:10620000FEE7FEE7FEE7FEE7FEE7FEE7FEE7FEE766
:10621000FEE7FEE700F002B8FFF7FCBF0F484FF0C3
:106220000701884385460E4880470E48016841F4BF
:1062300070010160BFF34F8FBFF36F8F00F01AB88A
:1062400009480A490A4A884207D0521A05D00378F9
:1062500001300B700131013AF9D170470000012083
:10626000497B020088ED00E07CE40300182B00204D
:106270002C2B00203A493B480A1A02D007229143AE
:106280008D46394939480A1A06D00722914381F3CD
:106290000988022282F3148835483649364A00F0CC
:1062A00041F836483649374A00F03CF83648374915
:1062B000374A00F037F837483749384A00F032F8A3
:1062C00037483849384A00F02DF838483849394AB3
:1062D00000F028F838483949394A00F023F839489D
:1062E0003949002200F036F838483949002200F0D8
:1062F00031F838483849091A17F008FF374A9047EB
:1063000025482649884205D00268043003B49047E6
:1063100003BCF7E700208646EC4600200021304A07
:106320009047FEE7884214D0521A12D003460B431E
:1063300013430324234206D1036804300B60043165
:10634000043AF9D17047037801300B700131013AFA
:10635000F9D17047884202D002700130FAE77047E5
:106360000000012000E000200000012000000120CA
:10637000E84D04002C2B0020582C0020E463020080
:10638000E4630200C4E20300E84D04002C2B00206B
:106390002C2B002090E4030090E4030090E4030021
:1063A00090E4030090E4030090E4030090E4030011
:1063B00090E40300E54D0400144F0400582C002025
:1063C000582C0020582C0020D03A0020D03A002031
:1063D000D03A0020D03A0020D05A0020416202007A
:0463E000316702001F
:1063E4008ADF704700BF184600B583B003460091AA
:1063F400ADF80630BDF80630009A194603480CF093
:1064040049F900BF03B05DF804FB00BFEFBEADDE89
:1064140000B585B001900091019B08330393019B63
:106424001B881D2B4ED1039B1B7803F00803DBB2A2
:10643400002B29D0039B9B8B002B19D0244A254B7E
:10644400D31ADB081B0443F003032349184611F055
:1064540053FB1F4A1F4BD31ADB081B0443F00500F0
:10646400039B9969039B9B8B1A4611F0A9FB24E0BB
:10647400174A184BD31ADB081B0443F003031749CC
:10648400184611F039FB18E0114A124BD31ADB08F5
:106494001B0443F003031249184611F02DFB0C4A68
:1064A4000C4BD31ADB081B0443F00500039B9969CA
:1064B400039B9B8B1A4611F083FB0A490020FFF7CC
:1064C4008FFF00E000BF00BF05B05DF804FB00BF14
:1064D40040E3030010E30300A0E40300B8E4030076
:1064E400D8E403002C2B002000B587B00190019B59
:1064F4001B78002B0FD0052B1FD1019B5B680593E4
:10650400059B0493049B002B19D00F4AE3210498A4
:106514000CF0C0F813E0019B5B6893F9133003930C
:106524000A4A0B4BD31ADB081B0443F00303039AF8
:106534000849184611F0EEFA02E000BF00E000BF7F
:1065440000BF07B05DF804FBF8E4030040E3030078
:1065540010E303002CE5030000B589B06B4610225C
:106564000021184617F07CFE1E4B00936B461E4A12
:1065740019461E4804F0ACFB0790079B0693069B44
:10658400002B05D01A4A4FF4857106980CF082F856
:1065940000220421154804F0C1F90790154A03218B
:1065A400124804F081F90790079B0593059B002B83
:1065B40005D00F4A4FF4897105980CF06BF80B481D
:1065C40004F0E2FB0790079B0493049B002B05D087
:1065D400074A40F2151104980CF05CF800BF09B0AA
:1065E4005DF804FB90E40300ED640200782C0020C5
:1065F400F8E40300342B002000B587B015F0D6FD75
:106604000590059B0493049B002B05D0164A4FF478
:106614009A7104980CF03EF80023019301AB1946DB
:10662400012015F0D9FE0590059B0393039B002BD5
:1066340005D00D4A4FF49D7103980CF02BF801AB73
:10664400184615F0E7FF0590059B0293029B002B6B
:1066540005D0054A4FF49F7102980CF01BF800BF57
:1066640007B05DF804FB00BFF8E4030000B583B095
:106674004FF48041002010F069FF0190019B0093CA
:10668400009B002B05D0064A4FF4A47100980CF02F
:1066940001F810F0F1FE00BF03B05DF804FB00BF89
:1066A400F8E4030000B583B00021012000F0D2FD1E
:1066B4000190019B0093009B002B05D0044A40F2FB
:1066C400511100980BF0E6FF00BF03B05DF804FB26
:1066D400F8E4030000B583B00CF08CFB0190019B3F
:1066E4000093009B002B05D0044A40F259110098F6
:1066F4000BF0D0FF00BF03B05DF804FBF8E4030027
:1067040000B583B010F076F90190019B0093009BD3
:10671400002B05D0044A40F2631100980BF0BAFF35
:1067240000BF03B05DF804FBF8E4030008B5FFF70D
:106734009DFFFFF7CFFFFFF7B5FFFFF7E1FFFFF77F
:106744005BFF084A084BD31ADB081B0443F003031E
:106754000649184611F0D0F9FFF7FEFE11F0E2FAEF
:10676400FCE700BF40E3030010E30300D0E50300AF
:1067740000B583B00190019B1B68184600F0F4F843
:106784000346002B04D105494FF4F670FFF72CFEA5
:106794004FF0A043184603B05DF804FBECE503009A
:1067A40000B585B00190084611461A4603468DF897
:1067B40003300B468DF8023013468DF8013001ABDF
:1067C4001846FFF7D5FF03909DF803209DF802308B
:1067D4005B001A439DF801309B001A439DF8183062
:1067E4001B0242EA03019DF81C301B04019A194361
:1067F400039B02F5E07243F8221000BF05B05DF878
:1068040004FB00B585B0039000230193002300939B
:106814000023012201210398FFF7C2FF00BF05B046
:106824005DF804FB00B585B003900B468DF80B3082
:106834009DF80B30002201920022009200220021D8
:106844000398FFF7ADFF00BF05B05DF804FB00B58A
:1068540085B0019001AB1846FFF78AFF0390019BB6
:10686400012202FA03F31946039800F069F800BF05
:1068740005B05DF804FB00B585B0019001AB184686
:10688400FFF776FF0390019B012202FA03F31946F6
:10689400039800F05FF800BF05B05DF804FB00B595
:1068A40085B0019001AB1846FFF762FF0390039B8C
:1068B400D3F804350293029BDA43019B012101FAC8
:1068C40003F31A40039BC3F80825019B01229A4055
:1068D400029B1A40039BC3F80C2500BF05B05DF86A
:1068E40004FB00B583B001900091009B002B03D101
:1068F4000198FFF7C0FF02E00198FFF7A8FF00BF6F
:1069040003B05DF804FB00B585B0019001AB1846F7
:10691400FFF72EFF0390039800F00AF80246019B4C
:1069240022FA03F303F00103184605B05DF804FBF3
:1069340082B00190019BD3F80435184602B0704729
:1069440082B001900091019B009AC3F8082500BF12
:1069540002B0704782B001900091019B009AC3F885
:106964000C2500BF02B0704784B00190019B5B0905
:10697400029300230393029B002B03D14FF0FF33B8
:10698400039300BF019B03F01F030193039A019B30
:1069940022FA03F303F00103002B14BF01230023A5
:1069A400DBB2184604B0704700B585B00190019B76
:1069B400032B03D911493A20FFF716FD104A019B16
:1069C40013441B781846FFF79EFF0346002B14BFA1
:1069D400012300238DF80F309DF80F30002B14BFD6
:1069E40001230023DBB283F00103DBB203F00103D4
:1069F400DBB2184605B05DF804FB00BF14E60300E3
:106A04003CE6030000B583B00190019B032B03D93E
:106A140007494120FFF7E8FC064A019B13441B7811
:106A240000211846FFF75DFF00BF03B05DF804FBCB
:106A340014E603003CE6030000B583B00190019B1B
:106A4400032B03D907494720FFF7CEFC064A019BD5
:106A540013441B7801211846FFF743FF00BF03B01E
:106A64005DF804FB14E603003CE6030000B583B0C4
:106A74000023019305E00198FFF7DEFF019B01333A
:106A84000193019B032BF6D900BF00BF03B05DF84F
:106A940004FB00B583B00023019305E00198FFF7E0
:106AA400B1FF019B01330193019B032BF6D900BF76
:106AB40000BF03B05DF804FB00B583B00190019BF7
:106AC400032B03D907495F20FFF78EFC064A019B7D
:106AD40013441B781846FFF7E2FE00BF03B05DF8CD
:106AE40004FB00BF14E603003CE6030000B583B0DA
:106AF4000023019309E0094A019B13441B781846BB
:106B0400FFF77FFE019B01330193019B032BF2D915
:106B1400FFF7ACFF00BF03B05DF804FB3CE60300E5
:106B240000B583B0002301930AE0094A019B134492
:106B34001B7803211846FFF775FE019B013301936F
:106B4400019B032BF1D900BF00BF03B05DF804FB28
:106B540040E6030084B001904FF0FF33029300231A
:106B640003930DE00A4A039B13441B781A46019BC6
:106B7400934202D1039B029305E0039B01330393E9
:106B8400039B032BEED9029B184604B0704700BF49
:106B940040E6030000B583B00190019B03F00103BC
:106BA400002B01D0FFF7A2FF019B03F00203002B8F
:106BB40001D0FFF7B5FF00BF03B05DF804FB000090
:106BC40000B587B003460A468DF8073013468DF8A2
:106BD400063000238DF81730002304939DF8073006
:106BE4001846FFF7B7FF0490049B032B62D89DF867
:106BF4000630022B52D0022B5CDC002B31D0012B4F
:106C040058D13549049A13465B0013440B441B784E
:106C14008DF817303049049A13465B0013440B4433
:106C240001331B78002B0ED02C4B2D4A4FF480419E
:106C340018460CF057F90390039B002B03D1284A04
:106C44009DF8073013702449049A13465B001344DB
:106C54000B4402331978234A049B13440A461A70DE
:106C640028E01E4B18460CF095F91E4A049B134469
:106C740019781948049A13465B00134403440233F9
:106C84001B78994215D11449049A13465B001344A6
:106C94000B4402331B788DF817300AE00E49049A2E
:106CA40013465B0013440B4401331B788DF81730F3
:106CB40000E000BF9DF81730002B09D00A4B1B6879
:106CC400002B05D0084B1B689DF8172010469847E9
:106CD40000BF07B05DF804FB042D0020882B0020C2
:106CE400102D0020142D0020002D002000B583B0AD
:106CF4000190019B1B7802211846FFF761FF00BF3A
:106D040003B05DF804FB000000B583B00C4B1B78A6
:106D1400002B0FD00023019308E0019B022B02D02B
:106D24000198FFF789FE019B01330193019B032B1B
:106D3400F3D901E0FFF79AFE00BF03B05DF804FB4E
:106D4400FC2C00202DE9D04F92B003468DF83F3043
:106D54000023119300231093CC4B1B78002B04D0F9
:106D6400CA4A00231370FFF7CFFF9DF83F30172B5B
:106D740000F23F8201A252F823F000BFE16D02004D
:106D8400F96D0200F96D0200956E0200316F020088
:106D9400AD6F020041700200617002007170020068
:106DA4009D700200BB700200D9700200F7700200EF
:106DB40005710200057102000571020005710200EF
:106DC4000571020099710200A7710200BB710200F3
:106DD400CF710200E9710200E9710200FFF794FF2C
:106DE400AB4B18460CF0D6F81190AA4A9DF83F30E8
:106DF4001370FFE10020FFF7D7FD0346002B0DD0F1
:106E04000020FFF719FE9DF83F30022B02D14FF40A
:106E1400E16301E04FF47A6310930BE00020FFF785
:106E2400F1FD9DF83F30022B01D1C82301E04FF45E
:106E3400C8731093974A9DF83F301370944C109B7D
:106E44000022009301924FF000024FF00003DDE9AD
:106E540000673946CB03314643EA51433146CA03FE
:106E640012F57A71029143F1000303934FF4FA622D
:106E74004FF00003DDE9020117F0AEF802460B46BD
:106E840013460022194620460CF02CF81190B1E16B
:106E94000020FFF789FD0346002B0DD00020FFF7EB
:106EA400CBFD9DF83F30032B02D14FF4487301E032
:106EB4004FF47A6310930BE00020FFF7A3FD9DF8D5
:106EC4003F30032B01D1C82301E04FF4C873109362
:106ED400704A9DF83F3013706D4C109B0022049350
:106EE40005924FF000024FF00003DDE904673946D4
:106EF400CB03314643EA51433146CA0312F57A7152
:106F0400069143F1000307934FF4FA624FF0000334
:106F1400DDE9060117F060F802460B46134600222D
:106F2400194620460BF0DEFF119063E10020FFF7C5
:106F34003BFD0346002B06D00020FFF77DFD4FF4F8
:106F44007A63109305E00020FFF75CFD4FF4C873EB
:106F54001093504A9DF83F3013704D4C109B002203
:106F64009A4693464FF000024FF000034FEACB33AA
:106F740043EA5A434FEACA3212F57A71089143F14F
:106F8400000309934FF4FA624FF00003DDE90801AE
:106F940017F022F802460B461346002219462046F3
:106FA4000BF0A0FF119025E10020FFF7FDFC034644
:106FB400002B0CD00020FFF73FFD9DF83F30052B40
:106FC40001D1C82301E04FF47A6310930BE0002051
:106FD400FFF718FD9DF83F30052B01D1C82301E0D0
:106FE4004FF4C87310932B4A9DF83F301370284C0C
:106FF400109B0022984691464FF000024FF0000388
:107004004FEAC93343EA58434FEAC83212F57A715A
:107014000A9143F100030B934FF4FA624FF000031B
:10702400DDE90A0116F0D8FF02460B46134600229A
:10703400194620460BF056FF1190DBE00020FFF7C5
:107044003BFD144A9DF83F301370114B002240F26F
:10705400666118460BF046FF1190CBE00020FFF765
:10706400D1FC0C4A9DF83F301370C3E0074B01225A
:107074001A700120FFF720FD054B002240F26661E3
:1070840018460BF02FFF1190B4E000BFF52C002040
:10709400482B0020F42C0020594B01221A700120A7
:1070A400FFF70AFD574B00224FF4005118460BF02E
:1070B40019FF11909EE0524B01221A700120FFF734
:1070C400FBFC504B002240F2666118460BF00AFFAD
:1070D40011908FE04A4B01221A700120FFF7ECFC5B
:1070E400484B00224FF4005118460BF0FBFE119060
:1070F40080E0FFF7CEFC444A9DF83F30137079E0FE
:10710400424B18460BF046FF11909DF83F30C3F1F7
:1071140011031093109B002B35D0119B002B32D1FF
:10712400109B012B28D9394C109B9BB21A46C823BB
:1071340002FB03F3DA171E4617464FF000024FF026
:107144000003FB0343EA5643F20312F57A710C91F0
:1071540043F100030D934FF4FA624FF00003DDE9AD
:107164000C0116F039FF02460B461346002219465D
:1071740020460BF0B7FE11900220FFF743FC244B8E
:1071840001221A7036E00220FFF756FC204B002241
:107194001A702FE0FFF7B8FD1B4A9DF83F301370BB
:1071A40028E0FFF7B1FD0020FFF72CFC164A9DF8FC
:1071B4003F3013701EE0FFF7A7FD0120FFF722FC0C
:1071C400114A9DF83F30137014E0FFF79DFD002035
:1071D400FFF718FC0120FFF715FC0B4A9DF83F3020
:1071E400137007E0FFF755FC074A9DF83F30137012
:1071F40000E000BF119B184612B0BDE8D08F00BF5D
:10720400F52C0020482B0020F42C0020682B0020B3
:10721400FC2C002000B583B00190074B1B6803F0E1
:107224000103002B04D0054B1B781846FFF78AFD99
:1072340000BF03B05DF804FBF82C0020F42C002000
:1072440000B583B001900220FFF736FC00BF03B005
:107254005DF804FB00B585B0019000910023039311
:107264002A4A019B13602A4A009B1360019B03F086
:107274000203002B2AD00023029308E001220121FB
:10728400029800F055F80390029B01330293029B8D
:10729400032B02D8039B002BF0D0039B002B06D1B9
:1072A40040F2333204211B480BF0F4F80390039BA3
:1072B400002B02D10BF076F90390039B002B05D130
:1072C400154A002115480BF0D3FD0390019B03F0F0
:1072D4000103002B14D00120FFF75CFC039B002B5F
:1072E40005D10F4A00210F480BF0C2FD0390039B08
:1072F400002B05D10C4A01210C480BF0B9FD039079
:10730400039B184605B05DF804FB00BFF82C002071
:10731400002D002050E60300F16C02004CE603004F
:107324001972020044E603004572020048E60300B5
:1073340084B001900B468DF8033013468DF802306B
:1073440000230393019B032B3CD89DF80230012BAF
:107354000BD19DF80330012B04D1019BDBB20E331A
:10736400DBB200E000238DF802309DF80330022BDD
:107374000FD0022B23DC002B16D0012B1FD1144974
:10738400019A13465B0013440B449DF802201A70C3
:107394001AE00F49019A13465B0013440B4401336E
:1073A4009DF802201A700FE00949019A13465B0008
:1073B40013440B4402339DF802201A7004E007239F
:1073C400039301E007230393039B184604B070471B
:1073D400042D002000B583B0012200210020FFF716
:1073E400A7FF0190019B002B04D0019B072B01D028
:1073F400019B1CE0072202210120FFF799FF019065
:10740400019B002B04D0019B072B01D0019B0EE0B4
:10741400042202210020FFF78BFF0190019B002B27
:1074240004D0019B072B01D0019B00E000231846E8
:1074340003B05DF804FB00B583B0012202210020F3
:10744400FFF776FF0190019B002B04D0019B072BD3
:1074540001D0019B1CE0072202210120FFF768FFF5
:107464000190019B002B04D0019B072B01D0019BB1
:107474000EE00A2200210020FFF75AFF0190019B31
:10748400002B04D0019B072B01D0019B00E00023BB
:10749400184603B05DF804FB00B585B00190009177
:1074A400019B1B88102B02D0112B18D02FE01A4BF4
:1074B4001B68002B0DD1FFF78DFF0390039B002B5E
:1074C40007D0164B1B68002B03D0144B1B68039882
:1074D4009847114B1B6801330F4A136017E00E4B9A
:1074E4001B68013B0C4A13600B4B1B68002B0DD12E
:1074F400FFF7A1FF0390039B002B07D0074B1B68EA
:10750400002B03D0054B1B680398984700BF00BFAE
:1075140005B05DF804FB00BF1C2D0020182D0020D1
:10752400BFF34F8F00BF064BDB6803F4E0620449EE
:10753400044B1343CB60BFF34F8F00BF00BFFDE785
:1075440000ED00E00400FA0582B01D4B1B68B3F1A6
:10755400FF3F0AD11B4B1B68DBB201931A4B1B681C
:107564001B0903F00F03009305E0154B1B680193FF
:10757400164B1B680093019B062B1DD1009B033BFC
:10758400042B17D801A252F823F000BFA5750200FE
:10759400A9750200AD750200B1750200B57502004F
:1075A40001230AE0012308E0012306E0012304E0AB
:1075B400012302E0012300E00023184602B07047D3
:1075C40030010010E00F00F0E80F00F0340100106B
:1075D40082B0174B1B68DBB20193164B1B681B0967
:1075E40003F00F030093019B062B1DD1009B033B6B
:1075F400042B17D801A252F823F000BF157602001D
:10760400197602001D76020021760200257602001A
:1076140001230AE0002308E0002306E0002304E03D
:10762400002302E0002300E00023184602B0704764
:10763400E00F00F0E80F00F082B01D4B1B68B3F1BF
:10764400FF3F0AD11B4B1B68DBB201931A4B1B682B
:107654001B0903F00F03009305E0154B1B6801930E
:10766400164B1B680093019B062B1DD1009B033B0B
:10767400042B17D801A252F823F000BF957602001C
:10768400997602009D760200A1760200A57602009A
:1076940001230AE0012308E0012306E0012304E0BA
:1076A400012302E0012300E00023184602B07047E2
:1076B40030010010E00F00F0E80F00F0340100107A
:1076C40082B0174B1B68DBB20193164B1B681B0976
:1076D40003F00F030093019B062B1DD1009B033B7A
:1076E400042B17D801A252F823F000BF057702003B
:1076F400097702000D770200117702001577020066
:1077040001230AE0002308E0002306E0002304E04C
:10771400002302E0002300E00023184602B0704773
:10772400E00F00F0E80F00F082B01D4B1B68B3F1CE
:10773400FF3F0AD11B4B1B68DBB201931A4B1B683A
:107744001B0903F00F03009305E0154B1B6801931D
:10775400164B1B680093019B062B1DD1009B033B1A
:10776400042B17D801A252F823F000BF857702003A
:10777400897702008D7702009177020095770200E5
:1077840001230AE0012308E0012306E0012304E0C9
:10779400012302E0012300E00023184602B07047F1
:1077A40030010010E00F00F0E80F00F03401001089
:1077B40082B0174B1B68DBB20193164B1B681B0985
:1077C40003F00F030093019B062B1DD1009B033B89
:1077D400042B17D801A252F823F000BFF57702005A
:1077E400F9770200FD7702000178020005780200B3
:1077F40001230AE0002308E0002306E0002304E05C
:10780400002302E0002300E00023184602B0704782
:10781400E00F00F0E80F00F082B0174B1B68DBB2FA
:107824000193164B1B681B0903F00F030093019B84
:10783400062B1DD1009B033B042B17D801A252F841
:1078440023F000BF5D7802006178020065780200D1
:10785400697802006D78020001230AE0002308E041
:10786400002306E0002304E0002302E0002300E0FC
:107874000023184602B07047E00F00F0E80F00F054
:1078840082B01D4B1B68B3F1FF3F0AD11B4B1B6831
:10789400DBB201931A4B1B681B0903F00F0300931F
:1078A40005E0154B1B680193164B1B680093019B65
:1078B400062B1DD1009B033B042B17D801A252F8C1
:1078C40023F000BFDD780200E1780200E5780200D1
:1078D400E9780200ED78020000230AE0002308E0C2
:1078E400012306E0012304E0012302E0012300E078
:1078F4000023184602B0704730010010E00F00F07A
:10790400E80F00F03401001082B01D4B1B68B3F186
:10791400FF3F0AD11B4B1B68DBB201931A4B1B6858
:107924001B0903F00F03009305E0154B1B6801933B
:10793400164B1B680093019B062B1DD1009B033B38
:10794400042B17D801A252F823F000BF6579020076
:10795400697902006D79020071790200757902007B
:1079640001230AE0012308E0012306E0012304E0E7
:10797400012302E0012300E00023184602B070470F
:1079840030010010E00F00F0E80F00F034010010A7
:1079940082B01D4B1B68B3F1FF3F0AD11B4B1B6820
:1079A400DBB201931A4B1B681B0903F00F0300930E
:1079B40005E0154B1B680193164B1B680093019B54
:1079C400062B1DD1009B033B042B17D801A252F8B0
:1079D40023F000BFED790200F1790200F57902008D
:1079E400F9790200FD79020001230AE0012308E08D
:1079F400012306E0012304E0012302E0012300E067
:107A04000023184602B0704730010010E00F00F068
:107A1400E80F00F03401001082B0154B1B6801938D
:107A2400144B1B680093019B062B1DD1009B033B49
:107A3400042B17D801A252F823F000BF557A020094
:107A4400597A02005D7A0200617A0200657A0200C6
:107A540000230AE0002308E0002306E0012304E0F9
:107A6400012302E0012300E00023184602B070471E
:107A7400300100103401001082B0154B1B680193D3
:107A8400144B1B680093019B062B1DD1009B033BE9
:107A9400042B17D801A252F823F000BFB57A0200D4
:107AA400B97A0200BD7A0200C17A0200C57A0200E6
:107AB40000230AE0002308E0002306E0002304E09A
:107AC400012302E0012300E00023184602B07047BE
:107AD400300100103401001008B5FFF7CDFF034654
:107AE400002B07D04FF010234FF08042D3F8083218
:107AF400C2F8583500BF08BD00BF044BD3F80034AA
:107B0400002BFAD000BF00BF704700BF00E0014067
:107B140000B583B00190054A019BC2F80435FFF714
:107B2400EBFF00BF03B05DF804FB00BF00E00140C1
:107B3400024B034A1A6000BF704700BFA82B002005
:107B44000090D00308B5FFF7FFFC0346002B06D0D6
:107B5400964B1B681B0A964A03F01F031360FFF73A
:107B640037FD0346002B02D0924B934A1A60FFF76D
:107B740063FD0346002B06D0904B1B685B0B904AB9
:107B840003F007031360FFF79BFD0346002B05D0AA
:107B94008C4BDB688B4A23F08073D360FFF7C4FD02
:107BA4000346002B0ED04FF080430022C3F80C2173
:107BB4004FF080430022C3F810214FF0804300228D
:107BC400C3F83825FFF7F4FD0346002B02D07E4BA3
:107BD40003221A60FFF720FE0346002B0BD07B4BD9
:107BE40005221A607A4B01221A607A4B00221A602D
:107BF400794B3F221A60FFF743FE0346002B76D0F1
:107C04004FF08053754AD3F80434C2F820354FF04E
:107C14008053724AD3F80834C2F824354FF08053A5
:107C24006E4AD3F80C34C2F828354FF080536B4AAF
:107C3400D3F81034C2F82C354FF08053674AD3F888
:107C44001434C2F830354FF08053644AD3F81834F2
:107C5400C2F834354FF08053604AD3F81C34C2F86C
:107C640040354FF080535D4AD3F82034C2F8443590
:107C74004FF08053594AD3F82434C2F848354FF0B2
:107C84008053564AD3F82834C2F84C354FF0805309
:107C9400524AD3F82C34C2F850354FF080534F4A2F
:107CA400D3F83034C2F854354FF080534B4AD3F8EC
:107CB4003434C2F860354FF08053484AD3F838342E
:107CC400C2F864354FF08053444AD3F83C34C2F8C8
:107CD40068354FF08053414AD3F84034C2F86C35CC
:107CE4004FF080533D4AD3F84434C2F87035FFF75F
:107CF4000BFE0346002B05D0394B1B68394A03F0B1
:107D04004F031360FFF744FE0346002B0DD04FF0E2
:107D14008043D3F8003403F00103002B05D04FF067
:107D240080436FF00102C3F80024FFF775FE034699
:107D3400002B05D02C4B1B682B4A43F48063136043
:107D44002A4BD3F88830294A43F47003C2F88830A8
:107D5400BFF34F8F00BFBFF36F8F00BFFFF7BCFEB1
:107D64004FF01023D3F80032002B05DB4FF0102323
:107D7400D3F80432002B15DA0120FFF7C9FE4FF0C7
:107D840010231522C3F80022FFF7B6FE4FF010238C
:107D94001522C3F80422FFF7AFFE0020FFF7B8FE58
:107DA400FFF7BEFBFFF7C4FE00BF08BD24030010AD
:107DB4004035014074C007400DF0ADBA44020010D4
:107DC4003C050040F0ED00E0A005004010560040E6
:107DD40088560040185600401456004000C0004029
:107DE40058020010E40E00403C17004000ED00E093
:107DF40064DF704700BF184686B0039001921A46AC
:107E04000B46ADF80A3013468DF80930039B002B5E
:107E140002D0019B002B01D100235BE00023ADF8CD
:107E240016300CE0BDF81630039A13441B781A463A
:107E3400BDF8163013449BB20133ADF81630BDF8CB
:107E440016305A1CBDF80A309A420FDA019B1B887F
:107E5400BDF816209A42E5D3BDF816300133039AD3
:107E640013441B789DF809209A42DBD1BDF81620F3
:107E7400BDF80A309A4201D300232BE0BDF8163036
:107E84000233ADF81430BDF81630039A13441B784E
:107E9400002B07D0BDF81630039A13441B78013B1E
:107EA4009BB200E00023ADF81230BDF81230002B75
:107EB40008D0BDF81420BDF812301A44BDF80A30B9
:107EC4009A4201DD002305E0019BBDF814201A80CD
:107ED400BDF81230184606B0704700B589B003905B
:107EE4000B460192ADF80A300023ADF81630019B21
:107EF400002B01D100232DE00DF11602BDF80A106C
:107F040009230398FFF778FF0346ADF81E30BDF848
:107F140016301A46039B13440693BDF81630002B03
:107F240017D0BDF81E30002B13D0019816F01BF9A2
:107F34000246BDF81E309A420BD1BDF81E301A46D7
:107F44000699019816F0ECF80346002B01D10123A1
:107F540000E00023184609B05DF804FB00B58FB0BB
:107F640003900B460192ADF80A300023ADF8263099
:107F740010238DF82530BDF80A30ADF8363005AA47
:107F84000DF1250319460198FFF732FF0B90039B6F
:107F9400002B02D00B9B002B01D0002370E09DF836
:107FA4002530102B14D0102B19DC022B02D0042BFB
:107FB40007D014E003238DF8103002238DF811301C
:107FC4000FE005238DF8103004238DF8113008E0FC
:107FD40007238DF8103006238DF8113001E00023BB
:107FE4004EE000238DF8353014E09DF835303833F9
:107FF4006B4413F8283C0DF12602BDF80A100398CF
:10800400FFF7FAFE0346ADF836309DF835300133FC
:108014008DF835309DF83530012B03D8BDF8263066
:10802400002BE2D0BDF82630002B01D1002327E03D
:10803400BDF826301A46039B13440A930023ADF877
:10804400323016E0BDF832300A9A13449DF82520E8
:1080540005A9184616F064F80346002B01D1012344
:108064000EE09DF825301A46BDF832301344ADF8C1
:108074003230BDF83220BDF836309A42E2D30023C4
:1080840018460FB05DF804FB30B58FB00190009135
:1080940000230293009B002B1AD000230D9314E0BD
:1080A4006B460D9918460DF02EF90346002B09D0A6
:1080B400029B5A1C02920D9A92B25B0038336B44B5
:1080C40023F82C2C0D9B01330D930D9B132BE7D917
:1080D400019B1D4602AC0FCC0FC50FCC0FC594E815
:1080E400070085E8070001980FB030BD00B583B0E4
:1080F4000346ADF80630BDF80630132B01D9002332
:108104000CE0BDF80630194606480DF0A7F8BDF896
:108114000630194604480DF0A1F80123184603B0AF
:108124005DF804FB282D0020242D002000B585B027
:108134000346ADF80630002303930DE0039B9B0038
:10814400094A13440433BDF80620114618460DF0BD
:10815400C1F8039B01330393039B1D2BEED900BF8E
:1081640000BF05B05DF804FB202D002000B583B0EE
:108174000346ADF80630BDF80630194603480DF045
:10818400A9F800BF03B05DF804FB00BF282D002050
:1081940030B59BB0184B9B68DB431893164B5A6859
:1081A40018AB114618460DF084F9189A6B4611461F
:1081B4001846FFF769FF0DAC6D460FCD0FC40FCD08
:1081C4000FC495E8070084E80700002319930BE027
:1081D400199B5B0068336B4433F8303C1846FFF757
:1081E400A5FF199B013319930D9B199A9A42EFD35A
:1081F40000BF00BF1BB030BD202D002000B583B0F0
:1082040003468DF807309DF80730194603480DF0F2
:108214007AF80346184603B05DF804FB202D0020CD
:1082240000B583B001900B46ADF8023013468DF8CB
:1082340001309DF80130002B06D0BDF802301946FC
:1082440001980DF00BF805E0BDF8023019460198CD
:108254000DF040F800BF03B05DF804FB00B585B035
:1082640001900091019B9B88ADF80E30019B1B8807
:10827400103B0A2B00F2888001A252F823F000BFC1
:10828400B1820200ED8202008D8302008D83020020
:108294008D8302008D8302008D8302008D83020092
:1082A4008D83020057830200F9820200FFF770FFFA
:1082B400BDF80E301846FFF719FF034683F001039B
:1082C400DBB2002B05D0324AF02104200AF0E2F997
:1082D40057E0019BDB7B022B53D1BDF80E301946CE
:1082E4002C480CF0BBFF4CE0BDF80E301846FFF7ED
:1082F4003DFF49E0019B1B7AC3F30313DBB28DF806
:108304000D309DF80D30032B8CBF01230023DAB20E
:10831400BDF80E3019462048FFF782FF9DF80D3056
:10832400022B8CBF01230023DAB2BDF80E301946AC
:108334001A48FFF775FF9DF80D30012B8CBF012300
:108344000023DAB2BDF80E3019461548FFF768FF6E
:108354001AE0019B1B7A002B15D1019B5B7AC3F3B6
:10836400C003DBB2002B14BF012300238DF80C30B3
:108374009DF80C20BDF80E3019460748FFF750FF52
:1083840001E000BF00E000BF00BF05B05DF804FBE2
:1083940070E603002C2D0020382D0020342D002001
:1083A400302D002000B583B00346ADF80630BDF88B
:1083B4000630132B01D9002306E0BDF80630194618
:1083C40003480CF0A0FF0346184603B05DF804FB15
:1083D400242D002000B585B00346ADF806300023F7
:1083E4008DF80F30BDF806301846FFF7DBFF034663
:1083F400002B11D0BDF8063019460A480CF083FF53
:1084040003468DF80E309DF80E30002B01D0022368
:1084140000E001238DF80F309DF80F30184605B0A9
:108424005DF804FB2C2D002000B585B00346ADF8A3
:10843400063000238DF80F30BDF806301846FFF7DC
:10844400B1FF0346002B11D0BDF8063019460A4887
:108454000CF059FF03468DF80E309DF80E30002BBA
:1084640001D0022300E001238DF80F309DF80F3076
:10847400184605B05DF804FB282D002000B583B034
:108484000346ADF80630BDF806301846FFF78AFFFC
:108494000346002B07D0BDF80630194604480CF0FB
:1084A40032FF034600E00023184603B05DF804FBE6
:1084B400302D002000B583B00346ADF80630BDF87A
:1084C40006301846FFF76EFF0346002B07D0BDF8B1
:1084D4000630194604480CF016FF034600E000235A
:1084E400184603B05DF804FB342D002000B583B0BA
:1084F4000346ADF80630BDF806301846FFF752FFC4
:108504000346002B07D0BDF80630194604480CF08A
:10851400FAFE034600E00023184603B05DF804FBAE
:10852400382D002000B583B003460A46ADF8063066
:1085340013468DF805309DF805301846FFF75EFEAA
:108544000346002B16D0BDF806301846FFF72AFF65
:108554000346002B0ED09DF8053006339B00084AD5
:1085640013440433BDF80620114618460CF0CBFE24
:10857400034600E00023184603B05DF804FB00BF87
:10858400202D002000B583B00346ADF806300B461D
:108594008DF8053013468DF804309DF805301846E3
:1085A400FFF72CFE0346002B15D0BDF80630184605
:1085B400FFF7F8FE0346002B0DD09DF80530063377
:1085C4009B00074A134404339DF80420BDF80610A9
:1085D4001846FFF725FE00BF03B05DF804FB00BF9B
:1085E400202D002000B587B0039002910192029BD8
:1085F400002B01D100231FE000230593039B002BD4
:1086040019D00023049313E003AB049918460CF02B
:108614007AFE0346002B08D0049B9AB2029B019970
:1086240010469847059B01330593049B013304933B
:10863400049B132BE8D9059B184607B05DF804FB8F
:1086440000B585B00346029101928DF80F309DF874
:108654000F301846FFF7D2FD034683F00103DBB267
:10866400002B01D000230CE09DF80F30074A06339D
:108674009B0013445B68019A02991846FFF7B2FF06
:108684000346184605B05DF804FB00BF202D00200A
:10869400A0DF704700BF1846A1DF704700BF18462F
:1086A400ADDF704700BF1846B3DF704700BF184600
:1086B400B4DF704700BF184600B585B00190019B38
:1086C400002B03D10A498520FDF78EFE0121019874
:1086D4000CF090FE0390BFF35F8F00BF039B002B51
:1086E4000CBF01230023DBB2184605B05DF804FB80
:1086F400BCE7030000B583B00190019B002B03D1BC
:108704000A499220FDF770FE019B1B68012B03D0E0
:1087140006499320FDF768FEBFF35F8F00BF019BFE
:1087240000221A6000BF03B05DF804FBBCE703003D
:1087340000B585B00190019B5B88184601F05AFA98
:1087440003461A46019B9A800023039308E0084AD3
:10875400039B52F8233001989847039B01330393FA
:10876400039B002BF3D000BF00BF05B05DF804FBF2
:10877400AC2B002082B00190019B9B79012B0BD183
:10878400019B1B79012B07D1019B5B8842F60212E6
:10879400934201D1012300E0002303F00103DBB283
:1087A400184602B0704700B589B003460091ADF891
:1087B400063003AB00221A605A609A60DA601A61CC
:1087C40008238DF80C30BDF80630ADF80E30009B50
:1087D400059303AB1846FFF7ABFF00BF09B05DF884
:1087E40004FB000010B58AB00346ADF80630002340
:1087F4008DF8273003AB00221A605A609A60DA6061
:108804001A61BDF80630ADF80E30BDF806304FF6EB
:10881400FF72934261D0BDF80630184600F034FF71
:108824000890089B43F2020293424BD0089B43F208
:10883400020293422DD8089B112B11D0089B112BB7
:1088440027D8089B002B03D0089B0B2B0CD020E0CF
:108854000F238DF80C3003AB1846FFF769FF32E0A5
:1088640001238DF827302EE010238DF80C301C4A9C
:108874001C4BD31ADB081B0443F00203BDF806208B
:10888400194918460FF046F903AB1846FFF750FF95
:1088940019E0134A134BD31ADB081B0443F00104F9
:1088A40008980EF0F3FB03461A46BDF806300F494C
:1088B40020460FF040F9BDF8063008991846FFF736
:1088C40072FF00E000BF0A4B19789DF82720BDF81D
:1088D40006301846FFF756FE00E000BF0AB010BD90
:1088E400C8E3030010E3030000E8030080E803008A
:1088F400A12D002000B583B003460A46ADF806302A
:1089040013468DF80530064B19789DF80520BDF8FF
:1089140006301846FFF736FE00BF03B05DF804FBCF
:10892400A02D002010B58AB00346ADF80630002310
:108934008DF8273000238DF82630BDF80630184610
:1089440000F0BAFD0890089B43F20202934258D00B
:10895400089B43F2020293423AD8089B862B17D015
:10896400089B862B34D8089B112B0DD0089B112B08
:108974002ED8089B002B03D0089B0B2B41D027E05B
:1089840001238DF826303DE001238DF8273039E0AE
:1089940003AB00221A605A609A60DA601A610723F6
:1089A4008DF80C30BDF80630ADF80E301C4A1D4B66
:1089B400D31ADB081B0443F00203BDF806201A494E
:1089C40018460FF0A7F803AB1846FFF7B1FE19E0FD
:1089D400134A144BD31ADB081B0443F00104089810
:1089E4000EF054FB03461A46BDF806300F492046E4
:1089F4000FF0A1F8BDF8063008991846FFF7D3FE2A
:108A040000E000BF9DF82720BDF806301146184647
:108A1400FFF770FF9DF8263018460AB010BD00BF5E
:108A2400C8E3030010E30300D4E803000CE90300E7
:108A340000B589B003460091ADF8063000238DF8E7
:108A44001F300DF116031846FFF72EFE0690069B05
:108A5400002B04D02A494FF49970FDF7C5FC01237B
:108A6400ADF81C3040E00223ADF808300023ADF827
:108A74000A3004AB039304A9BDF81C300022184645
:108A8400FFF716FE0690069B002B01D0069B32E0F2
:108A94009DF81F3083F00103DBB2002B09D0BDF831
:108AA400103042F60522934203D101238DF81F3082
:108AB40015E09DF81F30002B11D0BDF8103042F6A0
:108AC400021293420BD1009B039302AABDF81C101F
:108AD400BDF806301846FFF7E3FD03460BE0BDF88A
:108AE4001C300133ADF81C30BDF81630BDF81C2025
:108AF4009A42B8D30523184609B05DF804FB00BFB9
:108B04004CE9030010B58AB00346ADF806300123E2
:108B14008DF8273000238DF82630BDF8063018462E
:108B240000F062FE0890089B43F2014293426AD02F
:108B3400089B43F2014293426BD8089B112B29D81E
:108B4400089B112B65D801A252F823F0A58B0200D3
:108B5400178C0200178C0200178C0200178C02007D
:108B6400178C0200F18B0200178C0200D18B0200DB
:108B7400178C0200178C0200178C0200178C02005D
:108B8400178C0200178C0200178C0200178C02004D
:108B9400498C0200089B43F20202934254D038E00D
:108BA40003AB00221A605A609A60DA601A611123DA
:108BB4008DF80C30BDF80630ADF80E3001238DF879
:108BC400263003AB1846FFF7B3FD3EE00DF10A0271
:108BD400BDF8063011461846FFF72AFF0890089B97
:108BE400002B03D1BDF80A30002B2ED100238DF8C1
:108BF4002730BDF80630184600F0FCFF034618463F
:108C040000F03AFE21E0BDF806301846FFF7EAFD11
:108C14001BE0184A184BD31ADB081B0443F0010469
:108C240008980EF033FA03461A46BDF80630134985
:108C340020460EF080FFBDF8063008991846FFF76D
:108C4400B2FD02E000BF00E000BF0D4B19789DF8B3
:108C54002720BDF806301846FFF794FC094B197815
:108C64009DF82620BDF806301846FFF78BFC00BFA0
:108C74000AB010BDC8E3030010E3030088E9030051
:108C8400A22D0020A32D002000B583B0034600913F
:108C9400ADF80630BDF806301846FFF7A3FD00BF57
:108CA40003B05DF804FB000008B5044B1B780022F8
:108CB40003491846FFF7C4FC00BF08BDA12D0020DE
:108CC4008D8C020000B583B003460091ADF80630E8
:108CD4000A48FFF7F1FC0346002B0CD0BDF8063020
:108CE4001846FFF71FFE0346002B03D10348FFF786
:108CF40001FD00E000BF03B05DF804FB9C2D0020E3
:108D040000B583B003460091ADF806300B4B1A78DA
:108D1400BDF8063011461846FFF704FC034683F0FD
:108D24000103DBB2002B04D0BDF806301846FFF770
:108D3400E9FE00BF03B05DF804FB00BFA32D0020D3
:108D440008B5044B1B78002203491846FFF778FC4A
:108D540000BF08BDA22D0020058D020000B583B020
:108D64000346ADF80630BDF80630184600F018FD8D
:108D74000346002B07D0064B1978BDF806300122B4
:108D84001846FFF7FFFB00BF03B05DF804FB00BF0C
:108D9400A22D002000B587B003460091ADF806303F
:108DA40004AB04220021184615F05AFA42F6A62311
:108DB400ADF8103001238DF812300D4B1B6803936E
:108DC40003AA04A9BDF806301846FFF761FC059014
:108DD400059B002B07D1074B1978BDF806300122FB
:108DE4001846FFF7CFFB00BF07B05DF804FB00BFD8
:108DF400C8E90300A52D002000B585B00346ADF8F1
:108E04000630BDF80630184600F0F4FE0346184656
:108E140002AA0023092102F086F90346052B07D193
:108E2400054B1978BDF8063001221846FFF7AAFB56
:108E340000BF05B05DF804FBA42D002000B583B08D
:108E44000B4B1B7800220B491846FFF7F9FB0190E6
:108E5400019B002B07D1084B1B78002207491846B9
:108E6400FFF7EEFB019000BF03B05DF804FB00BF09
:108E7400A02D0020C98C0200A42D0020998D020091
:108E840000B583B00190019B1B78002B11D1019B8D
:108E94005B881846FFF7A6FC019B5B881846FFF722
:108EA4005DFF019B5B881846FFF7A6FFFFF7C6FF2F
:108EB40000E000BF00BF03B05DF804FB00B589B05B
:108EC4000190019B1B78092B5ED1019B5B7A002BDF
:108ED4005AD1019B1B7A082B47D0082B4DDC012B60
:108EE4001BD0072B49D1019B9B88184600F02CFF0F
:108EF4000346ADF81E30BDF81E304FF6FF729342A4
:108F04003DD0BDF81E3001211846FFF7F3FCBDF833
:108F14001E301846FFF770FF31E0019B9B8803AABF
:108F24000121184602F048FE0690069B002B28D12A
:108F3400049B1B78002B24D0019B9B88184600F0CF
:108F440003FF0346ADF81630BDF816304FF6FF7236
:108F5400934216D00F4B1978BDF8163001221846EB
:108F6400FFF710FBFFF7ECFE0BE00B4B1B68012B2C
:108F740009D10948FFF7BEFB05E000BF04E000BFCC
:108F840002E000BF00E000BFFFF758FF00BF09B0D8
:108F94005DF804FBA22D00209C2D002010B586B0A6
:108FA40003460A46ADF8063013468DF8053003AB88
:108FB40000221A605A600123ADF80C3009238DF8A1
:108FC4000E30194B1978BDF8063000221846FFF709
:108FD400D9FA9DF80530002B01D0144B00E0144B56
:108FE4000493BDF80630184600F004FE0346184604
:108FF40003AB0022194602F05DF90590059B002B96
:109004000FD00C4A0C4BD31ADB081B0443F00204A8
:1090140005980EF03BF803461A46084920460EF020
:1090240079FD00BF06B010BDA42D002050EB030055
:1090340054EB0300C8E3030010E303003CEA03001D
:1090440000B58DB00190019B9B88ADF82C30019B3D
:109054001B88353B1F2B00F2688101A252F823F0D4
:1090640075910200779202002F9302002F93020061
:109074002F9302002F9302002F9302002F930200DC
:109084002F9302002F9302002F9302002F930200CC
:109094002F9302002F9302002F9302002F930200BC
:1090A4002F9302002F9302002F9302002F930200AC
:1090B4002F9302002F9302002F9302002F9302009C
:1090C4002F9302002F9302002F930200519102006C
:1090D4002F930200E59002002F930200F19002000A
:1090E400BDF82C301846FFF77DFB1EE103AB0022D0
:1090F4001A605A609A60DA601A6112238DF80C3093
:10910400BDF82C30ADF80E30BDF82C30184600F008
:1091140071FD0346ADF81030BDF81030184600F06C
:10912400ABFB864B1978BDF82C3000221846FFF7AC
:1091340029FA834B1978BDF82C3000221846FFF722
:1091440021FA03AB1846FFF7F3FAEEE0019B06336E
:109154001846FFF70FFB0346002B00F0DF80BDF835
:109164002C3001211846FFF7C5FBFFF767FED5E059
:1091740000238DF82F30019B9B88ADF82C30019B88
:109184000A3309936F4B1A78BDF82C3011461846F0
:10919400FFF7C8F9034683F00103DBB2002B40F06C
:1091A400BF80684B1978BDF82C3000221846FFF7B1
:1091B400E9F9019BDB88B3F5857F4CD0019BDB8803
:1091C400002B0DD0604A614BD31ADB081B0443F01B
:1091D4000200019BDB881A465D490EF09BFC3AE0D5
:1091E400099B1B88012B0CD0574A584BD31ADB0818
:1091F4001B0443F00200099B1B881A4655490EF0D4
:1092040089FC099B5B88012B0DD04F4A4F4BD31A25
:10921400DB081B0443F00200099B5B881A464E4995
:109224000EF078FC17E0099B04331988BDF82C3044
:1092340000221846FFF730FA0890089B002B0AD149
:1092440001238DF82F30454B1978BDF82C300122BD
:109254001846FFF797F99DF82F3083F00103DBB22E
:10926400002B5FD0BDF82C3000211846FFF796FE86
:1092740058E000238DF82E30019B9B88ADF82C30EC
:10928400019B0A330A93354B1A78BDF82C301146EA
:109294001846FFF747F9034683F00103DBB2002BBE
:1092A40042D12E4B1978BDF82C3000221846FFF716
:1092B40069F9019BDB88002B0DD0234A234BD31A79
:1092C400DB081B0443F00200019BDB881A4620499B
:1092D4000EF020FC19E00A9B9B88012B0DD01A4A42
:1092E4001A4BD31ADB081B0443F002000A9B9B8829
:1092F4001A4619490EF00EFC07E00A9B9B79002BD5
:1093040014BF012300238DF82E309DF82E20BDF8C4
:109314002C3011461846FFF741FE06E000BF04E07A
:1093240000BF02E000BF00E000BFFFF7BDFCFFF795
:1093340007FD00BF0DB05DF804FB00BFA32D0020A6
:10934400A22D0020A52D0020C8E3030010E3030094
:109354009CEA0300D8EA030014EB0300A62D0020C6
:10936400AFDF704700BF1846B1DF704700BF184633
:10937400B2DF704700BF1846B3DF704700BF18461E
:1093840000B585B00190019B9B88184600F0DCFC79
:1093940003461A46019B5A800023039308E0084AB7
:1093A400039B52F8233001989847039B013303939E
:1093B400039B002BF3D000BF00BF05B05DF804FB96
:1093C400B02B002010B588B02D4A05AB92E80300FD
:1093D40083E8030048E02B4B1B8805A900221846AC
:1093E40001F068FF0790079B002B34D06B460022E6
:1093F4001A605A609A60DA601A61224B1B88ADF8D1
:109404000430079B112B36D0079B862B07D10723EB
:109414008DF800306B461846FFF7B2FF2BE01A4A6E
:109424001A4BD31ADB081B0443F0010407980DF010
:109434002DFE03461A46134B1B88154920460EF091
:109444007AFB08238DF80030079B02936B4618467D
:10945400FFF796FF0FE00B4B1B88184601F0FAFF4D
:1094640003461A46074B1A80064B1B884FF6FF72B9
:109474009342B0D100E000BF00BF08B010BD00BFF0
:10948400C4EB0300A82D0020D0E3030010E3030085
:109494006CEB030000B583B00190064B1B884FF6BC
:1094A400FF72934201D0FFF78DFF00BF03B05DF858
:1094B40004FB00BFA82D002030B58DB00346ADF8E5
:1094C4000630BDF80630184600F094FB0346ADF8AC
:1094D4002630BDF826304FF6FF72934202D143F294
:1094E4000203C5E00123ADF82A3000238DF82930AA
:1094F40000238DF82930BDF82A305A1CADF82A20F3
:109504001A4604ABBDF82600082102F06BFB0B9051
:109514000B9B002B40F0A180059B0893089B032222
:109524001A60089B991D089B1A1D089B1B68BDF8AF
:109534000600FFF71DFF0B900B9B002B62D102AAC4
:10954400BDF826300821184602F036FB0B900B9B21
:10955400002B16D00B9B052B13D0474A474BD31A2D
:10956400DB081B0443F001040B980DF08FFD034648
:109574001A46BDF80630424920460EF0DCFA0323B1
:1095840076E00B9B052B11D0089B9A88039B9B8844
:109594009A420BD1089B981D039B991D089B9B889D
:1095A4001A4614F0BDFD0346002B09D0BDF8262051
:1095B400BDF826300821184602F0D3FB0B9051E089
:1095C400BDF826300821184602F0ACFB0690069B35
:1095D400002B02D10B230B9344E0274A274BD31AC9
:1095E400DB081B0443F00104BDF8265006980DF077
:1095F4004DFD03462A46234920460EF09CFA0323D8
:109604000B932FE00B9B0C2B03D101238DF82930F6
:1096140004E00B9B052B01D100230B93BDF82630EE
:109624000821184602F07EFB0790079B002B19D0F7
:10963400114A124BD31ADB081B0443F00104BDF892
:10964400265007980DF022FD03462A460D49204670
:109654000EF071FA03230B9304E00B9B072B01D14B
:109664000C230B939DF82930002B7FF441AF0B9B07
:1096740018460DB030BD00BFD0E3030010E3030073
:10968400CCEB030004EC030000B58BB00346ADF84B
:109694000630BDF80630184600F0ACFA0346ADF8C3
:1096A4001430002308930023ADF81E3003230693DF
:1096B40001238DF81730BDF814304FF6FF72934232
:1096C40016D002AABDF814300821184602F074FA24
:1096D4000990099B002B0BD1039B0493049B063335
:1096E4000893049B9B88ADF81E30049B1B6806936B
:1096F400BDF81E20BDF80600069B0899FFF734FE4E
:109704000990099B042B02D11123099331E0099B91
:10971400082B02D1002309932BE0099B0B2B28D1A2
:1097240000238DF81730069B03F00203002B02D0B0
:10973400012306931DE0089B002B03D1BDF81E30C6
:10974400002B07D0002308930023ADF81E30032319
:1097540006930EE00F4A104BD31ADB081B0443F0A8
:109764000103BDF806200D4918460EF0D3F9032372
:109774000993099B0B2BBBD09DF8173083F0010391
:10978400DBB2002B01D00B230993099B18460BB0C5
:109794005DF804FBD0E3030010E3030084EC030052
:1097A40000B589B00346ADF806300DF117030493F4
:1097B400BDF80630184600F01DFA0346ADF81E3019
:1097C40003AABDF81E300121184602F0F5F90690EF
:1097D400069B002B01D0002301E0049B1B78184654
:1097E40009B05DF804FB000010B584B00346ADF881
:1097F40006304FF6FF73ADF80E301B48FFF7BCFD83
:109804000290029B002B11D0184A194BD31ADB0883
:109814001B0443F0010402980DF038FC03461A4679
:10982400144920460EF076F903231AE00E4B1988EA
:10983400BDF80E20BDF806301846FFF791FD0290E2
:10984400029B43F20302934205D1074B1B88013369
:109854009AB2054B1A80029B43F203029342E5D06D
:10986400029B184604B010BDAA2D0020D0E30300CB
:1098740010E30300FCEC030000B585B00346ADF82B
:109884000630084A02AB92E8030083E8030002A909
:10989400BDF806300022184601F00CFD00BF05B0EB
:1098A4005DF804FB48ED030046DF704700BF18462F
:1098B40000B585B001900023039308E0084A039B98
:1098C40052F8233001989847039B01330393039B79
:1098D400012BF3D900BF00BF05B05DF804FB00BF46
:1098E40058EE030084B00190002303930AE0019A28
:1098F400039B13441B78002B01D0012306E0039B38
:1099040001330393039B0F2BF1D90023184604B0B2
:10991400704700B583B001900091019B002B02D0E9
:10992400009B002B01D100231BE0019B1B78C3F398
:109934004603DAB2009B1B78C3F34603DBB29A42B8
:1099440001D000230DE0019B581C009B013306222B
:10995400194614F0E5FB0346002B0CBF012300233A
:10996400DBB2184603B05DF804FB000030B597B0D5
:109974000190019B1B88102B40F09180019B0AAC45
:109984001D1D0FCD0FC40FCD0FC495E8070084E84B
:1099940007004FF6FF73ADF856309DF82C3023F0D6
:1099A4000103DBB2062B47D001F026FC9DF82C30D6
:1099B400C3F34603DBB2012B02DC002B15DA3BE0D8
:1099C400022B2ED038E0089B03F111020AAB0433BA
:1099D40011461846FFF79DFF0346002B05D0BDF83E
:1099E4002630ADF8563000BF26E007AA0DF1260355
:1099F4001946072001F00AFC0346002BE3D11BE0C3
:109A0400089B5A1C0AAB04331146184600F08FFA1F
:109A14000346002B05D0BDF82630ADF8563000BF04
:109A240009E007AA0DF126031946072001F0EEFB11
:109A34000346002BE4D100BFBDF828301946194A6B
:109A44000B469B000B445B001344BDF856201A8060
:109A5400BDF828301946134A0B469B000B445B00A3
:109A6400134402330BAA1068186091889279998084
:109A74009A71BDF856304FF6FF72934210D0BDF87C
:109A84002830ADF80A30BDF85630ADF80C3000235C
:109A94008DF8083002AB1846FFF70AFF00E000BF5C
:109AA40017B030BDAC2D002000B587B001900091F7
:109AB400019B11330593009B11330493019B581CA4
:109AC400009B01331022194614F02AFB0346002B95
:109AD40011D1019B01331846FFF704FF0346002B05
:109AE40009D0009B01331846FFF7FCFE0346002B08
:109AF40001D0012300E000238DF80F309DF80F30D2
:109B040003F001038DF80F3004990598FFF701FF66
:109B140003468DF80E30059B1B7823F00103DBB25E
:109B2400042B16D0059B1B7823F00103DBB2062B14
:109B34000FD0049B1B7823F00103DBB2042B08D065
:109B4400049B1B7823F00103DBB2062B01D0012315
:109B540000E000238DF80D309DF80D3003F0010373
:109B64008DF80D309DF80E30002B03D09DF80D308C
:109B7400002B0AD19DF80F30002B08D09DF80D3032
:109B840083F00103DBB2002B01D0012300E00023AA
:109B940003F00103DBB2184607B05DF804FB00B51F
:109BA40087B001900B46ADF8023001F025FB10E0C0
:109BB400BDF81630BDF802209A420AD0049B19461B
:109BC4000198FFF771FF0346002B02D0BDF8163051
:109BD4000BE003AA0DF116031946072001F016FB4A
:109BE4000346002BE4D14FF6FF73184607B05DF827
:109BF40004FB000000B583B00346ADF80630BDF8A1
:109C04000630132B0AD8BDF806301846FEF7CAFBF7
:109C1400034683F00103DBB2002B02D04FF6FF733F
:109C240008E0BDF80620054913469B0013445B0079
:109C34000B441B88184603B05DF804FBAC2D0020D0
:109C440000B583B003460091ADF80630BDF8063088
:109C5400132B0AD8BDF806301846FEF7A3FB0346BB
:109C640083F00103DBB2002B02D043F2020311E0C4
:109C7400BDF806200098094913469B0013445B0075
:109C84000B44024602331968116099889B799180CC
:109C940093710023184603B05DF804FBAC2D00203B
:109CA40000B583B001900091019800F089F8034653
:109CB40083F00103DBB2002B01D0002315E0019BEC
:109CC4001A88009B1B889A4201D000230DE0019B57
:109CD400981C009B02330822194614F021FA03460B
:109CE400002B0CBF01230023DBB2184603B05DF840
:109CF40004FB00B587B0019001F07EFA14E0049BE8
:109D0400463319460198FFF7CBFF0346002B08D1D1
:109D1400049B2A3319460198FFF7C2FF0346002B20
:109D240002D0BDF816300BE003AA0DF11603194654
:109D3400072001F06BFA0346002BE0D14FF6FF73C6
:109D4400184607B05DF804FB00B585B00346ADF8CE
:109D54000630BDF806304FF6FF72934202D14FF63B
:109D6400FF7326E00023ADF80E301CE0BDF80E2092
:109D7400124913469B0013445B000B441B88BDF837
:109D840006209A420AD1BDF80E301846FEF70AFBA7
:109D94000346002B02D0BDF80E300AE0BDF80E30A9
:109DA4000133ADF80E30BDF80E30132BDED94FF66B
:109DB400FF73184605B05DF804FB00BFAC2D00200E
:109DC40084B00190019B1B88002B01D0012312E079
:109DD400002303930BE0019A039B134402331B7883
:109DE400002B01D0012306E0039B01330393039B63
:109DF400072BF0D90023184604B0704782B00346FD
:109E04000A46ADF806301346ADF80430BDF8063006
:109E1400132B0AD8BDF80620054913469B001344AA
:109E24005B000B44BDF804201A8000BF02B07047E9
:109E3400AC2D002000B585B00346ADF80630BDF862
:109E440006301846FFF780FF0346ADF80E30BDF824
:109E54000630184601F03EFE0290029B002B0ED104
:109E6400BDF80E30132B0AD8BDF80E200649134650
:109E74009B0013445B000B444FF6FF721A80029B55
:109E8400184605B05DF804FBAC2D002000B595B074
:109E9400039002910192002313930DE0139BC3F1ED
:109EA4000F03039A1344197805AA139B13440A4613
:109EB4001A70139B01331393139B0F2BEED905AB2D
:109EC40010330D220021184614F0CAF9002312930E
:109ED4000DE0029A129B1A44129BC3F10F031278ED
:109EE40050336B4403F82C2C129B01331293129BB6
:109EF400022BEED905AB1846FFF7D6FC00231193CD
:109F04000DE0119BC3F10F020199119B0B445032D8
:109F14006A4412F81C2C1A70119B01331193119B83
:109F2400022BEED900BF00BF15B05DF804FB00B5ED
:109F340087B001900091019B1B7823F00103DBB2F1
:109F4400042B01D000231FE0019B5A1C05AB118890
:109F5400927819809A70019B1A1D03AB118892782C
:109F640019809A70009B04AA03A91846FFF78EFF74
:109F740004A905AB0322184614F0D2F80346002BBB
:109F84000CBF01230023DBB2184607B05DF804FBC5
:109F940076DF704700BF184680DF704700BF184661
:109FA40084DF704700BF184600B585B04023019395
:109FB400002303930EE0334A039B4C2101FB03F37C
:109FC400134449331B78002B01D0112356E0039B23
:109FD40001330393039B002BEDD02B4B00221A700B
:109FE4002A4B00221A702A4B2A4A2B492B4804F088
:109FF40017F80290029B002B0DD0294A294BD31A43
:10A00400DB081B0443F00103029A274918460DF0AC
:10A0140081FD029B32E001AB1A4624491C4804F03E
:10A02400B1F80290029B002B0DD01D4A1D4BD31A90
:10A03400DB081B0443F00103029A1D4918460DF086
:10A0440069FD029B1AE04023184A1849124804F09B
:10A05400D9F80290029B002B0CD0114A114BD31A51
:10A06400DB081B0443F00103029A124918460DF061
:10A0740051FD02E0044B01221A70029B184605B000
:10A084005DF804FB4C2F0020B52E0020982F0020F3
:10A09400042F0020BC2E0020B4090400B82E002098
:10A0A40098E3030010E3030064F00300742E00201F
:10A0B4009CF00300D4F0030000B583B000230193A7
:10A0C4000B4B1B78002B02D00A4B01930AE00A4A7F
:10A0D4000A4BD31ADB081B0443F001030849184652
:10A0E4000DF00AFD019B184603B05DF804FB00BFA8
:10A0F400B52E0020742E002098E3030010E3030023
:10A104000CF1030000B597B003460091ADF806309A
:10A1140000231593009B1B68149340231393202260
:10A1240014995C4813F0FCFF0346002B59D15A4A9A
:10A134005A4BD31ADB081B0443F002035849184650
:10A144000DF0DAFCBDF80630564A4C2101FB03F34E
:10A154001344493300221A70BDF80630514A4C2189
:10A1640001FB03F313444A331B78002B13D0BDF8CF
:10A1740006304C4A4C2101FB03F313444A330022BA
:10A184001A70BDF80630002200211846FFF704FFBC
:10A194001590159B79E0BDF80630424A4C2101FB2D
:10A1A40003F313444B331B78002B63D0BDF8063004
:10A1B4003C4A4C2101FB03F313444B3300221A7035
:10A1C400BDF8063013211846FFF7E2FE1590159BE3
:10A1D400002B04D0159B082B01D0159B55E00023C0
:10A1E40053E003AA139B14992F4804F00BF815901D
:10A1F400159B002B0DD0284A284BD31ADB081B04CF
:10A2040043F00103159A294918460DF083FC159B68
:10A214003BE0BDF806304C2202FB03F3214A9918B7
:10A2240003AA139B204803F069FF1590159B002B8C
:10A2340016D0194A194BD31ADB081B0443F0010347
:10A24400159A1B4918460DF065FCBDF80630154AF1
:10A254004C2101FB03F31344493300221A7009E033
:10A26400BDF806300F4A4C2101FB03F31344493374
:10A2740001221A70BDF806300A4A4C2101FB03F38F
:10A284001344483301221A700023184617B05DF8AE
:10A2940004FB00BF742E002098E3030010E30300C6
:10A2A40000F203004C2F0020B4090400D4F0030092
:10A2B4002CF2030000B587B00346ADF80630114B0D
:10A2C4001B78002B01D0104B00E0002305930F4BAB
:10A2D4001B68002B07D00D4B1B68BDF806201046E9
:10A2E4009847034600E000230493BDF80630049A1F
:10A2F40005991846FFF754FE0390039B184607B0D0
:10A304005DF804FB982F00209C2F0020C42F002010
:10A3140000B585B0019000230393019B9B88ADF8A1
:10A324000A30019B1B88113B082B00F2928001A28A
:10A3340052F823F05DA3020057A4020057A40200C0
:10A3440057A40200CDA3020057A40200AFA3020049
:10A35400E3A3020043A40200BDF80A30424A4C21A0
:10A3640001FB03F31344493300221A70BDF80A3089
:10A374003D4A4C2101FB03F31344483300221A7075
:10A38400BDF80A30384A4C2101FB03F313444A3325
:10A3940000221A70BDF80A30334A4C2101FB03F342
:10A3A40013444B3300221A705AE0019B1B7A012B91
:10A3B40051D1BDF80A302C4A4C2101FB03F313445C
:10A3C4004A3301221A7046E0BDF80A30264A4C216D
:10A3D40001FB03F313444B3301221A7040E0019B49
:10A3E4001B7B03F00103DBB2002B17D0BDF80A304E
:10A3F4001846FFF75FFF0390039B002B0ED01B4A08
:10A404001B4BD31ADB081B0443F00103039A1949BD
:10A4140018460DF07FFB184B01221A70019B03F1C3
:10A424000802BDF80A3011461846FFF76BFE039088
:10A43400039B002B11D0104B01221A700DE0FFF783
:10A44400B3FD0390039B002B09D00B4B01221A7020
:10A4540005E000BF04E000BF02E000BF00E000BF71
:10A4640000BF05B05DF804FB4C2F002098E3030007
:10A4740010E3030068F20300B42E00208ADF704763
:10A4840000BF18468BDF704700BF18468CDF70474B
:10A4940000BF184600B58DB001900091009B0233B7
:10A4A4000993019B40330893019B36330B93019B23
:10A4B40093F83E308DF82B30019B93F8343083F0C1
:10A4C4000103DBB2002B21D100F0FDFB02AB14220F
:10A4D4000021184613F0C4FE9DF82B300B9A0899FE
:10A4E4000998FFF7D3FF079005238DF80830079BE1
:10A4F4000393079B002B0AD0019B1B6D002B06D0F6
:10A50400019B1B6D02AA1046984700E000BF0DB0E6
:10A514005DF804FB00B583B001900091009B581CCA
:10A52400019B03330622194613F0FAFD0346002B60
:10A5340001D1012300E00023184603B05DF804FBB9
:10A5440000B587B001900091009B22330493009BD7
:10A5540093F829308DF80F3000238DF8173014E06C
:10A564009DF817201346DB009B1A049A13441946DE
:10A574000198FFF7CFFF0346002B01D001230BE026
:10A584009DF8173001338DF817309DF817209DF88A
:10A594000F309A42E4D30023184607B05DF804FB59
:10A5A40000B587B001900091019B22330493019B75
:10A5B40029330393039B1B78002B01D0042350E021
:10A5C40000238DF8163016E09DF816201346DB00A4
:10A5D4009B1A049A1344013306220099184613F077
:10A5E4009FFD0346002B01D100233AE09DF816306D
:10A5F40001338DF816309DF81630002BE4D000237B
:10A604008DF8173016E09DF81730009AD118039B87
:10A614001B781A461346DB009B1A049A1A449DF8C9
:10A624001730097813440A465A709DF817300133DD
:10A634008DF817309DF81730052BE4D9039B1B7850
:10A644001A461346DB009B1A049A1A4413786FF3D4
:10A6540047031370039B1B780133DAB2039B1A7010
:10A664000023184607B05DF804FB00B587B00190DD
:10A674000091009B0493009B93F820308DF80F30D9
:10A68400019B9B8BADF80C3000238DF8173015E03F
:10A69400019B98699DF817305B01049A1A44BDF830
:10A6A4000C301946FDF719FC0346002B01D0012399
:10A6B4000BE09DF8173001338DF817309DF8172003
:10A6C4009DF80F309A42E3D30023184607B05DF893
:10A6D40004FB10B586B001900091019B20330493D4
:10A6E400009813F040FD03468DF80F309DF80F30AD
:10A6F400002B03D09DF80F30202B01D90C2333E01D
:10A70400049B1B78002B01D004232DE000238DF83B
:10A71400173012E09DF817305B01019A1344009939
:10A72400184613F037FD0346002B01D100231BE02C
:10A734009DF8173001338DF817309DF81730002B32
:10A74400E8D0049B1B785A1CD1B2049A11705B01A7
:10A75400019AD418009813F006FD03461A4600998E
:10A76400204613F04BFD0023184606B010BD00B57B
:10A7740087B001900091009B2C330493009B93F8C5
:10A7840032308DF80F30009B93F830308DF80E3056
:10A7940000238DF81630019B9B8BADF80C30002301
:10A7A4008DF8173024E0019B98699DF817309B00C1
:10A7B400049A1A44BDF80C301946FDF7CFFB034642
:10A7C400002B0CD09DF8163001338DF816309DF80F
:10A7D4000F3083F00103DBB2002B04D010E09DF8AE
:10A7E4000F30002B0BD19DF8173001338DF8173043
:10A7F4009DF817209DF80E309A42D4D300E000BF94
:10A804009DF80F30002B05D09DF816209DF80E30D2
:10A814009A420AD09DF80F3083F00103DBB2002B7B
:10A8240005D09DF81630002B01D0012300E0002351
:10A83400184607B05DF804FB86B001900091019BB7
:10A844002C330493019B30330393039B1B78002B1D
:10A8540001D0042325E000238DF8173010E09DF883
:10A8640017309B00049A13441A88009B1B889A4251
:10A8740001D1002315E09DF8173001338DF817300E
:10A884009DF81730002BEAD0039B1B785A1CD1B2D9
:10A89400039A11709B00049A1A44009B1B6813606E
:10A8A4000023184606B0704700B589B003900B46E4
:10A8B40001928DF80B30039B002B01D10E2328E06D
:10A8C400019B002B01D10E2323E09DF80B30032BB9
:10A8D40016D0032B1CDC002B02D0022B08D017E06F
:10A8E400019B059305990398FFF7F3FE034610E0D7
:10A8F400019B069306990398FFF752FE034608E06E
:10A90400019B079307990398FFF796FF034600E01E
:10A914000723184609B05DF804FB000000B585B0B4
:10A9240001900B468DF8033013468DF80230019BDD
:10A93400002B01D10E2351E09DF8033003F00203F4
:10A94400002B19D19DF8033003F00103002B13D120
:10A954009DF8033003F00403002B0DD19DF8033060
:10A9640003F01003002B07D19DF8033003F0080314
:10A97400002B01D1072331E0019800F035F8039052
:10A98400039B002B04D0174940F2AF20FBF72CFDAA
:10A99400019B02939DF8033003F00203002B03D0C4
:10A9A400029B012283F82A209DF8033003F001035F
:10A9B400002B03D0029B012283F821209DF8033051
:10A9C40003F00403002B03D0029B012283F83120FF
:10A9D400029B9DF8022083F832200023184605B01C
:10A9E4005DF804FBA8F2030086B00190019B002BE4
:10A9F40001D10E2312E0019B21330593059B002214
:10AA04001A70019B2A330493049B00221A70019B41
:10AA140031330393039B00221A700023184606B0B7
:10AA2400704700B58BB00190009100238DF827305A
:10AA340000238DF8263003AB14220021184613F0AE
:10AA44000FFC019B40330793019800F0C7F80346BD
:10AA5400002B14D002238DF80C30009B0493019B2F
:10AA64001B6D03AA10469847019B743319460020B6
:10AA7400FFF704FD00990198FFF70CFDABE0019B83
:10AA840093F832308DF8243000238DF82530019B63
:10AA940093F82A308DF82330019B93F821308DF8F8
:10AAA4002230019B93F831308DF821309DF823300A
:10AAB400002B19D09DF8273001338DF827300199E8
:10AAC4000098FFF73DFD0346002B0DD09DF826307E
:10AAD40001338DF826309DF8143043F002038DF8CD
:10AAE400143001238DF825309DF82230002B19D025
:10AAF4009DF8273001338DF8273001990098FFF72E
:10AB0400B4FD0346002B0DD09DF8263001338DF89B
:10AB140026309DF8143043F001038DF814300123DE
:10AB24008DF825309DF82130002B19D09DF8273061
:10AB340001338DF8273001990098FFF718FE03467A
:10AB4400002B0DD09DF8263001338DF826309DF86A
:10AB5400143043F004038DF8143001238DF82530AC
:10AB6400009B04939DF82430002B0DD09DF82620E3
:10AB74009DF827309A4207D100238DF80C300099B4
:10AB84000198FFF787FC17E09DF8243083F0010358
:10AB9400DBB2002B0BD09DF82530002B07D000230F
:10ABA4008DF80C3000990198FFF774FC04E003233E
:10ABB4008DF80C30009B0493019B1B6D002B04D07B
:10ABC400019B1B6D03AA10469847019B74331946D9
:10ABD4000020FFF753FC0BB05DF804FB82B001903A
:10ABE400019B93F8403003F01803DBB2082B07D025
:10ABF400019B93F8403003F01803DBB2182B01D10A
:10AC0400012300E00023184602B0704782B001908F
:10AC1400019A92F8403043F0040382F84030019BDB
:10AC2400A022A3F84220019B5022A3F84420019BB8
:10AC34000022A3F84620019A92F840306FF3C4032F
:10AC440082F84030019B012283F8412000BF02B00A
:10AC5400704782B00190019B4FF4C8729A87019BA0
:10AC64000622DA86019B18221A87019B00225A8742
:10AC740000BF02B0704700B589B001900091009BFD
:10AC84000433079302AB14220021184613F0E8FAA8
:10AC9400079B1B78012B12D1019B1B6D002B0ED03F
:10ACA40004238DF80830019B40330693079B1B78DF
:10ACB4008DF80C30019B1B6D02AA1046984700BF0B
:10ACC40009B05DF804FB08B5FFF7DCFB00BF08BD65
:10ACD40010B584B0039002910192039B002B01D123
:10ACE4000E234DE0039B019A1A65039B3422002135
:10ACF400184613F0B5FA029B002B2DD0029B1A794B
:10AD0400039B83F83420029B1A7B039B83F83E2029
:10AD1400029B1B68002B0BD0029B1A68039B4033D9
:10AD2400144620686168A26807C3A2891A8002E0F9
:10AD34000398FFF76BFF029B9B68002B08D0029BD4
:10AD44009A68039B36331168526819605A600DE0A3
:10AD54000398FFF77EFF09E00398FFF757FF039876
:10AD6400FFF777FF039B002283F83420039B03F152
:10AD74005402039B5A67039B1F22A3F878200023E5
:10AD8400184604B010BD000000B589B00190019BC5
:10AD9400002B01D10E2338E002AB14220021184607
:10ADA40013F05EFAFFF78FFF0198FFF717FF0346D2
:10ADB400002B0BD0019B1B6D002B07D001238DF8BA
:10ADC4000830019B1B6D02AA10469847019B03F1B2
:10ADD4004002019B743319461046FFF74FFB07905E
:10ADE400079B082B10D0079B002B0DD0094A0A4B58
:10ADF400D31ADB081B0443F00103079A07491846DA
:10AE04000CF088FE079B00E00023184609B05DF8AB
:10AE140004FB00BF70E3030010E30300E0F203004F
:10AE240000B589B00190009103AB142200211846AB
:10AE340013F016FA06238DF80C30009B04330493A8
:10AE4400009B1B88ADF81430019B40330793019B92
:10AE54001B6D002B04D0019B1B6D03AA1046984761
:10AE640000BF09B05DF804FB00B587B00190009104
:10AE7400009B0593019B08330493019B04330393C4
:10AE8400019B1B881D2B06D01D2B13DC102B0CD013
:10AE94001B2B05D00EE004990598FFF7C2FD0AE0CC
:10AEA40003990598FFF7E7FE05E003990598FFF776
:10AEB400B7FF00E000BF00BF07B05DF804FB00006F
:10AEC40000B585B00190019B4FF6FF725A800023B4
:10AED400039305E0064B01989847039B01330393C2
:10AEE400039B002BF6D000BF00BF05B05DF804FB48
:10AEF4002DBA020082B00346ADF80630BDF8063024
:10AF0400A3F580439BB2184602B0704782B0034653
:10AF1400ADF80630BDF8063003F580439BB2184601
:10AF240002B0704782B003468DF807309DF80730B1
:10AF34009BB2A3F580439BB2184602B0704782B01F
:10AF440003468DF807309DF80730072B17D09DF87E
:10AF54000730012B13D09DF80730082B0FD09DF834
:10AF64000730052B0BD09DF80730062B07D09DF832
:10AF74000730092B03D09DF80730042B01D101239E
:10AF840000E0002303F00103DBB2184602B070476F
:10AF940000B589B003460091ADF8063003AB00223A
:10AFA4001A605A609A60DA601A6108238DF80C30CE
:10AFB400BDF80630ADF81030009B059303AB18467E
:10AFC400FFF77EFF00BF09B05DF804FB00B589B050
:10AFD400354B00221A7001AB08220021184613F0E9
:10AFE4003FF94FF6FF7001F045F80346ADF81E3007
:10AFF4000CE0BDF81E30184600F08EFFBDF81E3080
:10B00400184601F037F80346ADF81E30BDF81E307F
:10B014004FF6FF72934210D0BDF81E301846FFF76A
:10B0240069FF0346184601AA03AB194609F0EDFF70
:10B03400034648F209629342DBD0BDF81E304FF656
:10B04400FF7293422CD0BDF81E301846FFF752FF12
:10B054000346ADF81C30BDF81C30184609F070FFEB
:10B064000690069B48F20762934203D10E4B0122DD
:10B074001A7015E0069B002B12D00C4A0C4BD31A05
:10B08400DB081B0443F00100BDF81E30069A094991
:10B094000CF051FDBDF81E3006991846FFF778FFF5
:10B0A40000BF09B05DF804FBC82F0020F0E30300E3
:10B0B40010E3030018F3030000B587B003460092C1
:10B0C400ADF806300B468DF805309DF8053018466E
:10B0D400FFF735FF02AB08220021184613F0C0F831
:10B0E400BDF806301846FFF705FF0346ADF81630E5
:10B0F4009DF805301846FFF715FF0346ADF81430E8
:10B1040002ABBDF81410BDF81600009A09F054FF04
:10B114000490049B002B01D0052300E00023184673
:10B1240007B05DF804FB00B58DB0029201930346AD
:10B13400ADF80E300B468DF80D30BDF80E30FF2BF8
:10B1440001D9072354E09DF80D301846FFF7F7FEA8
:10B15400034683F00103DBB2002B01D0072347E051
:10B1640006AA9DF80D10BDF80E301846FFF7A4FF8F
:10B174000B900B9B002B01D0052339E004AA06ABEE
:10B184001146184609F02EFE0B900B9B002B01D0A4
:10B1940005232DE0029B9DF80D209A70049B5A888C
:10B1A400029B1A80019B002B03D1059A029B5A60D3
:10B1B40019E0029B1B889B000A93029B1B889A0040
:10B1C400019B1B68934228BF13460993029B5B684B
:10B1D4000599099A184613F011F8099A0A9B9A429C
:10B1E40001D20C2304E006AB184609F039FE002313
:10B1F40018460DB05DF804FB08B50822002102488A
:10B2040013F02EF800BF08BDCC2F002000B58DB080
:10B214000346029101928DF80F309DF80F301846C5
:10B22400FFF78DFE034683F00103DBB2002B01D050
:10B23400012338E09DF80F301846FFF773FE0346EC
:10B24400ADF82E3007A9BDF82E30194A184609F07A
:10B25400C9FE0346002B01D0002324E005AA07AB56
:10B264001146184609F0BEFD0A900A9B002B01D036
:10B27400002318E0019B9DF80F209A70059B5A88C3
:10B28400019B1A80069A019B5A60059B9B8818466D
:10B29400FFF73CFE03461A46029B1A8007AB18468A
:10B2A40009F0DEFD012318460DB05DF804FB00BF74
:10B2B400CC2F002000B58DB0034602910192ADF869
:10B2C4000E30BDF80E30FF2B01D907238AE0029B14
:10B2D4009B781846FFF733FE034683F00103DBB285
:10B2E400002B01D007237DE0BDF80E301846FFF790
:10B2F40001FE0346ADF82030029B9B781846FFF709
:10B3040011FE0346ADF82230029B5B680993029B51
:10B314001B880A93029B997805AABDF80E3018463B
:10B32400FFF7CAFE0B900B9B052B07D108AA05ABB0
:10B334001146184609F0E0FD0B9006E008AA05AB9B
:10B344001146184609F0E7FD0B900B9B002B2BD000
:10B354000B9B48F20D62934236D80B9B48F2026273
:10B36400934231D30B9BA3F50643023B0B2B2BD803
:10B3740001A252F823F000BFC9B30200CDB302000A
:10B38400CDB30200CDB30200C5B30200C1B30200C5
:10B39400CDB30200CDB30200CDB30200CDB30200A1
:10B3A400CDB30200C1B30200019B002B04D005AB56
:10B3B4000199184609F03CFE002313E0112311E023
:10B3C40086230FE010230DE0084A094BD31ADB084B
:10B3D4001B0443F00100BDF80E300B9A05490CF034
:10B3E400AAFB032318460DB05DF804FBF0E3030049
:10B3F40010E30300E8F3030008B54FF6FF7000F014
:10B4040053FD0346184608BD00B583B00346ADF8A6
:10B414000630BDF80630FF2B01D9072307E0BDF83D
:10B424000630184600F052FDFFF7D0FD0023184601
:10B4340003B05DF804FB00B583B00346ADF80630F5
:10B44400BDF80630184600F081FD0346184603B0E7
:10B454005DF804FB00B583B00346ADF80630BDF8D3
:10B464000630184600F0D2FD0346184603B05DF8D6
:10B4740004FB00B583B00346ADF80630BDF80630D2
:10B48400184600F0F7FD0346184603B05DF804FBC8
:10B4940082B00190019B4FF6FF721A80019BFF223C
:10B4A4009A70019BFF225A72019A937A6FF34103B7
:10B4B4009372019A937A6FF300039372019B0022B3
:10B4C4001A72019B00225A6000BF02B0704700004C
:10B4D40084B003460091ADF80630009B1B680393CB
:10B4E40019E01049039A13465B0013449B000B4474
:10B4F4001B88BDF806209A420AD1009B039A1A6061
:10B50400039A13465B0013449B00064A134406E067
:10B51400039B01330393039B032BE2D900231846B7
:10B5240004B07047E42F002000B585B003460A46F6
:10B53400ADF8063013468DF805300023029302AAB5
:10B54400BDF8063011461846FFF7C2FF03900AE023
:10B55400029B0133029302AABDF806301146184635
:10B56400FFF7B6FF0390039B002B17D0039B9B7838
:10B574009DF805209A42EBD1039B9B7A03F00203CA
:10B58400DBB2002BE4D1039B9B7A03F00103DBB213
:10B59400002BDDD1039B5B68002BD9D1039B18469C
:10B5A40005B05DF804FB000084B001900023039310
:10B5B40016E00F49039A13465B0013449B000B44A7
:10B5C40004331B68019A9A4207D1039A13465B001D
:10B5D40013449B00064A134406E0039B0133039380
:10B5E400039B032BE5DD0023184604B0704700BF1E
:10B5F400E42F002008B5FF214FF6FF70FFF794FFFA
:10B604000346184608BD000000B585B0019000232C
:10B6140003930CE0019B5A7A039BDBB21344DBB225
:10B624001946094801F0AAF8039B01330393019BCF
:10B634001B7A1A46039B9342ECD30198FFF728FF29
:10B6440000BF05B05DF804FBD42F002000B583B023
:10B6540001900B46ADF8023013468DF80130019B82
:10B66400002B13D0FFF7C6FF0246019B1A60019B13
:10B674001B68002B0CD0019B1B68BDF802201A80AC
:10B68400019B1B689DF801209A7002E000BF00E056
:10B6940000BF03B05DF804FB00B585B00190002342
:10B6A400039308E0084A039B52F823300198984713
:10B6B400039B01330393039B032BF3D900BF00BF08
:10B6C40005B05DF804FB00BFB8F6030086B0039034
:10B6D40001921A460B468DF80B301346ADF808302C
:10B6E400BDF808301A46920013441B01ADF8163019
:10B6F400039B9DF80B209A70039B019A5A60BDF836
:10B70400163003339B109AB2039B1A8000BF06B015
:10B71400704700B585B00390019200930B468DF8F5
:10B724000B30009B9BB29DF80B10019A0398FFF716
:10B73400CDFF00BF05B05DF804FB000082B00190AE
:10B74400019B9B78013B072B27D801A252F823F0D9
:10B754007DB702009FB702009FB702009FB70200A7
:10B764009FB7020085B7020075B702008DB70200CB
:10B77400019B14221A8011E0019B01221A800DE022
:10B78400019B01221A8009E0019B5B689B880933B5
:10B794009B089AB2019B1A8000E000BF00BF02B070
:10B7A400704700BF10B586B001900023059302AB2B
:10B7B40000221A605A60019B9B788DF80A30019B25
:10B7C4005B7A1946404800F0A8FF0490049B002BC4
:10B7D4000ED13E4A3E4BD31ADB081B0443F0010052
:10B7E400019B5B7A1A463B490CF094F9032367E00A
:10B7F400019B9978019B1B7A02A8049AFFF789FFA1
:10B8040002AB1846FFF79AFF019B1888019B1A1D8B
:10B8140002AB1946FFF74EFD0590059B862B2AD0F7
:10B82400059B862B35D8059B112B14D0059B112B1A
:10B834002FD8059B002B03D0059B072B3ED028E077
:10B84400019A937A6FF341039372019A937A6FF397
:10B854000003937233E0019A937A43F002039372E4
:10B86400019A937A6FF3000393721B4B01221A70AF
:10B874000023059323E0019A937A6FF341039372B3
:10B88400019A937A43F001039372134B01221A70C5
:10B8940015E00E4A0E4BD31ADB081B0443F00104D7
:10B8A40005980BF0F3FB03461A46019B1B880B49D2
:10B8B40020460CF040F90323059300E000BF059BEC
:10B8C400184606B010BD00BFD42F0020E8E30300E3
:10B8D40010E30300A8F4030014300020E8F403008C
:10B8E40010B588B001900198FFF75CFF0790079BA3
:10B8F400002B2BD04FF6FF73ADF80A30019B1B8849
:10B90400ADF80C30079B862B03D107238DF8083044
:10B9140016E008238DF80830079B04930D4A0E4B5C
:10B92400D31ADB081B0443F0010407980BF0AEFBA9
:10B9340003461A46019B1B88084920460CF0FBF875
:10B9440002AB1846FFF7A8FE002300E001231846C7
:10B9540008B010BDE8E3030010E3030018F503008A
:10B9640000B585B003468DF807302D4B1B7883F066
:10B974000103DBB2002B4DD1294B00221A700023A6
:10B98400039343E02749039A13465B0013449B0047
:10B994000B4408339B78C3F34003DBB2002B0DD177
:10B9A4002049039A13465B0013449B000B4408335D
:10B9B4009B78C3F30003DBB2002B24D0184B012285
:10B9C4001A701849039A13465B0013449B000B44F6
:10B9D40008339B78C3F34003DBB2002B03D19DF8FB
:10B9E4000730002B0FD0039A13465B0013449B00CF
:10B9F4000C4A13441846FFF773FF034683F0010310
:10BA0400DBB2002B08D1039B01330393039B032B6D
:10BA1400B8D902E000BF00E000BF05B05DF804FB48
:10BA240014300020E42F002000B585B001900123DC
:10BA34008DF80F3000238DF80E30019BDB6818461B
:10BA4400FFF7B2FD0290019B1B78142B27D0142B17
:10BA540029DC092B02D00A2B0BD024E0019B5B7A52
:10BA6400002B22D1029B002B1FD00298FFF7CCFDA4
:10BA74001BE0019B5B7A002B19D1029B002B16D093
:10BA8400029B00225A60029A937A43F00203937253
:10BA94000F4B01221A7000238DF80F3007E00123A9
:10BAA4008DF80E3004E000BF02E000BF00E000BFEC
:10BAB4009DF80F30002B02D00198FFF7EDFD9DF8A3
:10BAC4000E301846FFF74CFF00BF05B05DF804FBCD
