:020000022000DC
:106000000000012019620200016202000362020026
:10601000056202000762020009620200000000003F
:106020000000000000000000000000000B62020001
:106030000D620200000000000F6202001162020007
:10604000898F020013620200E99C020013620200C1
:106050001362020013620200E59B02001362020059
:106060001362020013620200136202001362020054
:106070001362020013620200136202001362020044
:10608000136202004DD0020013620200136202008C
:106090001362020013620200DDF9020013620200C3
:1060A0001362020013620200136202001362020014
:1060B00013620200136202000000000000000000F2
:1060C00013620200136202001362020013620200F4
:1060D000136202001362020013620200000000005B
:1060E00000000000000000000000000000000000B0
:1060F00000000000000000000000000000000000A0
:10610000000000000000000000000000000000008F
:10611000000000000000000000000000000000007F
:10612000000000000000000000000000000000006F
:10613000000000000000000000000000000000005F
:10614000000000000000000000000000000000004F
:10615000000000000000000000000000000000003F
:10616000000000000000000000000000000000002F
:10617000000000000000000000000000000000001F
:10618000000000000000000000000000000000000F
:1061900000000000000000000000000000000000FF
:1061A00000000000000000000000000000000000EF
:1061B00000000000000000000000000000000000DF
:1061C00000000000000000000000000000000000CF
:1061D00000000000000000000000000000000000BF
:1061E00000000000000000000000000000000000AF
:1061F000000000000000000000000000000000009F
:10620000FEE7FEE7FEE7FEE7FEE7FEE7FEE7FEE766
:10621000FEE7FEE700F002B8FFF7FCBF0F484FF0C3
:106220000701884385460E4880470E48016841F4BF
:1062300070010160BFF34F8FBFF36F8F00F01AB88A
:1062400009480A490A4A884207D0521A05D00378F9
:1062500001300B700131013AF9D170470000012083
:10626000AD7A020088ED00E0F8010300C8180020B4
:10627000C81800203A493B480A1A02D00722914325
:106280008D46394939480A1A06D00722914381F3CD
:106290000988022282F3148835483649364A00F0CC
:1062A00041F836483649374A00F03CF83648374915
:1062B000374A00F037F837483749384A00F032F8A3
:1062C00037483849384A00F02DF838483849394AB3
:1062D00000F028F838483949394A00F023F839489D
:1062E0003949002200F036F838483949002200F0D8
:1062F00031F838483849091A09F0A0FE374A904762
:1063000025482649884205D00268043003B49047E6
:1063100003BCF7E700208646EC4600200021304A07
:106320009047FEE7884214D0521A12D003460B431E
:1063300013430324234206D1036804300B60043165
:10634000043AF9D17047037801300B700131013AFA
:10635000F9D17047884202D002700130FAE77047E5
:106360000000012000E000200000012000000120CA
:106370009C170300C8180020F4190020E4630200F1
:10638000E4630200440103009C170300C8180020C6
:10639000C8180020F8010300F8010300F801030009
:1063A000F8010300F8010300F8010300F8010300FD
:1063B000F801030099170300C8180300F41900201E
:1063C000F4190020F4190020F4210020F421002009
:1063D000F4210020F4210020F44100204162020059
:0463E0008D670200C3
:1063E40000B585B00190019B002B0AD0074B43F008
:1063F40001030393019B9B010293039B029898471B
:1064040000E000BF05B05DF804FB00BFB00203006C
:1064140072DF704700BF184673DF704700BF18462D
:1064240074DF704700BF184600B583B00190019B2C
:10643400002B0AD04FF47A70FFF7D2FF019B013B87
:106444000193019B002BF5D100E000BF03B05DF880
:1064540004FB000000B583B003460091ADF806309C
:10646400BDF80630009A1946034805F071FC00BFD8
:1064740003B05DF804FB00BFEFBEADDE00B597B01E
:1064840004238DF857305923ADF80030364B5B7D2B
:106494000133DAB2344B5A75344A354BD31ADB081C
:1064A4001B0443F003033349184608F061FC2F4AE8
:1064B4002F4BD31ADB081B0443F003032A49184665
:1064C40008F056FC284B02931723ADF8043003ABB5
:1064D4003C220021184609F003FE00238DF80C30FD
:1064E4009DF857308DF80F306B460C93182200211D
:1064F400214809F0F5FD204B05221A701E4B00229D
:106504005A601D4B00221A751B4B4FF448729A6057
:10651400194B00229A81184B0A229A73174B196857
:1065240003AB174A184602F088F81490149B13938F
:10653400139B002B04D0134AE921139805F008FC9F
:106544000D4A0E491048FFF763FF1490149B1293F1
:10655400129B002B04D00B4AEC21129805F0F8FB97
:1065640000BF17B05DF804FBDC180020A001030095
:1065740078010300F8010300F4190020CC1800206E
:10658400D018002018020300C818002000B583B0FA
:10659400114A124BD31ADB081B0443F003031049BE
:1065A400184608F0E5FB0F4B1B7801211846FFF74E
:1065B40033FF0190022000F08BFE0190019B0093B9
:1065C400009B002B04D0084AFB21009805F0C0FB77
:1065D40000BF03B05DF804FBA001030078010300D1
:1065E40050020300C81800201802030000B583B04D
:1065F400134B1B781846FFF713FF0190114A124BF7
:10660400D31ADB081B0443F003031049184608F0AF
:10661400AFFB0B4B1B7801211846FFF7FDFE0190E1
:10662400019B0093009B002B05D0094A40F21511F1
:10663400009805F08DFB00BF03B05DF804FB00BFBC
:10664400C8180020A00103007801030068020300B9
:106654001802030000B587B009F03CF90590059BCA
:106664000493049B002B05D0164A40F2231104988E
:1066740005F06EFB0023019301AB1946012009F0DC
:10668400E1F90590059B0393039B002B05D00D4A6C
:1066940040F22911039805F05BFB01AB184609F0A1
:1066A400C3FA0590059B0293029B002B05D0054A73
:1066B40040F22D11029805F04BFB00BF07B05DF8C6
:1066C40004FB00BF1802030000B583B04FF48041FF
:1066D400002008F077F80190019B0093009B002BA9
:1066E40005D0064A40F23911009805F031FB07F055
:1066F400FFFF00BF03B05DF804FB00BF18020300F6
:1067040000B583B00021012000F0FCFD0190019B45
:106714000093009B002B05D0044A4FF4A17100980C
:1067240005F016FB00BF03B05DF804FB180203007C
:1067340000B583B005F0BCFE0190019B0093009B63
:10674400002B05D0044A4FF4A571009805F000FB16
:1067540000BF03B05DF804FB1802030000B583B06A
:1067640007F09AFC0190019B0093009B002B05D03D
:10677400044A4FF4AA71009805F0EAFA00BF03B086
:106784005DF804FB1802030008B5FFF79DFFFFF74F
:10679400CFFFFFF7B5FFFFF7E1FFFFF75BFF104AFD
:1067A400104BD31ADB081B0443F003030E491846AD
:1067B40008F0DEFAFFF762FE094A0A4BD31ADB0837
:1067C4001B0443F003030849184608F0D1FAFFF705
:1067D400DDFEFFF70BFF43F69820FFF725FEE9E700
:1067E400A0010300780103009802030000B583B000
:1067F4000190019B1B68184600F0F4F80346002B37
:1068040004D105494FF4F670FFF724FE4FF0A0437E
:10681400184603B05DF804FBB802030000B585B068
:106824000190084611461A4603468DF803300B467C
:106834008DF8023013468DF8013001AB1846FFF78E
:10684400D5FF03909DF803209DF802305B001A43A6
:106854009DF801309B001A439DF818301B0242EA50
:1068640003019DF81C301B04019A1943039B02F594
:10687400E07243F8221000BF05B05DF804FB00B5D8
:1068840085B0039000230193002300930023012289
:1068940001210398FFF7C2FF00BF05B05DF804FBB8
:1068A40000B585B003900B468DF80B309DF80B3086
:1068B4000022019200220092002200210398FFF797
:1068C400ADFF00BF05B05DF804FB00B585B00190D5
:1068D40001AB1846FFF78AFF0390019B012202FADD
:1068E40003F31946039800F069F800BF05B05DF89A
:1068F40004FB00B585B0019001AB1846FFF776FFA5
:106904000390019B012202FA03F31946039800F055
:106914005FF800BF05B05DF804FB00B585B00190D9
:1069240001AB1846FFF762FF0390039BD3F80435CD
:106934000293029BDA43019B012101FA03F31A40FB
:10694400039BC3F80825019B01229A40029B1A402D
:10695400039BC3F80C2500BF05B05DF804FB00B52C
:1069640083B001900091009B002B03D10198FFF7A5
:10697400C0FF02E00198FFF7A8FF00BF03B05DF875
:1069840004FB00B585B0019001AB1846FFF72EFF5C
:106994000390039800F00AF80246019B22FA03F3DD
:1069A40003F00103184605B05DF804FB82B00190C2
:1069B400019BD3F80435184602B0704782B00190A9
:1069C4000091019B009AC3F8082500BF02B07047EC
:1069D40082B001900091019B009AC3F80C2500BF7E
:1069E40002B0704784B00190019B5B0902930023BD
:1069F4000393029B002B03D14FF0FF33039300BF9B
:106A0400019B03F01F030193039A019B22FA03F3F2
:106A140003F00103002B14BF01230023DBB218464B
:106A240004B0704700B585B00190019B032B03D9D6
:106A340011493A20FFF70EFD104A019B13441B78BD
:106A44001846FFF79EFF0346002B14BF01230023C3
:106A54008DF80F309DF80F30002B14BF0123002355
:106A6400DBB283F00103DBB203F00103DBB21846AF
:106A740005B05DF804FB00BFE00203000803030057
:106A840000B583B00190019B032B03D90749412032
:106A9400FFF7E0FC064A019B13441B7800211846CB
:106AA400FFF75DFF00BF03B05DF804FBE0020300E5
:106AB4000803030000B583B00190019B032B03D9A5
:106AC40007494720FFF7C6FC064A019B13441B787D
:106AD40001211846FFF743FF00BF03B05DF804FB34
:106AE400E00203000803030000B583B00023019310
:106AF40005E00198FFF7DEFF019B01330193019B41
:106B0400032BF6D900BF00BF03B05DF804FB00B54A
:106B140083B00023019305E00198FFF7B1FF019BC7
:106B240001330193019B032BF6D900BF00BF03B0CF
:106B34005DF804FB00B583B00190019B032B03D9DE
:106B440007495F20FFF786FC064A019B13441B7824
:106B54001846FFF7E2FE00BF03B05DF804FB00BF78
:106B6400E00203000803030000B583B0002301938F
:106B740009E0094A019B13441B781846FFF77FFE7E
:106B8400019B01330193019B032BF2D9FFF7ACFF67
:106B940000BF03B05DF804FB0803030000B583B035
:106BA400002301930AE0094A019B13441B78032143
:106BB4001846FFF775FE019B01330193019B032BDC
:106BC400F1D900BF00BF03B05DF804FB0C03030060
:106BD40084B001904FF0FF330293002303930DE040
:106BE4000A4A039B13441B781A46019B934202D121
:106BF400039B029305E0039B01330393039B032B45
:106C0400EED9029B184604B0704700BF0C03030082
:106C140000B583B00190019B03F00103002B01D068
:106C2400FFF7A2FF019B03F00203002B01D0FFF743
:106C3400B5FF00BF03B05DF804FB000000B587B0EA
:106C440003460A468DF8073013468DF806300023B4
:106C54008DF81730002304939DF807301846FFF78A
:106C6400B7FF0490049B032B62D89DF80630022BD7
:106C740052D0022B5CDC002B31D0012B58D135498A
:106C8400049A13465B0013440B441B788DF81730A9
:106C94003049049A13465B0013440B4401331B78B8
:106CA400002B0ED02C4B2D4A4FF48041184605F092
:106CB40077FC0390039B002B03D1284A9DF80730EF
:106CC40013702449049A13465B0013440B440233A3
:106CD4001978234A049B13440A461A7028E01E4B71
:106CE400184605F0B5FC1E4A049B1344197819484C
:106CF400049A13465B001344034402331B789942FD
:106D040015D11449049A13465B0013440B4402330F
:106D14001B788DF817300AE00E49049A13465B007D
:106D240013440B4401331B788DF8173000E000BF87
:106D34009DF81730002B09D00A4B1B68002B05D097
:106D4400084B1B689DF817201046984700BF07B0F2
:106D54005DF804FB3C1A002038190020481A002072
:106D64004C1A0020381A002000B583B00190019B12
:106D74001B7802211846FFF761FF00BF03B05DF8DE
:106D840004FB000000B583B00C4B1B78002B0FD024
:106D94000023019308E0019B022B02D00198FFF726
:106DA40089FE019B01330193019B032BF3D901E07D
:106DB400FFF79AFE00BF03B05DF804FB341A00200D
:106DC4002DE9D04F92B003468DF83F300023119344
:106DD40000231093CC4B1B78002B04D0CA4A002309
:106DE4001370FFF7CFFF9DF83F30172B00F23F825F
:106DF40001A252F823F000BF5D6E0200756E02001E
:106E0400756E0200116F0200AD6F0200297002005E
:106E1400BD700200DD700200ED7002001971020005
:106E24003771020055710200737102008171020012
:106E3400817102008171020081710200817102007E
:106E44001572020023720200377202004B720200B4
:106E54006572020065720200FFF794FFAB4B18469F
:106E640005F0F6FB1190AA4A9DF83F301370FFE13C
:106E74000020FFF7D7FD0346002B0DD00020FFF7BD
:106E840019FE9DF83F30022B02D14FF4E16301E07B
:106E94004FF47A6310930BE00020FFF7F1FD9DF8A7
:106EA4003F30022B01D1C82301E04FF4C873109383
:106EB400974A9DF83F301370944C109B0022009326
:106EC40001924FF000024FF00003DDE900673946FC
:106ED400CB03314643EA51433146CA0312F57A7172
:106EE400029143F1000303934FF4FA624FF000035D
:106EF400DDE9020109F008F802460B4613460022B8
:106F04001946204605F04CFB1190B1E10020FFF733
:106F140089FD0346002B0DD00020FFF7CBFD9DF823
:106F24003F30032B02D14FF4487301E04FF47A63EE
:106F340010930BE00020FFF7A3FD9DF83F30032BD7
:106F440001D1C82301E04FF4C8731093704A9DF82F
:106F54003F3013706D4C109B0022049305924FF048
:106F640000024FF00003DDE904673946CB033146E4
:106F740043EA51433146CA0312F57A71069143F14B
:106F8400000307934FF4FA624FF00003DDE90601B2
:106F940008F0BAFF02460B46134600221946204663
:106FA40005F0FEFA119063E10020FFF73BFD034674
:106FB400002B06D00020FFF77DFD4FF47A63109379
:106FC40005E00020FFF75CFD4FF4C8731093504AAE
:106FD4009DF83F3013704D4C109B00229A46934607
:106FE4004FF000024FF000034FEACB3343EA5A4319
:106FF4004FEACA3212F57A71089143F100030993FA
:107004004FF4FA624FF00003DDE9080108F07CFF59
:1070140002460B46134600221946204605F0C0FAE4
:10702400119025E10020FFF7FDFC0346002B0CD056
:107034000020FFF73FFD9DF83F30052B01D1C82309
:1070440001E04FF47A6310930BE00020FFF718FD82
:107054009DF83F30052B01D1C82301E04FF4C873DC
:1070640010932B4A9DF83F301370284C109B00223C
:10707400984691464FF000024FF000034FEAC9339F
:1070840043EA58434FEAC83212F57A710A9143F140
:1070940000030B934FF4FA624FF00003DDE90A0199
:1070A40008F032FF02460B461346002219462046DA
:1070B40005F076FA1190DBE00020FFF73BFD144A5F
:1070C4009DF83F301370114B002240F26661184660
:1070D40005F066FA1190CBE00020FFF7D1FC0C4AD2
:1070E4009DF83F301370C3E0074B01221A70012052
:1070F400FFF720FD054B002240F26661184605F0BB
:107104004FFA1190B4E000BF2C1A0020F8180020A8
:107114002B1A0020594B01221A700120FFF70AFD97
:10712400574B00224FF40051184605F039FA1190DC
:107134009EE0524B01221A700120FFF7FBFC504BDA
:10714400002240F26661184605F02AFA11908FE099
:107154004A4B01221A700120FFF7ECFC484B002235
:107164004FF40051184605F01BFA119080E0FFF728
:10717400CEFC444A9DF83F30137079E0424B1846E8
:1071840005F066FA11909DF83F30C3F11103109396
:10719400109B002B35D0119B002B32D1109B012B5F
:1071A40028D9394C109B9BB21A46C82302FB03F31F
:1071B400DA171E4617464FF000024FF00003FB0398
:1071C40043EA5643F20312F57A710C9143F100033A
:1071D4000D934FF4FA624FF00003DDE90C0108F05F
:1071E40093FE02460B46134600221946204605F03C
:1071F400D7F911900220FFF743FC244B01221A70A7
:1072040036E00220FFF756FC204B00221A702FE0D4
:10721400FFF7B8FD1B4A9DF83F30137028E0FFF7D5
:10722400B1FD0020FFF72CFC164A9DF83F30137087
:107234001EE0FFF7A7FD0120FFF722FC114A9DF88D
:107244003F30137014E0FFF79DFD0020FFF718FC9A
:107254000120FFF715FC0B4A9DF83F30137007E03F
:10726400FFF755FC074A9DF83F30137000E000BF5C
:10727400119B184612B0BDE8D08F00BF2C1A002015
:10728400F81800202B1A002018190020341A0020A6
:1072940000B583B00190074B1B6803F00103002B7A
:1072A40004D0054B1B781846FFF78AFD00BF03B0D6
:1072B4005DF804FB301A00202B1A002000B583B0BF
:1072C40001900220FFF736FC00BF03B05DF804FB19
:1072D40000B585B003468DF8073000230393084BAF
:1072E4001B6803F00103002B05D09DF807301846F6
:1072F400FFF766FD0390039B184605B05DF804FB99
:10730400301A002000B585B001900091002303934A
:107314002A4A019B13602A4A009B1360019B03F0D5
:107324000203002B2AD00023029308E0012201214A
:10733400029800F055F80390029B01330293029BDC
:10734400032B02D8039B002BF0D0039B002B06D108
:1073540040F2333204211B4804F0FAFB0390039BF0
:10736400002B02D104F07CFC0390039B002B05D17D
:10737400154A0021154805F0D9F80390019B03F044
:107384000103002B14D00120FFF742FC039B002BC8
:1073940005D10F4A00210F4805F0C8F80390039B5C
:1073A400002B05D10C4A01210C4805F0BFF80390CD
:1073B400039B184605B05DF804FB00BF301A00209B
:1073C400381A00201C0303006D6D0200180303002B
:1073D4009572020010030300C1720200140303003B
:1073E40084B001900B468DF8033013468DF80230BB
:1073F40000230393019B032B3CD89DF80230012BFF
:107404000BD19DF80330012B04D1019BDBB20E3369
:10741400DBB200E000238DF802309DF80330022B2C
:107424000FD0022B23DC002B16D0012B1FD11449C3
:10743400019A13465B0013440B449DF802201A7012
:107444001AE00F49019A13465B0013440B440133BD
:107454009DF802201A700FE00949019A13465B0057
:1074640013440B4402339DF802201A7004E00723EE
:10747400039301E007230393039B184604B070476A
:107484003C1A0020BFF34F8F00BF064BDB6803F4A8
:10749400E0620449044B1343CB60BFF34F8F00BF3A
:1074A40000BFFDE700ED00E00400FA0582B01D4BCB
:1074B4001B68B3F1FF3F0AD11B4B1B68DBB201937E
:1074C4001A4B1B681B0903F00F03009305E0154BCF
:1074D4001B680193164B1B680093019B062B1DD15F
:1074E400009B033B042B17D801A252F823F000BFE2
:1074F400097502000D750200117502001575020070
:107504001975020001230AE0012308E0012306E0C3
:10751400012304E0012302E0012300E000231846D4
:1075240002B0704730010010E00F00F0E80F00F0E7
:107534003401001082B0174B1B68DBB20193164B69
:107544001B681B0903F00F030093019B062B1DD13D
:10755400009B033B042B17D801A252F823F000BF71
:10756400797502007D75020081750200857502003F
:107574008975020001230AE0002308E0002306E0E5
:10758400002304E0002302E0002300E00023184667
:1075940002B07047E00F00F0E80F00F082B01D4B1E
:1075A4001B68B3F1FF3F0AD11B4B1B68DBB201938D
:1075B4001A4B1B681B0903F00F03009305E0154BDE
:1075C4001B680193164B1B680093019B062B1DD16E
:1075D400009B033B042B17D801A252F823F000BFF1
:1075E400F9750200FD7502000176020005760200BD
:1075F4000976020001230AE0012308E0012306E0E2
:10760400012304E0012302E0012300E000231846E3
:1076140002B0704730010010E00F00F0E80F00F0F6
:107624003401001082B0174B1B68DBB20193164B78
:107634001B681B0903F00F030093019B062B1DD14C
:10764400009B033B042B17D801A252F823F000BF80
:10765400697602006D76020071760200757602008A
:107664007976020001230AE0002308E0002306E003
:10767400002304E0002302E0002300E00023184676
:1076840002B07047E00F00F0E80F00F082B01D4B2D
:107694001B68B3F1FF3F0AD11B4B1B68DBB201939C
:1076A4001A4B1B681B0903F00F03009305E0154BED
:1076B4001B680193164B1B680093019B062B1DD17D
:1076C400009B033B042B17D801A252F823F000BF00
:1076D400E9760200ED760200F1760200F57602000A
:1076E400F976020001230AE0012308E0012306E001
:1076F400012304E0012302E0012300E000231846F3
:1077040002B0704730010010E00F00F0E80F00F005
:107714003401001082B0174B1B68DBB20193164B87
:107724001B681B0903F00F030093019B062B1DD15B
:10773400009B033B042B17D801A252F823F000BF8F
:10774400597702005D7702006177020065770200D5
:107754006977020001230AE0002308E0002306E021
:10776400002304E0002302E0002300E00023184685
:1077740002B07047E00F00F0E80F00F082B0174B42
:107784001B68DBB20193164B1B681B0903F00F0344
:107794000093019B062B1DD1009B033B042B17D8A0
:1077A40001A252F823F000BFC1770200C57702009E
:1077B400C9770200CD770200D177020001230AE0E5
:1077C400002308E0002306E0002304E0002302E095
:1077D400002300E00023184602B07047E00F00F0D9
:1077E400E80F00F082B01D4B1B68B3F1FF3F0AD1D4
:1077F4001B4B1B68DBB201931A4B1B681B0903F07C
:107804000F03009305E0154B1B680193164B1B688F
:107814000093019B062B1DD1009B033B042B17D81F
:1078240001A252F823F000BF41780200457802001B
:10783400497802004D7802005178020000230AE0E2
:10784400002308E0012306E0012304E0012302E011
:10785400012300E00023184602B0704730010010F5
:10786400E00F00F0E80F00F03401001082B01D4B6F
:107874001B68B3F1FF3F0AD11B4B1B68DBB20193BA
:107884001A4B1B681B0903F00F03009305E0154B0B
:107894001B680193164B1B680093019B062B1DD19B
:1078A400009B033B042B17D801A252F823F000BF1E
:1078B400C9780200CD780200D1780200D5780200A0
:1078C400D978020001230AE0012308E0012306E03D
:1078D400012304E0012302E0012300E00023184611
:1078E40002B0704730010010E00F00F0E80F00F024
:1078F4003401001082B01D4B1B68B3F1FF3F0AD165
:107904001B4B1B68DBB201931A4B1B681B0903F06A
:107914000F03009305E0154B1B680193164B1B687E
:107924000093019B062B1DD1009B033B042B17D80E
:1079340001A252F823F000BF5179020055790200E8
:10794400597902005D7902006179020001230AE09D
:10795400012308E0012306E0012304E0012302E0FF
:10796400012300E00023184602B0704730010010E4
:10797400E00F00F0E80F00F03401001082B0154B66
:107984001B680193144B1B680093019B062B1DD1AC
:10799400009B033B042B17D801A252F823F000BF2D
:1079A400B9790200BD790200C1790200C5790200EB
:1079B400C979020000230AE0002308E0002306E05E
:1079C400012304E0012302E0012300E00023184620
:1079D40002B07047300100103401001082B0154B22
:1079E4001B680193144B1B680093019B062B1DD14C
:1079F400009B033B042B17D801A252F823F000BFCD
:107A0400197A02001D7A0200217A0200257A020006
:107A1400297A020000230AE0002308E0002306E09C
:107A2400002304E0012302E0012300E000231846C0
:107A340002B07047300100103401001008B5FFF7A0
:107A4400CDFF0346002B07D04FF010234FF08042A8
:107A5400D3F80832C2F8583500BF08BD00BF044B44
:107A6400D3F80034002BFAD000BF00BF704700BF2A
:107A740000E0014000B583B00190054A019BC2F8C3
:107A84000435FFF7EBFF00BF03B05DF804FB00BF54
:107A940000E00140024B034A1A6000BF704700BF78
:107AA400581900200090D00308B5FFF7FFFC0346E7
:107AB400002B06D0964B1B681B0A964A03F01F0343
:107AC4001360FFF737FD0346002B02D0924B934A15
:107AD4001A60FFF763FD0346002B06D0904B1B682A
:107AE4005B0B904A03F007031360FFF79BFD03460B
:107AF400002B05D08C4BDB688B4A23F08073D3605A
:107B0400FFF7C4FD0346002B0ED04FF08043002244
:107B1400C3F80C214FF080430022C3F810214FF02A
:107B240080430022C3F83825FFF7F4FD0346002BF9
:107B340002D07E4B03221A60FFF720FE0346002B7F
:107B44000BD07B4B05221A607A4B01221A607A4BC8
:107B540000221A60794B3F221A60FFF743FE034666
:107B6400002B76D04FF08053754AD3F80434C2F812
:107B740020354FF08053724AD3F80834C2F82435C4
:107B84004FF080536E4AD3F80C34C2F828354FF0C6
:107B940080536B4AD3F81034C2F82C354FF080531D
:107BA400674AD3F81434C2F830354FF08053644A2E
:107BB400D3F81834C2F834354FF08053604AD3F800
:107BC4001C34C2F840354FF080535D4AD3F820345A
:107BD400C2F844354FF08053594AD3F82434C2F8DC
:107BE40048354FF08053564AD3F82834C2F84C3500
:107BF4004FF08053524AD3F82C34C2F850354FF02A
:107C040080534F4AD3F83034C2F854354FF0805380
:107C14004B4AD3F83434C2F860354FF08053484AA5
:107C2400D3F83834C2F864354FF08053444AD3F85B
:107C34003C34C2F868354FF08053414AD3F840349D
:107C4400C2F86C354FF080533D4AD3F84434C2F83F
:107C54007035FFF70BFE0346002B05D0394B1B682C
:107C6400394A03F04F031360FFF744FE0346002B29
:107C74000DD04FF08043D3F8003403F00103002B00
:107C840005D04FF080436FF00102C3F80024FFF7E2
:107C940075FE0346002B05D02C4B1B682B4A43F47E
:107CA400806313602A4BD3F88830294A43F4700365
:107CB400C2F88830BFF34F8F00BFBFF36F8F00BF90
:107CC400FFF7BCFE4FF01023D3F80032002B05DB86
:107CD4004FF01023D3F80432002B15DA0120FFF7FC
:107CE400C9FE4FF010231522C3F80022FFF7B6FE99
:107CF4004FF010231522C3F80422FFF7AFFE002033
:107D0400FFF7B8FEFFF7BEFBFFF7C4FE00BF08BDD8
:107D1400240300104035014074C007400DF0ADBA93
:107D2400440200103C050040F0ED00E0A0050040D6
:107D34001056004088560040185600401456004023
:107D440000C0004058020010E40E00403C17004000
:107D540000ED00E06DDF704700BF184679DF704723
:107D640000BF18467DDF704700BF184664DF7047C8
:107D740000BF184682B003460091ADF80630BDF846
:107D84000630DAB2009B1A70BDF806301B0A9AB2AC
:107D9400009B0133D2B21A700223184602B0704716
:107DA40000B589B0039002911346ADF80630029BEA
:107DB4001B8803F10902BDF806309A4201D90C234D
:107DC40053E004AB1846FFF7C5FF0790079B0693E3
:107DD400069B002B01D0069B47E0029B1B881A469A
:107DE400039B134408221A70029B1B8801339AB226
:107DF400029B1A80029B1B881A46039B13441B2276
:107E04001A70029B1B8801339AB2029B1A80029B50
:107E14001B881A46039B981804AB013306221946A3
:107E240008F02CF9029B1B8806339AB2029B1A8035
:107E34009DF8103023F00103DBB2002B07D1029B25
:107E44001B881A46039B134400221A7006E0029B07
:107E54001B881A46039B134401221A70029B1B8839
:107E640001339AB2029B1A800023184609B05DF8C8
:107E740004FB00B589B0039002910192ADF8023081
:107E8400039B1B78012B05D1039B5B78002B01D14D
:107E9400072391E0019B1B889A1CBDF802309A428B
:107EA4000ED8039B1B78012B0CD1019B1B881A460F
:107EB400039B5B7813449A1CBDF802309A4201D9A3
:107EC4000C2379E0019B1B88BDF80220D31A9BB2D6
:107ED400023BADF81C30BDF81C30ADF81230019BEC
:107EE4001B880233029A13440DF1120211461846FC
:107EF400FFF738FF0690069B0593059B002B01D0E6
:107F0400059B59E0039B1B78022B06D0039B5B78EF
:107F14001A46BDF812309A4209D3BDF81230BDF8A2
:107F24001C209A4203D309238DF81F3016E008233E
:107F34008DF81F30039B1B78012B0BD1039B5B78BF
:107F44001A46BDF81C30934204D3039B5B78ADF80A
:107F5400123003E0BDF81C30ADF81230BDF8123019
:107F6400FE2B01D90C2327E0BDF81230DAB2019BB5
:107F74001B881946029B0B440132D2B21A70019B32
:107F84001B8801339AB2019B1A80019B1B881A46F5
:107F9400029B13449DF81F201A70019B1B88013318
:107FA4009AB2019B1A80019B1A88BDF812301344BF
:107FB4009AB2019B1A800023184609B05DF804FBAD
:107FC40000B589B0039002911346ADF80630029BC8
:107FD4001B881A1DBDF806309A4201D90C233AE0D9
:107FE4000DF116031846FFF7B9FE0790079B069399
:107FF400069B002B01D0069B2DE0029B1B881A4692
:10800400039B134403221A70029B1B8801339AB208
:10801400029B1A80029B1B881A46039B1344192255
:108024001A70029B1B8801339AB2029B1A80BDF816
:108034001620029B1B881946039B0B4419461046C5
:10804400FFF798FE03461A46029B1B8813449AB214
:10805400029B1A800023184609B05DF804FB84B023
:10806400029101921A4603468DF80F301346ADF87B
:108074000C30019B1B88DA1CBDF80C309A4201D9E4
:108084000C2328E0019B1B881A46029B13440222FE
:108094001A70019B1B8801339AB2019B1A80019BC1
:1080A4001B881A46029B134401221A70019B1B88E9
:1080B40001339AB2019B1A80019B1B881A46029BCA
:1080C40013449DF80F201A70019B1B8801339AB248
:1080D400019B1A800023184604B0704784B00291B3
:1080E40001921A4603468DF80F301346ADF80C3052
:1080F400019B1B88DA1CBDF80C309A4201D90C2371
:1081040028E0019B1B881A46029B134402221A7022
:10811400019B1B8801339AB2019B1A80019B1B8827
:108124001A46029B13440A221A70019B1B880133CE
:108134009AB2019B1A80019B1B881A46029B134426
:108144009DF80F201A70019B1B8801339AB2019B82
:108154001A800023184604B0704700B58FB003900E
:1081640001930B468DF80B3013468DF80A3000232B
:108174008DF83330109B1B88ADF8303000230D93FD
:1081840070E0039B5A680D9B9B001A4405AB106872
:1081940018600DF11B0105AB00221846FFF7E6FD40
:1081A4000A900A9B0993099B002B01D0099B7BE051
:1081B4009DF81B309DF80A209A4250D19DF8333027
:1081C400002B01D0002300E002238DF82330109B04
:1081D4001B881A469DF81B301A449DF823301A4414
:1081E400BDF844309A4201DD0C235DE09DF8333044
:1081F40083F00103DBB2002B16D0109B1B880133E4
:108204009AB2109B1A80109B1B881A46019B134438
:108214009DF80B201A70109B1B8801339AB2109B97
:108224001A8001238DF83330109B1B881A46019B5A
:108234001A440DF11B0105AB1846FFF797FD0A9090
:108244000A9B0793079B002B01D0079B2CE0109BF4
:108254001B889DF81B2013449AB2109B1A800D9B17
:1082640001330D93039B1B881A460D9B934288DBB5
:108274009DF83330002B16D0109B1A88BDF830308F
:10828400D31A9BB2013BADF82E30BDF82E30FF2B34
:1082940001D90C2308E0BDF83030019A1344BDF82D
:1082A4002E20D2B21A70002318460FB05DF804FBDA
:1082B40000B58BB0059003930B468DF8133013462D
:1082C4008DF812309DF81310BDF8343001930C9BD7
:1082D4000093039B02220598FFF73FFF0990099B37
:1082E4000893089B002B01D0089B14E09DF8121002
:1082F400BDF8343001930C9B0093039B1022059826
:10830400FFF72BFF0990099B0793079B002B01D0D4
:10831400079B00E0002318460BB05DF804FB82B015
:108324000190019B1B88052B0AD9019B1B88B3F57F
:10833400486F07D9019B1B884FF6FF72934201D007
:10834400072325E0019B5B88052B0AD9019B5B88E9
:10835400B3F5486F07D9019B5B884FF6FF729342D0
:1083640001D0072314E0019B1B884FF6FF72934250
:108374000DD0019B5B884FF6FF72934207D0019B9F
:108384001A88019B5B889A4201D9072300E00023E5
:10839400184602B0704700B587B00390029101926D
:1083A400ADF80230019B1B889A1DBDF802309A4239
:1083B40001D90C234BE00398FFF7B1FF0590059B0F
:1083C4000493049B002B01D0049B40E0019B1B8879
:1083D4001A46029B134405221A70019B1B88013321
:1083E4009AB2019B1A80019B1B881A46029B134474
:1083F40012221A70019B1B8801339AB2019B1A80C6
:10840400039B1A88019B1B881946029B0B4419463F
:108414001046FFF7AFFC03461A46019B1B88134422
:108424009AB2019B1A80039B5A88019B1B881946A8
:10843400029B0B4419461046FFF79CFC03461A4660
:10844400019B1B8813449AB2019B1A80002318468F
:1084540007B05DF804FB00B587B003900291019268
:10846400ADF80230039B9B8802330593019B1B8864
:108474001A46059B13449A1CBDF802309A4201D94E
:108484000C2353E0059BFE2B01D90C234EE0059BE6
:10849400DAB2019B1B881946029B0B440132D2B20B
:1084A4001A70019B1B8801339AB2019B1A80019BAD
:1084B4001B881A46029B1344FF221A70019B1B88D7
:1084C40001339AB2019B1A80039B1A88019B1B8873
:1084D4001946029B0B4419461046FFF74BFC034612
:1084E4001A46019B1B8813449AB2019B1A80039B72
:1084F4009B88002B19D0039B9B68002B01D1072379
:1085040014E0019B1B881A46029B9818039B9968E8
:10851400039B9B881A4607F0B1FD019B1A88039BB5
:108524009B8813449AB2019B1A800023184607B013
:108534005DF804FB00B589B0039002910192ADF897
:108544000230039B9B6A002B01D1072371E00023B7
:108554008DF81F3065E0039B996A9DF81F20134630
:108564005B0013449B000B440693069B9B880233D9
:108574000593059BFE2B01D90C235AE0059BDAB227
:10858400019B1B881946029B0B440132D2B21A701C
:10859400019B1B8801339AB2019B1A80019B1B88A3
:1085A4001A46029B134416221A70019B1B8801333E
:1085B4009AB2019B1A80069B1A88019B1B88194654
:1085C400029B0B4419461046FFF7D4FB03461A4698
:1085D400019B1B8813449AB2019B1A80069B9B88BB
:1085E400002B19D0069B9B68002B01D1072320E0A8
:1085F400019B1B881A46029B9818069B9968069B48
:108604009B881A4607F03AFD019B1A88069B9B88B3
:1086140013449AB2019B1A809DF81F3001338DF8E0
:108624001F30039B93F82C309DF81F209A4292D35D
:108634000023184609B05DF804FB00B595B0059019
:108644000491039200231393039B1B88ADF84A30D3
:10865400039B00221A80059B93F82D30002B0ED02B
:10866400BDF84A301A4603990498FFF799FB139012
:10867400139B1193119B002B01D0119BD8E0059BF8
:108684009B78002B0ED0BDF84A301A460399049803
:10869400FFF796FC1390139B1093109B002B01D0B3
:1086A400109BC5E0059BDB78002B10D0059BDB7885
:1086B40058B2BDF84A30039A0499FFF7D0FC1390DE
:1086C400139B0F930F9B002B01D00F9BB0E0059BD6
:1086D4005B68002B11D0059B5B6893F90000BDF823
:1086E4004A30039A0499FFF7F9FC1390139B0E93F5
:1086F4000E9B002B01D00E9B9AE0059B1B89002B3F
:1087040014D0059B03F10800BDF84A300193039B84
:108714000093049B06220221FFF7CAFD1390139BCA
:108724000D930D9B002B01D00D9B81E0059B1B8AB3
:10873400002B14D0059B03F11000BDF84A300193BF
:10874400039B0093049B07220321FFF7B1FD1390C1
:10875400139B0C930C9B002B01D00C9B68E0059B96
:108764001B8B002B14D0059B03F11800BDF84A3075
:108774000193039B0093049B15221421FFF798FD9A
:108784001390139B0B930B9B002B01D00B9B4FE07F
:10879400059B1B6A002B0FD0059B186ABDF84A3055
:1087A400039A0499FFF7F7FD1390139B0A930A9B0E
:1087B400002B01D00A9B3BE0059B5B6A002B0FD08A
:1087C400059B586ABDF84A30039A0499FFF743FEA3
:1087D4001390139B0993099B002B01D0099B27E05D
:1087E400059B93F82C30002B0ED0BDF84A30039A29
:1087F40004990598FFF79EFE1390139B0893089B1A
:10880400002B01D0089B13E0059B1B78002B0ED096
:10881400BDF84A30039A04990598FFF72AFB139090
:10882400139B0793079B002B01D0079B00E0139B2E
:10883400184615B05DF804FB82B003468DF8073086
:108844009DF90730002B13DB9DF8073003F01F025E
:1088540009499DF907305B09012000FA02F220332F
:1088640041F82320BFF34F8F00BFBFF36F8F00BFCA
:1088740000BF02B0704700BF00E100E0044BD3F832
:108884000034002B14BF01230023DBB218467047C9
:108894000000014008B507F071F8034683F00103B6
:1088A400DBB2002B03D109497B20FDF7D3FDFFF791
:1088B400E5FF034683F00103DBB2002B04D000F094
:1088C40041FB034B00229A7000BF08BD4403030020
:1088D400501A002000B583B000230193184B1B7875
:1088E400002B02D0852301931CE0154B00229A60D3
:1088F400134B00225A60124B00221A61104B0022C3
:10890400DA60104800F0E4FA019007F037F8034603
:1089140083F00103DBB2002B01D000F0FFFA084B17
:1089240001221A70FFF7AAFF0346002B02D0044B62
:1089340001229A70019B184603B05DF804FB00BF46
:10894400501A0020218A020084B00190019B1B6808
:108954000393039B002B03D0039B1A68019B1A60AB
:10896400039B184604B0704700B583B0164B1B78C0
:10897400002B04D1154940F21710FDF76BFD124B83
:10898400DB68002B04D111494FF48C70FDF762FDB4
:1089940000238DF807300DF10703184603F028FF74
:1089A400094BDB68013B084AD360074BDB68002BAB
:1089B40001D1FFF76FFF9DF80730184603F02EFF33
:1089C40000BF03B05DF804FB501A00204403030009
:1089D40000B585B003468DF807309DF80730002BAD
:1089E40002D10C4B039301E00B4B03930398FFF765
:1089F400ABFF0290029B002B06D0029B5B689DF8A4
:108A0400072010469847F1E700BF00BF05B05DF8A6
:108A140004FB00BF581A0020601A002000B583B080
:108A240003468DF807309DF80730002B05D10A4B1B
:108A340001225A700020FFF7CBFF9DF80730012B6D
:108A440005D1054B01229A700120FFF7C1FF00BF39
:108A540003B05DF804FB00BF501A002000B583B0DA
:108A640001900091019B002B05D1054B01225A7006
:108A74000020FFF7ADFF00BF03B05DF804FB00BFAB
:108A8400501A002000B585B0034600918DF80730D8
:108A94009DF80730032B29D0032B35DC002B02D0A3
:108AA400012B04D030E00020FFF7C6FE2DE00023A8
:108AB4008DF80F300DF10F03184603F099FE154B96
:108AC4001B7883F00103DBB2002B01D0FFF702FF18
:108AD400104BDB6801330F4AD3600E4B01229A70AE
:108AE4009DF80F30184603F099FE0EE0094B1B78F1
:108AF400002B04D1084940F25220FDF7ABFC00F0F2
:108B04000DFAFFF731FF00E000BF00BF05B05DF8CC
:108B140004FB00BF501A00204403030000B589B0D1
:108B240001900091009B0793019B1B788DF80C30FA
:108B3400019B5B680493019B9B68DBB28DF8143046
:108B4400019BDB680693074A079B52F823300649CA
:108B5400079A51F8221003AA1046984700BF09B09B
:108B64005DF804FB641A0020681A002000B589B07F
:108B740001900091009B0793019B1B788DF80C30AA
:108B8400019B5B680493019B9B68DBB28DF81430F6
:108B9400019BDB680693074A079B52F8233006497A
:108BA400079A51F8221003AA1046984700BF09B04B
:108BB4005DF804FB641A0020681A002030B58FB0F9
:108BC400039002910192039B1B780C9326490C9B02
:108BD400019A41F82320029B1A6924490C9B41F80D
:108BE4002320029B5B7F1946214A0C9B13440A46AF
:108BF4001A70029B04AC1D460FCD0FC495E80F00FC
:108C040084E80F000C9B089300230D93039B1B78AF
:108C14001A46174B9B5C002B0DD0039B181D019B20
:108C2400002B01D0134A00E0002204AB194602F0E5
:108C3400BFFA0D9014E0039B1B781A460C4B9B5C07
:108C4400002B0DD1039B03F10C00019B002B01D0E1
:108C5400094A00E0002204AB194601F037FC0D90EC
:108C64000D9B18460FB030BD641A0020681A00200E
:108C74006C1A0020218B0200718B020082B0034623
:108C84008DF807309DF90730002B0CDB9DF8073079
:108C940003F01F0205499DF907305B09012000FA22
:108CA40002F241F8232000BF02B0704700E100E067
:108CB40082B0034600918DF807309DF90730002BF0
:108CC4000ADB009BDAB20C499DF907305201D2B29B
:108CD4000B4483F800230BE0009BDAB207499DF8AC
:108CE400073003F00F03043B5201D2B20B441A764F
:108CF40000BF02B0704700BF00E100E000ED00E0FB
:108D040082B00190019B1B0B5BB2184602B0704706
:108D140000B583B003460A468DF8073013468DF834
:108D240006309DF80630012B03D99DF80630032B3D
:108D34000BD99DF80630042B03D99DF80630072B78
:108D440003D908496B20FDF785FB9DF806209DF9A2
:108D5400073011461846FFF7ABFF00BF03B05DF8BC
:108D640004FB00BF7803030000B583B003468DF80D
:108D740007309DF907301846FFF780FF00BF03B0A6
:108D84005DF804FB82B003468DF807300F4A9DF965
:108D94000730002B00DA1F335B115BB252F823203B
:108DA4009DF90730594203F01F0301F01F0158BF1A
:108DB4004B425BB222FA03F303F00103002B14BF0E
:108DC40001230023DBB2184602B0704700E100E043
:108DD40082B001904FF08042019BC2F8083300BF7B
:108DE40002B0704782B003468DF807309DF8073013
:108DF40003F1804301221A6000BF02B0704784B0BF
:108E04000346ADF80630BDF8063003F18043002276
:108E14001A60BDF8063003F180431B680393039B7B
:108E240000BF04B0704782B00346ADF80630BDF809
:108E3400063003F180431B68002B14BF0123002379
:108E4400DBB2184602B0704782B001904FF0804206
:108E5400019BC2F8183500BF02B070474FF0804341
:108E6400D3F818341B0C03F00103002B14BF0123A7
:108E74000023DBB21846704700B583B006238DF893
:108E840007304FF08040FFF73BFF03461846FFF7DB
:108E940079FF034683F00103DBB2002B13D04FF0BC
:108EA4008040FFF72DFF03461A469DF80730194608
:108EB4001046FFF72DFF4FF08040FFF721FF0346D8
:108EC4001846FFF751FF00BF03B05DF804FB000034
:108ED40000B585B00190019B002B03D10D49A4205E
:108EE400FDF7B8FA002303930B4B1B79002B02D038
:108EF4008523039308E0084A019B1360064B012273
:108F04001A71054B00225A71039B184605B05DF88F
:108F140004FB00BFA8030300701A002008B5074B28
:108F24001B79002B03D10649BD20FDF793FAFFF707
:108F3400A3FF0120FFF788FF00BF08BD701A0020BF
:108F4400A803030008B50D4B1B79002B03D10C4972
:108F5400F720FDF77FFA0220FFF73AFF4FF4827003
:108F6400FFF74DFF0C20FFF73DFF00BFFFF776FF33
:108F74000346002BFAD100BF00BF08BD701A0020C1
:108F8400A803030008B54FF48070FFF74CFF0346B5
:108F9400002B14D04FF48070FFF731FF0120FFF74E
:108FA40017FF114B5B7983F00103DBB2002B06D072
:108FB4000D4B01225A710C4B1B68002098474FF44B
:108FC4008270FFF730FF0346002B0AD04FF4827003
:108FD400FFF715FF0220FFF7FBFE034B1B68012080
:108FE400984700BF08BD00BF701A002082B0034636
:108FF4008DF807309DF90730002B0CDB9DF8073006
:1090040003F01F0205499DF907305B09012000FAAE
:1090140002F241F8232000BF02B0704700E100E0F3
:1090240082B0034600918DF807309DF90730002B7C
:109034000ADB009BDAB20C499DF907305201D2B227
:109044000B4483F800230BE0009BDAB207499DF838
:10905400073003F00F03043B5201D2B20B441A76DB
:1090640000BF02B0704700BF00E100E000ED00E087
:1090740082B00190019B1B0B5BB2184602B0704793
:1090840000B583B003460A468DF8073013468DF8C1
:1090940006309DF80630012B03D99DF80630032BCA
:1090A4000BD99DF80630042B03D99DF80630072B05
:1090B40003D908496B20FDF7CDF99DF806209DF9E9
:1090C400073011461846FFF7ABFF00BF03B05DF849
:1090D40004FB00BFDC03030000B583B003468DF836
:1090E40007309DF907301846FFF780FF00BF03B033
:1090F4005DF804FB00B583B00346ADF80630BDF857
:109104000630184600F026F803461B68012B0CBFF6
:1091140001230023DBB2184603B05DF804FB00B55D
:1091240085B00346ADF80630BDF80630184600F0A9
:1091340011F803461A4600231360BDF8063018469A
:1091440000F008F803461B680393039B00BF05B0B7
:109154005DF804FB82B00346ADF80630BDF8063076
:1091640003F1804303F5C043184602B07047000082
:1091740082B00190034A019BC2F8043300BF02B0DD
:10918400704700BF0060004082B00190034BD3F8E9
:109194000423019B1340184602B07047006000404E
:1091A40082B00190084A019B03F5A27352F8233060
:1091B400054943F00102019B03F5A27341F8232002
:1091C40000BF02B0704700BF0060004084B003904D
:1091D400029113468DF80730144A039B03F5A273DA
:1091E40052F82330114923F4473323F44073039A8C
:1091F40002F5A27241F822300C4A039B03F5A273D4
:1092040052F82320029B1B0203F4F8519DF8073007
:109214001B0403F440330B4304491A43039B03F533
:10922400A27341F8232000BF04B0704700600040DF
:1092340082B00190054A019B03F5A27352F82330D2
:109244001B0A03F01F03184602B070470060004079
:1092540082B00190064A019B03F5A27352F82330B1
:109264001B0C03F00303DBB2184602B0704700BFC7
:109274000060004000B583B00190019B1B68184654
:1092840000F014F90346002B04D105494FF4F6709D
:10929400FDF7E0F84FF0A043184603B05DF804FB77
:1092A4000404030000B585B00190084611461A462F
:1092B40003468DF803300B468DF8023013468DF8C3
:1092C400013001AB1846FFF7D5FF03909DF803204A
:1092D4009DF802305B001A439DF801309B001A434D
:1092E4009DF818301B0242EA03019DF81C301B0450
:1092F400019A1943039B02F5E07243F8221000BF60
:1093040005B05DF804FB00B585B003900B468DF8FD
:109314000B309DF80B3000220192002200920022B3
:1093240000210398FFF7BEFF00BF05B05DF804FB02
:1093340000B585B0019001AB1846FFF79BFF039081
:10934400019A039B02F5E07253F8223023F00203E2
:109354000293019A039B02F5E072029943F82210EA
:1093640000BF05B05DF804FB00B585B001900B4665
:109374008DF8033001AB1846FFF77CFF0390019A88
:10938400039B02F5E07253F82230019A23F4403132
:10939400039B02F5E07243F82210019A039B02F545
:1093A400E07253F822109DF803301B04019A19430C
:1093B400039B02F5E07243F8221000BF05B05DF88C
:1093C40004FB00B585B0019001AB1846FFF752FFCE
:1093D4000390039800F020F80246019B22FA03F35D
:1093E40003F00103184605B05DF804FB00B585B031
:1093F400019001AB1846FFF73DFF0390019A039BD0
:1094040002F5E07253F822301B0C03F00303DBB2C5
:10941400184605B05DF804FB82B00190019BD3F8B7
:109424001035184602B0704786B00390029101923D
:109434004FF0A0430493039B059319E0059B9B0005
:1094440018336B4453F8083CD3F82025019B1A6069
:10945400059B9B0018336B4453F8083C019A12682F
:10946400C3F82025019B04330193059B0133059325
:10947400039A029B1344059A9A42DFD300BF00BFAC
:1094840006B0704700B585B0019001AB1846FFF7F0
:10949400F1FE0390019B012202FA03F31A46039B97
:1094A400C3F8202500BF05B05DF804FB84B001902B
:1094B400019B5B09029300230393029B002B03D1BE
:1094C4004FF0FF33039300BF019B03F01F0301938D
:1094D400039A019B22FA03F303F00103002B14BF48
:1094E40001230023DBB2184604B0704784B0019016
:1094F4000091009B0393019BDB080293019B03F003
:10950400070301930122019B02FA03F30399029AD0
:109514000A4412781340184604B0704784B001908E
:109524000091009B0393019BDB080293019B03F0D2
:1095340007030193039A029B13441B785AB2012137
:10954400019B01FA03F35BB2134359B2039A029BE2
:109554001344CAB21A7000BF04B0704782B00190BD
:109564000C4A019B1344303393F90030002B09DB80
:10957400084A019B1344303393F90030072B01DC74
:10958400012300E0002303F00103DBB2184602B01C
:10959400704700BF781A002082B00190064A019BF0
:1095A4001344303393F90030072BCCBF012300233D
:1095B400DBB2184602B07047781A002082B00190DE
:1095C400064A019B1344303393F90030DB43DBB28A
:1095D400DB09DBB2184602B0704700BF781A0020DE
:1095E40084B00390029101928DF80330029B59B22A
:1095F4000E4A039B134430330A461A700B49029BEC
:10960400019A41F823209DF8033083F00103DBB273
:10961400002B08D0029B083B039A51B2034A13441F
:109624000A4683F8502000BF04B07047781A00201F
:1096340082B00190044A019B13443033FF221A7014
:1096440000BF02B0704700BF781A002000B583B095
:10965400019004490198FFF761FF00BF03B05DF872
:1096640004FB00BFCC1A002082B00190044A019B85
:109674001344303393F90030184602B0704700BFEA
:10968400781A002082B00190034A019B52F82330DB
:10969400184602B0704700BF781A002084B00190C9
:1096A400074A019B1344503393F900308DF80F306F
:1096B4009DF80F3023F0C003184604B0704700BF74
:1096C400781A002084B00190074A019B1344503358
:1096D40093F900308DF80F309DF80F309B09DBB201
:1096E400184604B0704700BF781A002000B589B04E
:1096F4000390029113468DF80730FF238DF81F3035
:109704009DF80730002B01D0002300E008230593C7
:109714009DF80730002B01D0082300E00C230493AC
:10972400059B069314E00F4A069B52F82330B3F1CD
:10973400FF3F0AD19DF80730029A06990398FFF774
:109744004FFF069B8DF81F3006E0069B01330693FE
:10975400069A049B9A42E6D39DF91F30184609B035
:109764005DF804FB781A002082B003468DF80730B8
:109774009DF80730094A4FF0FF3142F823109DF855
:109784000730072B07D99DF80730083B034A1344D9
:10979400FF2283F8502000BF02B07047781A0020DF
:1097A40000B583B02D4B93F85830002B03D0082319
:1097B4000093009B4EE000238DF8073011E09DF8E4
:1097C40007301846FFF772FE0346002B04D09DF8BD
:1097D40007301846FFF72CFF9DF8073001338DF84A
:1097E40007309DF807301F2BE9D900238DF8073087
:1097F40009E09DF807301846FFF7B6FF9DF80730DB
:1098040001338DF807309DF807300B2BF1D9042272
:109814000021134806F064FC1248FFF729FC0346B4
:1098240006211846FFF72CFC0E48FFF721FC0346DF
:109834001846FFF751FC4FF4BE70FFF770FC4FF071
:109844000040FFF795FC054B012283F858200023C4
:109854000093009B184603B05DF804FB781A0020BF
:10986400CC1A002000600040044B93F85830002BC1
:1098740014BF01230023DBB218467047781A002076
:1098840000B587B00390029101920398FFF70EFE92
:109894000346002B04D136494FF40C70FCF7DAFD73
:1098A400002305930398FFF789FE0346002B02D09B
:1098B4000823059357E0029B9B78C3F34003DBB274
:1098C4001A4601990398FFF711FF03468DF81330E8
:1098D4009DF91330B3F1FF3F43D0029B9B78C3F350
:1098E4008003DBB283F00103DBB2002B13D0029BB5
:1098F4009B7803F00103DBB2002B03D00398FFF73E
:1099040017FD05E0029B5B7819460398FFF7FBFC03
:109914000398FFF79BFE029B9B7803F00203DBB2E4
:10992400002B08D09DF91300029B1B781A4603995B
:10993400FFF74CFC17E09DF91330083B0D4A134424
:1099440093F95010029B1B789B015AB29DF9133076
:10995400083B0A4351B2074A13440A4683F850208D
:1099640001E004230593059B184607B05DF804FB4A
:1099740034040300781A002000B589B001900B4626
:109984008DF803300198FFF791FD0346002B04D1B5
:109994003A494FF41870FCF75DFD0198FFF70EFE8D
:1099A4000346002B04D1354940F26120FCF752FDF7
:1099B4000198FFF7F1FD0346002B2AD00198FFF729
:1099C40053FE0346083B1846FFF77CFE03468DF81A
:1099D4000F309DF80F30032B0BD10198FFF7F1FCEA
:1099E4000346002B01D0032300E002238DF81F302F
:1099F40008E09DF80F30012B01D1022300E003237E
:109A04008DF81F309DF81F3019460198FFF7ACFC04
:109A140030E00198FFF7A2FD0346002B2AD00198FD
:109A2400FFF722FE03460693069B9BB240339BB28C
:109A34009B00ADF81630069B1846FFF7B1FBBDF846
:109A440016301846FFF76BFB9DF80330002B11D03E
:109A54000198FFF709FE03461846FFF713FE04902A
:109A6400049B002B06D00122069B02FA03F318463E
:109A7400FFF77EFB00BF09B05DF804FB340403006C
:109A840000B583B001900198FFF710FD0346002B49
:109A940004D1094940F2B220FCF7DCFC0198FFF73D
:109AA40090FC0346002B14BF01230023DBB21846AD
:109AB40003B05DF804FB00BF3404030000B585B0B7
:109AC4000190019A01210020FFF7AEFC00230393CB
:109AD4000BE0039B9B00019A13441B68002B01D0ED
:109AE400012306E0039B01330393039B002BF0D077
:109AF4000023184605B05DF804FB000000B587B0EC
:109B04000190002305935BE0344A059B13445033D2
:109B140093F90030B3F1FF3F4ED00598FFF7BEFD37
:109B2400049001990498FFF7E1FC0346002B44D00C
:109B34000598FFF7C7FD03468DF80F300498FFF72B
:109B440055FC03468DF80E309DF80E30022B01D1E2
:109B5400032300E002238DF80D309DF80D301946E3
:109B64000498FFF701FC0498FFF78CFC0498FFF7B6
:109B74007BFD03461846FFF785FD0290029B002BF0
:109B84001BD09DF80F30032B0FD09DF80E30022B05
:109B940003D19DF80F30012B07D09DF80E30032B15
:109BA4000BD19DF80F30022B07D19DF80F20029B9B
:109BB40011460498984700E000BF059B01330593C4
:109BC400059B032BA0D90198FFF778FF0346002BD0
:109BD40097D100BF00BF07B05DF804FB781A0020DE
:109BE40000B589B000230693002300934FF48073DB
:109BF400ADF81230012307930023059321E0BDF84B
:109C040012301846FFF776FA0346002B0ED0079859
:109C1400FFF7BAFA0346002B08D0BDF812301846F5
:109C2400FFF77DFA069A079B13430693079B5B0095
:109C34000793BDF812300433ADF81230059B01339D
:109C44000593059B072BDAD94FF4BE70FFF752FA40
:109C54000346002B0DD04FF4BE70FFF760FA069B4D
:109C640043F0004306936B461A4601210020FFF798
:109C7400DBFB069BDBB2002B29D0012307930023D7
:109C8400059321E0079A069B1340002B16D00598F4
:109C9400FFF7CEFA03900598FFF7DAFA03468DF83A
:109CA4000B300598FFF7EEFC0190019B002B05D0CB
:109CB4009DF80B20019B114603989847079B5B0076
:109CC4000793059B01330593059B072BDAD9069B64
:109CD400002B03DA6B461846FFF710FF00BF09B0EC
:109CE4005DF804FB08B5064B1B68002B03D105493E
:109CF4005120FCF7AFFB024B1B68984708BD00BF1F
:109D0400D41A00206C04030082B00190019B044A21
:109D1400934201D1034B00E00023184602B0704780
:109D240000200040D41A002000B587B001900091B3
:109D3400019B002B03D11C497720FCF78BFB019876
:109D4400FFF7E2FF0590059B002B25D000238DF83B
:109D5400133000238DF80B300DF10B03184602F07D
:109D640047FD059B1B79002B03D001238DF813308D
:109D740005E0059B009A1A60059B01221A719DF863
:109D84000B30184602F04AFD9DF81330002B03D027
:109D940011230393039B02E000230393039B1846C0
:109DA40007B05DF804FB00BF6C04030000B585B088
:109DB4000190019B002B03D10A499B20FCF74AFB2D
:109DC4000198FFF7A1FF0390039B002B05D0039B91
:109DD40000221A60039B00221A7100BF05B05DF8CF
:109DE40004FB00BF6C04030082B003468DF8073007
:109DF4009DF90730002B0CDB9DF8073003F01F02A0
:109E040005499DF907305B09012000FA02F241F887
:109E1400232000BF02B0704700E100E082B0034697
:109E24008DF807309DF90730002B13DB9DF80730C0
:109E340003F01F0209499DF907305B09012000FA6C
:109E440002F2203341F82320BFF34F8F00BFBFF34A
:109E54006F8F00BF00BF02B0704700BF00E100E099
:109E640082B0034600918DF807309DF90730002B2E
:109E74000ADB009BDAB20C499DF907305201D2B2D9
:109E84000B4483F800230BE0009BDAB207499DF8EA
:109E9400073003F00F03043B5201D2B20B441A768D
:109EA40000BF02B0704700BF00E100E000ED00E039
:109EB40082B00190019B1B0B5BB2184602B0704745
:109EC40000B583B003460A468DF8073013468DF873
:109ED40006309DF80630012B03D99DF80630032B7C
:109EE4000BD99DF80630042B03D99DF80630072BB7
:109EF40003D908496B20FCF7ADFA9DF806209DF9BB
:109F0400073011461846FFF7ABFF00BF03B05DF8FA
:109F140004FB00BFA004030000B583B003468DF822
:109F240007309DF907301846FFF75EFF00BF03B006
:109F34005DF804FB00B583B003468DF807309DF946
:109F440007301846FFF76AFF00BF03B05DF804FB53
:109F540084B001900B46ADF80230BDF80230019A8E
:109F6400134400221A60BDF80230019A13441B689E
:109F74000393039B00BF04B0704782B001900B466B
:109F8400ADF80230BDF80230019A13441B68002B6F
:109F940014BF01230023DBB2184602B0704782B01D
:109FA40001900091019B009AC3F8042300BF02B002
:109FB400704782B001900091019BD3F80423009B69
:109FC4001340002B14BF01230023DBB2184602B058
:109FD400704782B001900091019B009AC3F8082356
:109FE40000BF02B0704784B00190019BD3F8803465
:109FF4000393019B039AC3F88024039B184604B07F
:10A00400704782B00190019B0422C3F8002500BF71
:10A0140002B0704782B00190019B0022C3F8002572
:10A0240000BF02B0704784B0039002910192039B79
:10A03400019AC3F81425039B029AC3F80C2500BFA8
:10A0440004B0704700B583B001904FF0FF324FF079
:10A05400FF310198FFF7E7FF00BF03B05DF804FB91
:10A0640082B00190019BD3F80C35184602B07047BA
:10A0740082B00190019BD3F81435184602B07047A2
:10A0840082B00190019BD3F80835184602B070479E
:10A0940082B00190019BD3F81035184602B0704786
:10A0A40084B0039002910192039B029AC3F808259D
:10A0B400039B019AC3F8102500BF04B0704700B594
:10A0C40083B001904FF0FF324FF0FF310198FFF75A
:10A0D400E7FF00BF03B05DF804FB82B00190019B71
:10A0E400D3F81835DBB2184602B0704782B001903D
:10A0F4000B468DF803309DF80320019BC3F81C2503
:10A1040000BF02B0704782B001900B468DF8033057
:10A114009DF80330019A134401221A6000BF02B073
:10A12400704782B001900B468DF8033013468DF8CA
:10A1340002309DF803209DF802301343DBB21A4627
:10A14400019BC3F86C2500BF02B0704782B0019038
:10A154000091019B009AC3F8242500BF02B0704708
:10A1640000B583B00190019B1B68184600F096F877
:10A174000346002B04D105494FF4F670FCF76AF945
:10A184004FF0A043184603B05DF804FBC804030075
:10A1940000B585B00190084611461A4603468DF86D
:10A1A40003300B468DF8023013468DF8013001ABB5
:10A1B4001846FFF7D5FF03909DF803209DF8023061
:10A1C4005B001A439DF801309B001A439DF8183038
:10A1D4001B0242EA03019DF81C301B04019A194337
:10A1E400039B02F5E07243F8221000BF05B05DF84E
:10A1F40004FB00B585B00390002301930023009372
:10A204000023012201210398FFF7C2FF00BF05B01C
:10A214005DF804FB00B585B003900B468DF80B3058
:10A224009DF80B30002201920022009200220021AE
:10A234000398FFF7ADFF00BF05B05DF804FB00B560
:10A2440085B003900023019300230093002301228F
:10A2540000210398FFF79CFF00BF05B05DF804FBE5
:10A2640000B585B0019001AB1846FFF779FF039064
:10A27400019B012202FA03F31946039800F004F843
:10A2840000BF05B05DF804FB82B001900091019B12
:10A29400009AC3F8082500BF02B0704784B001904B
:10A2A400019B5B09029300230393029B002B03D1C0
:10A2B4004FF0FF33039300BF019B03F01F0301938F
:10A2C400039A019B22FA03F303F00103002B14BF4A
:10A2D40001230023DBB2184604B0704700B583B0F5
:10A2E40001900091009B1B68B3F1FF3F09D0009BD4
:10A2F4001B681846FFF7B4FF009B1B681846FFF75E
:10A3040078FF009B5B68B3F1FF3F05D0009B5B685F
:10A3140000211846FFF77EFF019B1A68009B9B698A
:10A3240019461046FFF712FF019B1868009B597DE0
:10A33400009B1B7D1A46FFF7F4FE019B1868009BE7
:10A344001968009B5B681A46FFF76DFE009B1B7D36
:10A35400012B22D1009B9B68B3F1FF3F05D0009BEA
:10A364009B6800211846FFF755FF009BDB68B3F19B
:10A37400FF3F09D0009BDB681846FFF771FF009B85
:10A38400DB681846FFF735FF019B1868009BD96806
:10A39400009B9B681A46FFF783FE00BF03B05DF87D
:10A3A40004FB000000B583B001900B468DF8033028
:10A3B400019B1B684FF48E711846FFF7C9FD019B82
:10A3C4001B684FF4A2711846FFF7C2FD019B1B687E
:10A3D4000E491846FFF7E3FD019B1B681846FFF77B
:10A3E40067FD03461A469DF8033019461046FFF7E9
:10A3F40067FD019B1B681846FFF75AFD0346184684
:10A40400FFF78AFD00BF03B05DF804FB8000020083
:10A4140000B583B00190019B1B6808491846FFF7FB
:10A42400D8FD019B1B681846FFF742FD03461846FA
:10A43400FFF780FD00BF03B05DF804FB8402020057
:10A4440000B587B00190019B1B681846FFF708FE12
:10A454000590019B1B681846FFF70AFE0490019BB8
:10A464001B681846FFF70CFE0390019B1B681846F7
:10A47400FFF70EFE0290019B1B681846FFF7E2FDF2
:10A48400019B1B681846FFF71AFE059BB3F1FF3FBB
:10A4940002D00598FFF7D3FE049BB3F1FF3F02D02F
:10A4A4000498FFF7CCFE029BB3F1FF3F02D0029861
:10A4B400FFF7C5FE039BB3F1FF3F02D00398FFF7FC
:10A4C400BEFE00BF07B05DF804FB000000B587B016
:10A4D400039002910192029B002B03D12D49AA20E3
:10A4E400FBF7B8FF039B1B791A462C2302FB03F3EB
:10A4F400294A1344049300230593049B93F82A30B8
:10A50400002B03D008230593059B3EE0039B1A68A8
:10A51400039B1B791946214B53F8213019461046E9
:10A52400FFF702FC0346002B03D011230593059B80
:10A534002BE002990398FFF7D1FE049B019A5A601D
:10A54400029B1A69049B1A60049B5B68002B05D06C
:10A55400029B1B7F19460398FFF724FF039B1B688C
:10A564001846FFF74EFD049B00229A61049B0022CB
:10A57400DA61049B002283F82920049B00225A619B
:10A58400049B012283F82A20059B184607B05DF836
:10A5940004FB00BFF8040300DC1A002028050300B4
:10A5A40000B585B00190019B1B791A462C2302FB50
:10A5B40003F3114A13440393019B1B681846FFF7E6
:10A5C40029FD039B5B68002B02D00198FFF720FF55
:10A5D4000198FFF735FF019B1B681846FFF7E6FB60
:10A5E400039B002283F82A20039B00225A6000BFA9
:10A5F40005B05DF804FB00BFDC1A002000B585B08F
:10A60400019000914FF48E710198FFF7A1FC009B1B
:10A614009A68009B1B6A13441B788DF80F30009BCB
:10A624001B6A5A1C009B1A629DF80F301946019848
:10A63400FFF75CFD00BF05B05DF804FB00B585B015
:10A6440001900091009B5B69039316E0009B93F8D3
:10A654002830DBB2002B01D0002314E04FF48E71BC
:10A664000198FFF78AFC034683F00103DBB2002B59
:10A67400ECD100990198FFF7C1FF009B1B6A039A74
:10A684009A42EBD80123184605B05DF804FB00009C
:10A6940000B587B0039002910192039B1B791A467F
:10A6A4002C2302FB03F33C4A13440493049B93F8C6
:10A6B4002A30012B04D039494FF48C70FBF7CAFEC1
:10A6C400029B002B04D1354940F21910FBF7C2FE5E
:10A6D400019B002B04D131494FF48D70FBF7BAFE76
:10A6E400039800F05DF80346002B03D01123059373
:10A6F400059B4CE0049B019A5A61049B029A9A6060
:10A70400049B00221A62049B002283F82820002361
:10A714000593039B1B684FF48E711846FFF718FCD2
:10A72400039B1B6808211846FFF7EDFC039B1B687D
:10A7340004991846FFF762FF049B5B68002B25D140
:10A74400039B1B6804991846FFF778FF034683F0C0
:10A754000103DBB2002B02D00F23059313E000BFEB
:10A76400039B1B684FF48E711846FFF706FC0346E3
:10A7740083F00103DBB2002BF2D1039B1B680C2195
:10A784001846FFF7C0FC049B00225A61059B18463B
:10A7940007B05DF804FB00BFDC1A0020F8040300D6
:10A7A40082B00190019B1B791946074A2C2301FBB7
:10A7B40003F3134414331B68002B14BF0123002339
:10A7C400DBB2184602B07047DC1A002010B582B024
:10A7D40001900091009B9B69002B08D14FF4847178
:10A7E4000198FFF7B5FB0198FFF777FC13E04FF4EE
:10A7F40084710198FFF7ACFB009BDA68009B5B6AED
:10A80400D4180198FFF769FC03462370009B5B6A28
:10A814005A1C009B5A6202B010BD00B589B0039067
:10A824000291019201238DF81030029B0693019B43
:10A834000593039B5B68039A116804AA1046984722
:10A8440000BF09B05DF804FB00B587B0019000912A
:10A8540000238DF80830009B0493019B9B680393AD
:10A86400019B00225A61019B5B68019A116802AA4C
:10A874001046984700BF07B05DF804FB00B58BB0E5
:10A88400019000914FF400710198FFF792FB034689
:10A89400002B39D04FF492710198FFF76EFB0346F9
:10A8A400002B31D04FF492710198FFF751FB4FF414
:10A8B40001710198FFF78DFB009B93F8293083F019
:10A8C4000103DBB2002B03D004210198FFF71BFC2A
:10A8D40002238DF80C300198FFF785FB034606939D
:10A8E400009B9B690593009BDB680493009B0022FB
:10A8F4009A61009B0022DA61009B5B68009A1168F0
:10A9040003AA1046984752E004210198FFF751FB2F
:10A914000346002B4BD04FF484710198FFF72DFBB5
:10A924000346002B43D000990198FFF74FFF009B8B
:10A934009A69009B5B6A9A4239D1009BDB69002BC0
:10A9440019D0009BDB680993009B5B6A0893009B0A
:10A95400DA69009B9A61009B1A69009BDA60009B8C
:10A964000022DA61009B00225A62099A0899009831
:10A97400FFF753FF1BE0009B93F8293083F001039A
:10A98400DBB2002B03D004210198FFF7BCFB4FF48A
:10A9940001710198FFF71DFB009B00229A61009B47
:10A9A400596A009BDB681A460098FFF736FF4FF49C
:10A9B4008E710198FFF7E1FA0346002B24D0009B27
:10A9C4005B690793009B1B6A079A9A420DD9009B07
:10A9D40093F82830DBB283F00103DBB2002B04D000
:10A9E40000990198FFF70AFE0EE04FF48E7101986A
:10A9F400FFF7AEFA009B5B69002B05D0009B5B69F7
:10AA040019460098FFF720FF4FF4A2710198FFF751
:10AA1400B4FA0346002B1CD04FF4A2710198FFF73F
:10AA240097FA009B93F82930002B03D0002101985A
:10AA3400FFF769FB009B9B69002B0AD0009B002257
:10AA44009A61009B596A009BDB681A460098FFF7DD
:10AA5400E4FE00BF0BB05DF804FB000008B5034939
:10AA64000348FFF70BFF00BF08BD00BFDC1A00203E
:10AA74000020004082B003468DF807309DF907306E
:10AA8400002B0CDB9DF8073003F01F0205499DF9EC
:10AA940007305B09012000FA02F241F8232000BFCD
:10AAA40002B0704700E100E082B003468DF8073041
:10AAB4009DF90730002B13DB9DF8073003F01F02CC
:10AAC40009499DF907305B09012000FA02F220339D
:10AAD40041F82320BFF34F8F00BFBFF36F8F00BF38
:10AAE40000BF02B0704700BF00E100E082B003463F
:10AAF40000918DF807309DF90730002B0ADB009B8D
:10AB0400DAB20C499DF907305201D2B20B4483F8F2
:10AB140000230BE0009BDAB207499DF8073003F0ED
:10AB24000F03043B5201D2B20B441A7600BF02B0A9
:10AB3400704700BF00E100E000ED00E082B001904A
:10AB4400019B03F06043B3F1005F0CBF01230023BA
:10AB5400DBB2184602B0704782B00190019B1B0B18
:10AB64005BB2184602B0704700B583B003460A468C
:10AB74008DF8073013468DF806309DF80630012B0A
:10AB840003D99DF80630032B0BD99DF80630042B0E
:10AB940003D99DF80630072B03D908496B20FBF72E
:10ABA40059FC9DF806209DF9073011461846FFF719
:10ABB4009DFF00BF03B05DF804FB00BF2C0503003C
:10ABC40000B583B003468DF807309DF90730184669
:10ABD400FFF750FF00BF03B05DF804FB00B583B07E
:10ABE40003468DF807309DF907301846FFF75CFFE0
:10ABF40000BF03B05DF804FB84B001900B46ADF8D0
:10AC04000230BDF80230019A134400221A60BDF8E4
:10AC14000230019A13441B680393039B00BF04B0E2
:10AC2400704782B001900B46ADF80230BDF8023097
:10AC3400019A13441B68002B14BF01230023DBB2C9
:10AC4400184602B0704782B001900091019BD3F87E
:10AC54000022009BDB431A40019BC3F8002200BF83
:10AC640002B0704782B001900091019B009AC3F832
:10AC7400042300BF02B0704782B001900091019B91
:10AC8400009AC3F8082300BF02B0704784B0019053
:10AC9400019BD3F880340393019B039AC3F8802467
:10ACA400039B184604B0704782B00190019B0822B0
:10ACB400C3F8002500BF02B0704782B00190019B29
:10ACC4000022C3F8002500BF02B0704784B003908F
:10ACD40002910192039B029AC3F80C25039B019AEB
:10ACE400C3F8142500BF04B0704700B583B00190C9
:10ACF4004FF0FF324FF0FF310198FFF7E7FF00BF3D
:10AD040003B05DF804FB82B00190019BD3F80C35CD
:10AD1400184602B0704782B00190019BD3F81435F5
:10AD2400184602B0704782B00190019BD3F80835F1
:10AD3400184602B0704782B00190019BD3F81035D9
:10AD4400184602B0704784B0039002910192039BAD
:10AD5400029AC3F80825039B019AC3F8102500BF83
:10AD640004B0704700B583B001904FF0FF324FF04C
:10AD7400FF310198FFF7E7FF00BF03B05DF804FB64
:10AD840082B001900B468DF803309DF80330019A90
:10AD9400134401221A6000BF02B0704782B00190D0
:10ADA4000B468DF8033013468DF802309DF80320CE
:10ADB4009DF802301343DBB21A46019BC3F86C259D
:10ADC40000BF02B0704782B001900091019B009ACD
:10ADD400C3F8242500BF02B0704784B003900291E9
:10ADE4000192029A039BC3F84425039B019AC3F87A
:10ADF400482500BF04B0704782B00190019BD3F88E
:10AE04004C35184602B0704782B00190019BD3F8CC
:10AE14003C35184602B0704700B583B00190019BE1
:10AE24001B68184600F096F80346002B04D1054928
:10AE34004FF4F670FBF70EFB4FF0A043184603B037
:10AE44005DF804FB5405030000B585B00190084685
:10AE540011461A4603468DF803300B468DF802302E
:10AE640013468DF8013001AB1846FFF7D5FF039068
:10AE74009DF803209DF802305B001A439DF80130D1
:10AE84009B001A439DF818301B0242EA03019DF807
:10AE94001C301B04019A1943039B02F5E07243F82A
:10AEA400221000BF05B05DF804FB00B585B0039027
:10AEB400002301930023009300230122012103981E
:10AEC400FFF7C2FF00BF05B05DF804FB00B585B015
:10AED40003900B468DF80B309DF80B300022019245
:10AEE40000220092002200210398FFF7ADFF00BF6B
:10AEF40005B05DF804FB00B585B003900023019311
:10AF0400002300930023012200210398FFF79CFFF4
:10AF140000BF05B05DF804FB00B585B0019001AB3E
:10AF24001846FFF779FF0390019B012202FA03F30D
:10AF34001946039800F004F800BF05B05DF804FB5F
:10AF440082B001900091019B009AC3F8082500BFCC
:10AF540002B0704784B00190019B5B090293002307
:10AF64000393029B002B03D14FF0FF33039300BFE5
:10AF7400019B03F01F030193039A019B22FA03F33D
:10AF840003F00103002B14BF01230023DBB2184696
:10AF940004B0704700B583B001900091009B1B681A
:10AFA400B3F1FF3F09D0009B1B681846FFF7B4FFBD
:10AFB400009B1B681846FFF778FF009B5B68B3F1A2
:10AFC400FF3F05D0009B5B6800211846FFF77EFF1A
:10AFD400019B1A68009B9B6919461046FFF7F3FE14
:10AFE400019B1868009B597D009B1B7D1A46FFF747
:10AFF400D5FE019B1868009B1968009B5B681A4684
:10B00400FFF764FE009B1B7D012B22D1009B9B68F4
:10B01400B3F1FF3F05D0009B9B6800211846FFF762
:10B0240055FF009BDB68B3F1FF3F09D0009BDB6851
:10B034001846FFF771FF009BDB681846FFF735FFE2
:10B04400019B1868009BD968009B9B681A46FFF710
:10B054007AFE00BF03B05DF804FB000000B583B0C6
:10B0640001900B468DF80330019B1B684FF48871E7
:10B074001846FFF7C1FD019B1B684FF490711846F9
:10B08400FFF7BAFD019B1B684FF492711846FFF756
:10B09400B3FD019B1B684FF4A2711846FFF7ACFD8A
:10B0A400019B1B684FF4AC711846FFF7A5FD019B8B
:10B0B4001B680F491846FFF7D5FD019B1B6818460E
:10B0C400FFF74AFD03461A469DF803301946104619
:10B0D400FFF74AFD019B1B681846FFF73DFD034639
:10B0E4001846FFF76DFD00BF03B05DF804FB00BF19
:10B0F4001003420000B583B00190019B1B6808490E
:10B104001846FFF7B9FD019B1B681846FFF724FD9D
:10B1140003461846FFF762FD00BF03B05DF804FB69
:10B124001003420000B587B00190019B1B681846CC
:10B13400FFF7E9FD0590019B1B681846FFF7EBFD3F
:10B144000490019B1B681846FFF7EDFD0390019BDB
:10B154001B681846FFF7EFFD0290019B1B68184619
:10B16400FFF7C3FD019B1B681846FFF7FBFD059B1A
:10B17400B3F1FF3F02D00598FFF7BDFE049BB3F186
:10B18400FF3F02D00498FFF7B6FE029BB3F1FF3FE6
:10B1940002D00298FFF7AFFE039BB3F1FF3F02D04A
:10B1A4000398FFF7A8FE00BF07B05DF804FB00009A
:10B1B40000B587B0039002910192029B002B03D14A
:10B1C4002B49CF20FBF746F9039B1B791A461346FC
:10B1D400DB0013449B00274A134404930023059384
:10B1E400049B93F82030002B03D008230593059B80
:10B1F4003AE0039B1A68039B1B7919461E4B53F8CC
:10B20400213019461046FEF78FFD0346002B03D06C
:10B2140011230593059B27E002990398FFF7BAFED3
:10B22400049B019A5A60029B1A69049B1A60049B4E
:10B234005B68002B05D0029B1B7F19460398FFF720
:10B244000DFF039B1B681846FFF72EFD049B00228D
:10B254009A61049B0022DA61049B00225A61049BD8
:10B26400012283F82020059B184607B05DF804FBF3
:10B2740084050300081B0020B805030000B585B051
:10B284000190019B1B791A461346DB0013449B0073
:10B294002A4A13440393019B1B680293039B5B6834
:10B2A400002B02D00198FFF725FF20210298FFF719
:10B2B400CAFC039B9B69002B08D04FF4A27102982F
:10B2C400FFF79AFC04210298FFF75AFD4FF4AC7182
:10B2D4000298FFF791FC0C210298FFF751FD00BF83
:10B2E4004FF4AC710298FFF79CFC034683F0010312
:10B2F400DBB2002BF4D1039B9B69002B0AD04FF4E3
:10B30400A2710298FFF78DFC034683F00103DBB2C0
:10B31400002BE5D10298FFF7D0FC0198FFF702FF5C
:10B324000298FEF743FD039B002283F82020039B31
:10B3340000225A6000BF05B05DF804FB081B002022
:10B3440000B589B0039002910192039B1B791A46C0
:10B354001346DB0013449B00564A13440593059B94
:10B3640093F82030012B04D0534940F25310FBF7DB
:10B3740071F8029B002B04D14F494FF4AA70FBF7DC
:10B3840069F8019B002B04D14B4940F25510FBF79F
:10B3940061F8039B1B79002B02D1019BFF2B04D97D
:10B3A40045494FF4AB70FBF755F80298FFF7C6FB1D
:10B3B400034683F00103DBB2002B03D01023079371
:10B3C400079B73E0039800F079F80346002B03D041
:10B3D40011230793079B69E0059B019A5A61059B1A
:10B3E400029A9A6000230793039B1B684FF49071A1
:10B3F4001846FFF701FC039B1B684FF4AC71184619
:10B40400FFF7FAFB039B1868059B9968059B5B692A
:10B414001A46FFF7E2FC039B1B6808211846FFF756
:10B42400AFFC059B5B68002B3FD1039B1B684FF46B
:10B4340090711846FFF7F5FB03468DF81B30039B0C
:10B444001B684FF4AC711846FFF7EBFB03468DF80D
:10B454001A309DF81B3083F00103DBB2002B06D0B9
:10B464009DF81A3083F00103DBB2002BDDD19DF887
:10B474001A30002B02D00F23079313E0039B1B68A1
:10B484000C211846FFF77CFC00BF039B1B684FF49C
:10B49400AC711846FFF7C5FB034683F00103DBB22A
:10B4A400002BF2D1059B00225A61079B184609B074
:10B4B4005DF804FB081B00208405030082B00190A2
:10B4C400019B1B791946084A0B46DB000B449B0081
:10B4D400134414331B68002B14BF01230023DBB275
:10B4E400184602B0704700BF081B002000B589B0A1
:10B4F40003900291019201238DF81030029B069370
:10B50400019B0593039B5B68039A116804AA104688
:10B51400984700BF09B05DF804FB00B587B00190FF
:10B52400009100238DF80830009B0493019B9B68D5
:10B534000393019B00225A61019B5B68019A116885
:10B5440002AA1046984700BF07B05DF804FB00B597
:10B5540089B0019000914FF492710198FFF761FB5B
:10B564000346002B22D04FF492710198FFF744FB5D
:10B5740002238DF808300198FFF788FB03460593F2
:10B584000198FFF741FC03460493009BDB68039397
:10B59400009B00229A61009B0022DA61009B5B6899
:10B5A400009A116802AA104698473BE04FF488714C
:10B5B4000198FFF736FB0346002B33D04FF4887114
:10B5C4000198FFF719FB0198FFF71EFC0790009BF9
:10B5D4009B69079A9A4225D1009BDB69002B17D0FF
:10B5E400009BDB68069320210198FFF72CFB009B4E
:10B5F400DA69009B9A61009B1A69009BDA60009BE0
:10B604000022DA61069A07990098FFF76FFF09E0B4
:10B61400009B00229A61009BDB681A4607990098F8
:10B62400FFF764FF4FF4A2710198FFF7FAFA03469B
:10B63400002B18D04FF4A2710198FFF7DDFA009B9C
:10B644009B69002B0FD0009B00229A61009B002273
:10B65400DA610198FFF7D8FB0146009BDB681A46C4
:10B664000098FFF743FF4FF490710198FFF7D9FA60
:10B674000346002B14D04FF490710198FFF7BCFAE5
:10B684000C210198FFF77CFB009B5B69002B07D022
:10B694000198FFF7B1FB034619460098FFF73DFFF9
:10B6A4004FF4AC710198FFF7BCFA0346002B10D09D
:10B6B4004FF4AC710198FFF79FFA009B5B69002B74
:10B6C40007D00198FFF798FB034619460098FFF747
:10B6D40024FF00BF09B05DF804FB000008B503496E
:10B6E4000348FFF734FF00BF08BD00BF081B00205C
:10B6F4000020004084B003468DF807309DF80730E1
:10B704005B08DBB21A460D4B9B5C8DF80F309DF83D
:10B71400073003F00103002B04D09DF80F301B0900
:10B72400DBB204E09DF80F3003F00F03DBB28DF8B9
:10B734000E309DF80E30184604B07047401B0020B0
:10B7440084B003460A468DF8073013468DF8063058
:10B754009DF8073003F00103002B01D00F2300E014
:10B76400F0238DF80F309DF8073003F00103002B10
:10B7740004D09DF806301B01DBB201E09DF80630D1
:10B784008DF80E309DF807305B08DBB21A46114B7A
:10B794009A5C9DF807305B08DBB219469DF80F30C0
:10B7A4001340DAB20B4B5A549DF807305B08DBB2F6
:10B7B4001A46084B9A5C9DF807305B08DBB21946C1
:10B7C4009DF80E301343DAB2024B5A5400BF04B052
:10B7D400704700BF401B002000B585B003468DF8BC
:10B7E40007300023039310E00F4B1A68039BDB0020
:10B7F40013440293029B1B789DF807209A4201D1BF
:10B80400029B0DE0039B01330393084B1B781A46FC
:10B81400039B9342E8DB06498820FAF71BFE0023CA
:10B82400184605B05DF804FB2C1B0020301B0020DB
:10B83400C805030000B585B003460A468DF80730F5
:10B8440013468DF806309DF807301846FFF7C4FFFD
:10B854000390039B002B0BD0039B5B68002B07D04A
:10B86400039B5B689DF806109DF8072010469847D7
:10B8740000BF05B05DF804FB2DE9F04F87B0034627
:10B884000A468DF80F3013468DF80E309DF80F30B0
:10B894001846FFF72FFF0346042B00F2C28001A2D3
:10B8A40052F823F0BDB8020031B902004DB90200CC
:10B8B4007DB9020093B902009DF80E30002B00F010
:10B8C400AD809DF80F3001211846FFF739FF0023A2
:10B8D4008DF817300DF11703184600F089FF9DF815
:10B8E4000F104FF001024FF00003A1F12004C1F149
:10B8F400200003FA01F702FA04F4274322FA00F0C5
:10B90400074302FA01F6494BD3E9002346EA020150
:10B9140000913B430193454BDDE90012C3E900125A
:10B924009DF81730184600F079FF77E09DF80E3047
:10B93400002B01D0022200E000229DF80F301146B6
:10B944001846FFF7FDFE6CE09DF80E30002B0CD07E
:10B954009DF80F3003211846FFF7F2FE9DF80F30D3
:10B9640001211846FFF766FF5BE09DF80F300121C7
:10B974001846FFF7E5FE54E09DF80E30002B4FD13A
:10B984009DF80F3004211846FFF7DAFE48E09DF8D1
:10B994000E30002B06D09DF80F3003211846FFF718
:10B9A400CFFE3EE09DF80F3000211846FFF7C8FE99
:10B9B4009DF80F3000211846FFF73CFF00238DF857
:10B9C40016300DF11603184600F012FF9DF80F1003
:10B9D4004FF001024FF00003A1F12006C1F1200055
:10B9E40003FA01F502FA06F6354322FA00F005439C
:10B9F40002FA01F46FEA04086FEA05090B4BD3E974
:10BA0400002308EA020A09EA030B084BC3E900AB66
:10BA14009DF81630184600F001FF02E000BF00E078
:10BA240000BF00BF07B0BDE8F08F00BF381B002087
:10BA340000B583B00648074B1B685B080022194613
:10BA440000F0AEFD019000BF03B05DF804FB00BF41
:10BA540060190020341B002000B587B0019000233A
:10BA6400059328E01C4B1A68059BDB0013440493E0
:10BA7400049B1B781846FEF703F803468DF80F3035
:10BA8400049B5B78012B0CBF01230023DBB21A4615
:10BA94009DF80F309A420CBF012300238DF80E301D
:10BAA400049B1B789DF80E2011461846FFF7E4FE10
:10BAB400059B01330593094B1B781A46059B93425A
:10BAC400D0DB074BD3E90023134301D0FFF7B0FFCA
