:020000022000DC
:1070000000000420197202000172020003720200E3
:1070100005720200077202000972020000000000FF
:107020000000000000000000000000000B720200E1
:107030000D720200000000000F72020011720200C7
:107040003994020013720200D5A1020013720200EB
:107050001372020013720200CDA00200137202002C
:107060001372020013720200137202001372020004
:1070700013720200137202001372020013720200F4
:107080001372020095D502001372020013720200FF
:107090001372020013720200510103001372020006
:1070A00013720200137202001372020013720200C4
:1070B00013720200137202000000000000000000C2
:1070C00013720200137202001372020013720200A4
:1070D0001372020013720200137202001372020094
:1070E000137202001372020013720200000000000B
:1070F0000000000013720200000000001372020082
:10710000000000000000000000000000000000007F
:10711000000000000000000000000000000000006F
:10712000000000000000000000000000000000005F
:10713000000000000000000000000000000000004F
:10714000000000000000000000000000000000003F
:10715000000000000000000000000000000000002F
:10716000000000000000000000000000000000001F
:10717000000000000000000000000000000000000F
:1071800000000000000000000000000000000000FF
:1071900000000000000000000000000000000000EF
:1071A00000000000000000000000000000000000DF
:1071B00000000000000000000000000000000000CF
:1071C00000000000000000000000000000000000BF
:1071D00000000000000000000000000000000000AF
:1071E000000000000000000000000000000000009F
:1071F000000000000000000000000000000000008F
:10720000FEE7FEE7FEE7FEE7FEE7FEE7FEE7FEE756
:10721000FEE7FEE700F002B8FFF7FCBF0F484FF0B3
:107220000701884385460E4880470E48016841F4AF
:1072300070010160BFF34F8FBFF36F8F00F01AB87A
:1072400009480A490A4A884207D0521A05D00378E9
:1072500001300B700131013AF9D170470000042070
:10726000CD88020088ED00E084090300D8180020D2
:10727000D81800203A493B480A1A02D00722914305
:107280008D46394939480A1A06D00722914381F3BD
:107290000988022282F3148835483649364A00F0BC
:1072A00041F836483649374A00F03CF83648374905
:1072B000374A00F037F837483749384A00F032F893
:1072C00037483849384A00F02DF838483849394AA3
:1072D00000F028F838483949394A00F023F839488D
:1072E0003949002200F036F838483949002200F0C8
:1072F00031F838483849091A09F05AFA374A90479C
:1073000025482649884205D00268043003B49047D6
:1073100003BCF7E700208646EC4600200021304AF7
:107320009047FEE7884214D0521A12D003460B430E
:1073300013430324234206D1036804300B60043155
:10734000043AF9D17047037801300B700131013AEA
:10735000F9D17047884202D002700130FAE77047D5
:107360000000042000E003200000042000000420AE
:107370005C200300D8180020DC190020E473020010
:10738000E4730200B80803005C200300D818002052
:10739000D81800208409030084090300840903002D
:1073A000840903008409030084090300840903009D
:1073B000840903005920030060210300DC19002028
:1073C000DC190020DC1900203C2200203C22002097
:1073D0003C2200203C2200203C420020417202005E
:0473E000B176020080
:1073E4008ADF704700BF184600B583B0034600919A
:1073F400ADF80630BDF80630009A1946034804F08B
:107404004BFF00BF03B05DF804FB00BFEFBEADDE71
:1074140000B585B001900091019B08330393019B53
:107424001B881D2B4ED1039B1B7803F00803DBB292
:10743400002B29D0039B9B8B002B19D0244A254B6E
:10744400D31ADB081B0443F003032349184607F04F
:10745400A5FF1F4A1F4BD31ADB081B0443F005008A
:10746400039B9969039B9B8B1A4607F0E5FF24E075
:10747400174A184BD31ADB081B0443F003031749BC
:10748400184607F08BFF18E0114A124BD31ADB0899
:107494001B0443F003031249184607F07FFF0C4A0C
:1074A4000C4BD31ADB081B0443F00500039B9969BA
:1074B400039B9B8B1A4607F0BFFF0A490020FFF786
:1074C4008FFF00E000BF00BF05B05DF804FB00BF04
:1074D40024090300FC080300140A03002C0A030017
:1074E4004C0A0300D818002000B587B00190019B16
:1074F4001B78002B10D0052B20D1019B5B680593D2
:10750400059B0493049B002B1AD0104A4FF4B071CE
:10751400049804F0C1FE13E0019B5B6893F91330F7
:1075240003930B4A0B4BD31ADB081B0443F00303EE
:10753400039A0949184607F03FFF02E000BF00E044
:1075440000BF00BF07B05DF804FB00BFA40903003F
:1075540024090300FC0803006C0A030000B587B08B
:1075640008F072FD0590059B0493049B002B05D045
:10757400164A40F27B11049804F08EFE0023019316
:1075840001AB1946012008F017FE0590059B0393F3
:10759400039B002B05D00D4A40F28111039804F09F
:1075A4007BFE01AB184608F0F9FE0590059B02939B
:1075B400029B002B05D0054A40F28511029804F085
:1075C4006BFE00BF07B05DF804FB00BFA409030015
:1075D40000B583B04FF48041002007F009FC01900E
:1075E400019B0093009B002B05D0064A4FF4CA71FF
:1075F400009804F051FE07F091FB00BF03B05DF862
:1076040004FB00BFA409030000B583B000210120DE
:1076140000F01AFE0190019B0093009B002B05D003
:10762400044A40F29D11009804F036FE00BF03B0F6
:107634005DF804FBA409030000B583B005F0DCF990
:107644000190019B0093009B002B05D0044A40F25B
:10765400A511009804F020FE00BF03B05DF804FB00
:10766400A409030000B583B007F00AF80190019B58
:107674000093009B002B05D0044A40F2AF11009800
:1076840004F00AFE00BF03B05DF804FBA409030084
:1076940008B507F083FF034683F00103DBB2002B38
:1076A40001D007F003F800BF08BD000000B585B0A5
:1076B400FFF78EFFFFF7C0FFFFF7A6FFFFF7D2FF2C
:1076C400FFF74CFF164A174BD31ADB081B0443F091
:1076D40003031549184607F061FE144A00211448B3
:1076E40001F056FA0390039B0293029B002B05D0F2
:1076F400104A4FF4EB71029804F0CEFD0C4801F0EF
:1077040099FA0390039B0193019B002B05D0094A2E
:1077140040F2D911019804F0BFFDFFF7B9FFFCE76F
:1077240024090300FC080300A00A0300ED7402000E
:10773400FC190020A409030000B583B00190019B4B
:107744001B68184600F002F90346002B04D10B49CC
:107754004FF4F670FFF748FE019B1B681F2B02D8FD
:107764004FF0A04306E0019B1B6803F01F02019B3E
:107774001A60034B184603B05DF804FBB80A030013
:107784000003005000B585B00190084611461A4622
:1077940003468DF803300B468DF8023013468DF8FE
:1077A400013001AB1846FFF7C7FF03909DF8032093
:1077B4009DF802305B001A439DF801309B001A4388
:1077C4009DF818301B0242EA03019DF81C301B048B
:1077D400019A1943039B02F5E07243F8221000BF9B
:1077E40005B05DF804FB00B585B003900023019358
:1077F400002300930023012201210398FFF7C2FF15
:1078040000BF05B05DF804FB00B585B003900B46DE
:107814008DF80B309DF80B3000220192002200926B
:10782400002200210398FFF7ADFF00BF05B05DF80B
:1078340004FB00B585B0019001AB1846FFF77CFF4F
:107844000390019B012202FA03F31946039800F006
:1078540069F800BF05B05DF804FB00B585B0019080
:1078640001AB1846FFF768FF0390019B012202FA5F
:1078740003F31946039800F05FF800BF05B05DF804
:1078840004FB00B585B0019001AB1846FFF754FF27
:107894000390039BD3F804350293029BDA43019BC4
:1078A400012101FA03F31A40039BC3F80825019B45
:1078B40001229A40029B1A40039BC3F80C2500BF87
:1078C40005B05DF804FB00B583B001900091009B06
:1078D400002B03D10198FFF7C0FF02E00198FFF7E6
:1078E400A8FF00BF03B05DF804FB00B585B00190AC
:1078F40001AB1846FFF720FF0390039800F00AF845
:107904000246019B22FA03F303F00103184605B073
:107914005DF804FB82B00190019BD3F8043518464E
:1079240002B0704782B001900091019B009AC3F8A5
:10793400082500BF02B0704782B001900091019BFE
:10794400009AC3F80C2500BF02B0704784B00190C0
:10795400019B5B09029300230393029B002B03D03A
:10796400029B012B04D007E04FF0FF33039303E0A5
:107974004FF6FF73039300BF019B03F01F030193B2
:10798400039A019B22FA03F303F00103002B14BFB3
:1079940001230023DBB2184604B0704700B585B05C
:1079A4000190019B032B03D911493A20FFF71CFDD9
:1079B400104A019B13441B781846FFF796FF0346B1
:1079C400002B14BF012300238DF80F309DF80F30D6
:1079D400002B14BF01230023DBB283F00103DBB2CD
:1079E40003F00103DBB2184605B05DF804FB00BFE9
:1079F400E00A0300080B030000B583B00190019B6B
:107A0400032B03D907494120FFF7EEFC064A019BEB
:107A140013441B7800211846FFF755FF00BF03B03D
:107A24005DF804FBE00A0300080B030000B583B013
:107A34000190019B032B03D907494720FFF7D4FC8E
:107A4400064A019B13441B7801211846FFF73BFFAC
:107A540000BF03B05DF804FBE00A0300080B030059
:107A640000B583B00023019305E00198FFF7DEFF22
:107A7400019B01330193019B032BF6D900BF00BF87
:107A840003B05DF804FB00B583B00023019305E067
:107A94000198FFF7B1FF019B01330193019B032B75
:107AA400F6D900BF00BF03B05DF804FB00B583B096
:107AB4000190019B032B03D907495F20FFF794FC36
:107AC400064A019B13441B781846FFF7DAFE00BFF1
:107AD40003B05DF804FB00BFE00A0300080B0300D9
:107AE40000B583B00023019309E0094A019B1344C4
:107AF4001B781846FFF777FE019B01330193019B26
:107B0400032BF2D9FFF7ACFF00BF03B05DF804FB11
:107B1400080B030000B583B0002301930AE0094A6F
:107B2400019B13441B7803211846FFF76DFE019B4C
:107B340001330193019B032BF1D900BF00BF03B0B4
:107B44005DF804FB0C0B030084B001904FF0FF338D
:107B54000293002303930DE00A4A039B13441B780A
:107B64001A46019B934202D1039B029305E0039BB7
:107B740001330393039B032BEED9029B184604B0F5
:107B8400704700BF0C0B030000B583B00190019B4C
:107B940003F00103002B01D0FFF7A2FF019B03F0C8
:107BA4000203002B01D0FFF7B5FF00BF03B05DF85F
:107BB40004FB000000B587B003460A468DF8073081
:107BC40013468DF8063000238DF8173000230493F4
:107BD4009DF807301846FFF7B7FF0490049B032B6A
:107BE40062D89DF80630022B52D0022B5CDC002BAD
:107BF40031D0012B58D13549049A13465B00134404
:107C04000B441B788DF817303049049A13465B00F7
:107C140013440B4401331B78002B0ED02C4B2D4AFC
:107C24004FF48041184604F05FFF0390039B002B40
:107C340003D1284A9DF8073013702449049A134647
:107C44005B0013440B4402331978234A049B134406
:107C54000A461A7028E01E4B184604F09DFF1E4A7F
:107C6400049B134419781948049A13465B0013447F
:107C7400034402331B78994215D11449049A1346DC
:107C84005B0013440B4402331B788DF817300AE071
:107C94000E49049A13465B0013440B4401331B78CA
:107CA4008DF8173000E000BF9DF81730002B09D085
:107CB4000A4B1B68002B05D0084B1B689DF8172046
:107CC4001046984700BF07B05DF804FB541A002023
:107CD40020190020601A0020641A0020501A002085
:107CE40000B583B00190019B1B7802211846FFF771
:107CF40061FF00BF03B05DF804FB000000B583B072
:107D04000C4B1B78002B0FD00023019308E0019B40
:107D1400022B02D00198FFF789FE019B01330193E6
:107D2400019B032BF3D901E0FFF79AFE00BF03B0D8
:107D34005DF804FB4C1A00202DE9D04F92B00346A5
:107D44008DF83F300023119300231093CC4B1B7804
:107D5400002B04D0CA4A00231370FFF7CFFF9DF80D
:107D64003F30172B00F23F8201A252F823F000BFEC
:107D7400D57D0200ED7D0200ED7D0200897E0200CA
:107D8400257F0200A17F0200358002005580020099
:107D94006580020091800200AF800200CD80020065
:107DA400EB800200F9800200F9800200F9800200F1
:107DB400F9800200F98002008D8102009B8102009B
:107DC400AF810200C3810200DD810200DD81020077
:107DD400FFF794FFAB4B184604F0DEFE1190AA4A5D
:107DE4009DF83F301370FFE10020FFF7D7FD0346F5
:107DF400002B0DD00020FFF719FE9DF83F30022B19
:107E040002D14FF4E16301E04FF47A6310930BE085
:107E14000020FFF7F1FD9DF83F30022B01D1C8236C
:107E240001E04FF4C8731093974A9DF83F301370E4
:107E3400944C109B0022009301924FF000024FF0EB
:107E44000003DDE900673946CB03314643EA514379
:107E54003146CA0312F57A71029143F10003039388
:107E64004FF4FA624FF00003DDE9020108F006FC6A
:107E740002460B46134600221946204604F034FEFF
:107E84001190B1E10020FFF789FD0346002B0DD0CE
:107E94000020FFF7CBFD9DF83F30032B02D14FF4B8
:107EA400487301E04FF47A6310930BE00020FFF76E
:107EB400A3FD9DF83F30032B01D1C82301E04FF40B
:107EC400C8731093704A9DF83F3013706D4C109B2B
:107ED4000022049305924FF000024FF00003DDE905
:107EE40004673946CB03314643EA51433146CA035A
:107EF40012F57A71069143F1000307934FF4FA6285
:107F04004FF00003DDE9060108F0B8FB02460B461A
:107F1400134600221946204604F0E6FD119063E161
:107F24000020FFF73BFD0346002B06D00020FFF79F
:107F34007DFD4FF47A63109305E00020FFF75CFDAC
:107F44004FF4C8731093504A9DF83F3013704D4C52
:107F5400109B00229A4693464FF000024FF0000314
:107F64004FEACB3343EA5A434FEACA3212F57A71E5
:107F7400089143F1000309934FF4FA624FF00003B0
:107F8400DDE9080108F07AFB02460B46134600229D
:107F94001946204604F0A8FD119025E10020FFF7C2
:107FA400FDFC0346002B0CD00020FFF73FFD9DF89D
:107FB4003F30052B01D1C82301E04FF47A631093BD
:107FC4000BE00020FFF718FD9DF83F30052B01D191
:107FD400C82301E04FF4C87310932B4A9DF83F3037
:107FE4001370284C109B0022984691464FF00002D3
:107FF4004FF000034FEAC93343EA58434FEAC8320B
:1080040012F57A710A9143F100030B934FF4FA626B
:108014004FF00003DDE90A0108F030FB02460B468D
:10802400134600221946204604F05EFD1190DBE061
:108034000020FFF73BFD144A9DF83F301370114BAD
:10804400002240F26661184604F04EFD1190CBE028
:108054000020FFF7D1FC0C4A9DF83F301370C3E0B9
:10806400074B01221A700120FFF720FD054B002267
:1080740040F26661184604F037FD1190B4E000BF89
:10808400451A0020E0180020441A0020594B012210
:108094001A700120FFF70AFD574B00224FF40051DC
:1080A400184604F021FD11909EE0524B01221A70F3
:1080B4000120FFF7FBFC504B002240F2666118469A
:1080C40004F012FD11908FE04A4B01221A70012036
:1080D400FFF7ECFC484B00224FF40051184604F023
:1080E40003FD119080E0FFF7CEFC444A9DF83F3039
:1080F400137079E0424B184604F04EFD11909DF840
:108104003F30C3F111031093109B002B35D0119B0A
:10811400002B32D1109B012B28D9394C109B9BB2D8
:108124001A46C82302FB03F3DA171E4617464FF01C
:1081340000024FF00003FB0343EA5643F20312F537
:108144007A710C9143F100030D934FF4FA624FF0EE
:108154000003DDE90C0108F091FA02460B461346D0
:1081640000221946204604F0BFFC11900220FFF7BC
:1081740043FC244B01221A7036E00220FFF756FC20
:10818400204B00221A702FE0FFF7B8FD1B4A9DF820
:108194003F30137028E0FFF7B1FD0020FFF72CFCFF
:1081A400164A9DF83F3013701EE0FFF7A7FD01202B
:1081B400FFF722FC114A9DF83F30137014E0FFF7DB
:1081C4009DFD0020FFF718FC0120FFF715FC0B4A6A
:1081D4009DF83F30137007E0FFF755FC074A9DF800
:1081E4003F30137000E000BF119B184612B0BDE889
:1081F400D08F00BF451A0020E0180020441A002048
:10820400001900204C1A002000B583B00190074BE0
:108214001B6803F00103002B04D0054B1B781846A0
:10822400FFF78AFD00BF03B05DF804FB481A002085
:10823400441A002000B583B001900220FFF736FCF9
:1082440000BF03B05DF804FB00B585B00190009158
:10825400002303932A4A019B13602A4A009B13605C
:10826400019B03F00203002B2AD00023029308E0B1
:1082740001220121029800F055F80390029B01337A
:108284000293029B032B02D8039B002BF0D0039B89
:10829400002B06D140F2333204211B4803F0FCFECC
:1082A4000390039B002B02D103F07EFF0390039BFA
:1082B400002B05D1154A0021154804F0DBFB03907F
:1082C400019B03F00103002B14D00120FFF75CFC99
:1082D400039B002B05D10F4A00210F4804F0CAFB71
:1082E4000390039B002B05D10C4A01210C4804F098
:1082F400C1FB0390039B184605B05DF804FB00BF67
:10830400481A0020501A00201C0B0300E57C0200D0
:10831400180B03000D820200100B030039820200C7
:10832400140B030084B001900B468DF80330134600
:108334008DF8023000230393019B032B3CD89DF856
:108344000230012B0BD19DF80330012B04D1019B8A
:10835400DBB20E33DBB200E000238DF802309DF86F
:108364000330022B0FD0022B23DC002B16D0012B61
:108374001FD11449019A13465B0013440B449DF822
:1083840002201A701AE00F49019A13465B00134445
:108394000B4401339DF802201A700FE00949019A39
:1083A40013465B0013440B4402339DF802201A70F9
:1083B40004E00723039301E007230393039B184678
:1083C40004B07047541A002000B583B00122002184
:1083D4000020FFF7A7FF0190019B002B04D0019B15
:1083E400072B01D0019B1CE0072202210120FFF78B
:1083F40099FF0190019B002B04D0019B072B01D016
:10840400019B0EE0042202210020FFF78BFF019064
:10841400019B002B04D0019B072B01D0019B00E0A2
:108424000023184603B05DF804FB00B583B00122B5
:1084340002210020FFF776FF0190019B002B04D05E
:10844400019B072B01D0019B1CE007220221012084
:10845400FFF768FF0190019B002B04D0019B072BC1
:1084640001D0019B0EE00A2200210020FFF75AFFF1
:108474000190019B002B04D0019B072B01D0019B91
:1084840000E00023184603B05DF804FB00B585B096
:1084940001900091019B1B88102B02D0112B18D046
:1084A4002FE01A4B1B68002B0DD1FFF78DFF0390B3
:1084B400039B002B07D0164B1B68002B03D0144BD7
:1084C4001B6803989847114B1B6801330F4A1360CC
:1084D40017E00E4B1B68013B0C4A13600B4B1B68E7
:1084E400002B0DD1FFF7A1FF0390039B002B07D0B6
:1084F400074B1B68002B03D0054B1B680398984758
:1085040000BF00BF05B05DF804FB00BF6C1A00207B
:10851400681A0020BFF34F8F00BF064BDB6803F4DB
:10852400E0620449044B1343CB60BFF34F8F00BF99
:1085340000BFFDE700ED00E00400FA0582B0164B31
:108544001B680193154B1B680093019B082B1FD1DB
:10855400009B052B1AD801A252F823F0798502005A
:108564007D850200818502008585020089850200DF
:108574008D85020001230CE001230AE0012308E0B9
:10858400012306E0012304E0012302E0012300E0CB
:108594000023184602B07047300100103401001067
:1085A40082B0164B1B680193154B1B680093019B0B
:1085B400082B1FD1009B052B1AD801A252F823F0D7
:1085C400DD850200E1850200E5850200E9850200FF
:1085D400ED850200F185020001230CE001230AE08D
:1085E400012308E0012306E0012304E0012302E063
:1085F400012300E00023184602B070473001001048
:108604003401001082B0164B1B680193154B1B6894
:108614000093019B082B1FD1009B052B1AD801A2A4
:1086240052F823F041860200458602004986020082
:108634004D860200518602005586020001230CE09B
:1086440000230AE0002308E0002306E0002304E0FE
:10865400002302E0002300E00023184602B0704724
:10866400300100103401001082B0164B1B680193D6
:10867400154B1B680093019B082B1FD1009B052BF6
:108684001AD801A252F823F0A5860200A986020096
:10869400AD860200B1860200B5860200B9860200EA
:1086A40001230CE000230AE0002308E0002306E095
:1086B400002304E0002302E0002300E00023184626
:1086C40002B07047300100103401001082B0164B24
:1086D4001B680193154B1B680093019B082B1FD14A
:1086E400009B052B1AD801A252F823F00987020037
:1086F4000D87020011870200158702001987020006
:108704001D87020001230CE000230AE0002308E097
:10871400002306E0002304E0002302E0002300E03D
:108724000023184602B070473001001034010010D5
:1087340082B0164B1B680193154B1B680093019B79
:10874400082B1FD1009B052B1AD801A252F823F045
:108754006D87020071870200758702007987020025
:108764007D8702008187020001230CE000230AE0D8
:10877400002308E0002306E0002304E0002302E0D5
:10878400002300E00023184602B0704730010010B7
:108794003401001082B0164B1B680193154B1B6803
:1087A4000093019B082B1FD1009B052B1AD801A213
:1087B40052F823F0D1870200D5870200D98702003E
:1087C400DD870200E1870200E587020001230CE057
:1087D40001230AE0012308E0012306E0012304E069
:1087E400012302E0012300E00023184602B0704791
:1087F400300100103401001082B0164B1B68019345
:10880400154B1B680093019B082B1FD1009B052B64
:108814001AD801A252F823F03588020039880200E0
:108824003D88020041880200458802004988020010
:1088340000230CE000230AE0002308E0002306E004
:10884400012304E0012302E0012300E00023184691
:1088540002B07047300100103401001008B5FFF772
:10886400CBFF0346002B07D04FF010234FF080427C
:10887400D3F80832C2F8583500BF08BD00BF044B16
:10888400D3F80034002BFAD000BF00BF704700BFFC
:1088940000E0014000B583B00190054A019BC2F895
:1088A4000435FFF7EBFF00BF03B05DF804FB00BF26
:1088B40000E00140024B034A1A6000BF704700BF4A
:1088C400401900200090D00308B5FFF737FE034697
:1088D400002B0ED04FF080430022C3F80C214FF040
:1088E40080430022C3F810214FF080430022C3F8D4
:1088F4003825FFF755FE0346002B76D04FF0805302
:10890400734AD3F80434C2F820354FF08053704AC8
:10891400D3F80834C2F824354FF080536C4AD3F8A6
:108924000C34C2F828354FF08053694AD3F8103418
:10893400C2F82C354FF08053654AD3F81434C2F88A
:1089440030354FF08053624AD3F81834C2F83435C6
:108954004FF080535E4AD3F81C34C2F840354FF0D0
:1089640080535B4AD3F82034C2F844354FF0805327
:10897400574AD3F82434C2F848354FF08053544A48
:10898400D3F82834C2F84C354FF08053504AD3F80A
:108994002C34C2F850354FF080534D4AD3F830345C
:1089A400C2F854354FF08053494AD3F83434C2F8EE
:1089B40060354FF08053464AD3F83834C2F86435F2
:1089C4004FF08053424AD3F83C34C2F868354FF034
:1089D40080533F4AD3F84034C2F86C354FF080538B
:1089E4003B4AD3F84434C2F87035FFF70BFE034614
:1089F400002B02D0374B384A1A60FFF735FE034686
:108A0400002B03D0354BFB22C3F81825FFF75EFE7D
:108A14000346002B0AD0324B1B6823F00F02314B64
:108A24001B6803F00F032E4913430B60FFF780FE0E
:108A34000346002B03D02C4B4FF400721A60FFF74F
:108A4400A9FE0346002B0DD04FF08043D3F8003429
:108A540003F00103002B05D04FF080436FF00102B7
:108A6400C3F80024214BD3F88830204A43F4700320
:108A7400C2F88830BFF34F8F00BFBFF36F8F00BFC2
:108A8400FFF7ECFE4FF01023D3F80032002B05DB88
:108A94004FF01023D3F80432002B15DA0120FFF72E
:108AA400F9FE4FF010231222C3F80022FFF7E6FE6E
:108AB4004FF010231222C3F80422FFF7DFFE002038
:108AC400FFF7E8FEFFF726FDFFF7F4FE00BF08BD41
:108AD40000C000408C5600404881030000F0004074
:108AE400E40E0040580200104096024000ED00E001
:108AF4008ADF704700BF18468BDF704700BF1846F7
:108B040082B00190019B1B7B03F01803DBB2082B9E
:108B140006D0019B1B7B03F01803DBB2182B01D199
:108B2400012300E00023184602B0704782B0019090
:108B3400019A137B43F004031373019BA022DA818F
:108B4400019B50221A82019B00225A82019A137BB4
:108B54006FF3C4031373019B01225A7300BF02B065
:108B6400704782B00190019B4FF4C8721A81019B37
:108B740006225A80019B18229A80019B0022DA80E7
:108B840000BF02B0704708B5FFF7B6FF00BF08BDCD
:108B940010B584B0039002910192039B002B01D184
:108BA4000E2344E0039B019ADA61029B002B2BD035
:108BB400029B1A79039B1A70029B1A7B039B9A727D
:108BC400029B1B68002B0BD0029B1A68039B0C337F
:108BD400144620686168A26807C3A2891A8002E06B
:108BE4000398FFF7A3FF029B9B68002B08D0029B0E
:108BF4009A68039B02331168526819605A600CE04A
:108C04000398FFF7AEFF08E00398FFF78FFF039880
:108C1400FFF7A7FF039B00221A70039B03F12002B6
:108C2400039B1A64039B1F22A3F8442000231846C5
:108C340004B010BD00B589B00190019B002B01D197
:108C44000E2338E002AB14220021184607F002FE7E
:108C5400FFF799FF0198FFF753FF0346002B0BD052
:108C6400019BDB69002B07D001238DF80830019BA1
:108C7400DB6902AA10469847019B03F10C02019B91
:108C8400403319461046FFF733FF0790079B082B24
:108C940010D0079B002B0DD0094A0A4BD31ADB08CE
:108CA4001B0443F00103079A0749184606F084FBA6
:108CB400079B00E00023184609B05DF804FB00BFE1
:108CC4003C090300FC080300480B030082B0034680
:108CD4008DF807309DF90730002B13DB9DF8073022
:108CE40003F01F0209499DF907305B09012000FACE
:108CF40002F2203341F82320BFF34F8F00BFBFF3AC
:108D04006F8F00BF00BF02B0704700BF00E100E0FA
:108D1400044BD3F80034002B14BF01230023DBB22F
:108D2400184670470000014008B507F0E1F9034612
:108D340083F00103DBB2002B03D109497B20FEF74A
:108D440053FBFFF7E5FF034683F00103DBB2002B7F
:108D540004D000F04FFB034B00229A7000BF08BD03
:108D6400CC0B0300701A002000B583B000230193DC
:108D7400184B1B78002B02D0852301931CE0154B64
:108D840000229A60134B00225A60124B00221A618F
:108D9400104B0022DA60104800F0F2FA019007F05C
:108DA400A7F9034683F00103DBB2002B01D000F0E6
:108DB4000DFB084B01221A70FFF7AAFF0346002B94
:108DC40002D0044B01229A70019B184603B05DF84F
:108DD40004FB00BF701A0020B58E020084B001901D
:108DE400019B1B680393039B002B03D0039B1A680E
:108DF400019B1A60039B184604B0704700B583B00A
:108E0400164B1B78002B04D1154940F21710FEF7BE
:108E1400EBFA124BDB68002B04D111494FF48C7030
:108E2400FEF7E2FA00238DF807300DF10703184628
:108E340003F082FF094BDB68013B084AD360074B10
:108E4400DB68002B01D1FFF76FFF9DF80730184650
:108E540003F088FF00BF03B05DF804FB701A002024
:108E6400CC0B030000B585B003468DF807309DF8A0
:108E74000730002B02D10C4B039301E00B4B0393FF
:108E84000398FFF7ABFF0290029B002B06D0029BD6
:108E94005B689DF8072010469847F1E700BF00BFC4
:108EA40005B05DF804FB00BF781A0020801A00208A
:108EB40000B583B003468DF807309DF80730002BCA
:108EC40005D10A4B01225A700020FFF7CBFF9DF811
:108ED4000730012B05D1054B01229A700120FFF7C1
:108EE400C1FF00BF03B05DF804FB00BF701A00208F
:108EF40000B583B001900091019B002B05D1054B77
:108F040001225A700020FFF7ADFF00BF03B05DF8E7
:108F140004FB00BF701A002000B585B00346009121
:108F24008DF807309DF80730032B29D0032B35DC4F
:108F3400002B02D0012B04D030E00020FFF7C6FE46
:108F44002DE000238DF80F300DF10F03184603F0C8
:108F5400F3FE154B1B7883F00103DBB2002B01D029
:108F6400FFF702FF104BDB6801330F4AD3600E4B4F
:108F740001229A709DF80F30184603F0F3FE0EE0BC
:108F8400094B1B78002B04D1084940F25220FEF70C
:108F94002BFA00F01BFAFFF731FF00E000BF00BF1F
:108FA40005B05DF804FB00BF701A0020CC0B030071
:108FB40000B589B001900091009B0793019B1B7839
:108FC4008DF80C30019B5B680493019B9B68DBB2BA
:108FD4008DF81430019BDB680693074A079B52F80F
:108FE40023300649079A51F8221003AA10469847DD
:108FF40000BF09B05DF804FB841A00208C1A00201D
:1090040000B589B001900091009B0793019B1B78E8
:109014008DF80C30019B5B680493019B9B68DBB269
:109024008DF81430019BDB680693074A079B52F8BE
:1090340023300649079A51F8221003AA104698478C
:1090440000BF09B05DF804FB841A00208C1A0020CC
:1090540030B58FB0039002910192039B1B780C935F
:109064002C490C9B019A41F82320029B1A692A4936
:109074000C9B41F823200C9B012B07D1029B5B7FA7
:10908400002B03D125497620FEF7AEF9029B5B7FC6
:109094001946234A0C9B13440A461A70029B04ACDB
:1090A4001D460FCD0FC495E80F0084E80F000C9BFC
:1090B400089300230D93039B1B781A46184B9B5C63
:1090C400002B0DD0039B181D019B002B01D0154ACA
:1090D40000E0002204AB194602F00CFB0D9014E0F2
:1090E400039B1B781A460E4B9B5C002B0DD1039BF4
:1090F40003F10C00019B002B01D00B4A00E000227D
:1091040004AB194601F06EFC0D900D9B18460FB090
:1091140030BD00BF841A00208C1A0020000C03000C
:10912400941A0020B58F02000590020082B0034615
:109134008DF807309DF90730002B0CDB9DF80730C4
:1091440003F01F0205499DF907305B09012000FA6D
:1091540002F241F8232000BF02B0704700E100E0B2
:1091640082B0034600918DF807309DF90730002B3B
:109174000ADB009BDAB20C499DF907305201D2B2E6
:109184000B4483F800230BE0009BDAB207499DF8F7
:10919400073003F00F03043B5201D2B20B441A769A
:1091A40000BF02B0704700BF00E100E000ED00E046
:1091B40082B00190019B1B0B5BB2184602B0704752
:1091C40000B583B003460A468DF8073013468DF880
:1091D40006309DF80630012B03D99DF80630032B89
:1091E4000BD99DF80630042B03D99DF80630072BC4
:1091F40003D908496B20FEF7F7F89DF806209DF97E
:10920400073011461846FFF7ABFF00BF03B05DF807
:1092140004FB00BF340C030000B583B003468DF893
:1092240007309DF907301846FFF780FF00BF03B0F1
:109234005DF804FB82B003468DF807300F4A9DF9B0
:109244000730002B00DA1F335B115BB252F8232086
:109254009DF90730594203F01F0301F01F0158BF65
:109264004B425BB222FA03F303F00103002B14BF59
:1092740001230023DBB2184602B0704700E100E08E
:1092840082B001904FF08042019BC2F8083300BFC6
:1092940002B0704782B003468DF807309DF807305E
:1092A40003F1804301221A6000BF02B0704784B00A
:1092B4000346ADF80630BDF8063003F180430022C2
:1092C4001A60BDF8063003F180431B680393039BC7
:1092D40000BF04B0704782B00346ADF80630BDF855
:1092E400063003F180431B68002B14BF01230023C5
:1092F400DBB2184602B0704782B001904FF0804252
:10930400019BC2F8183500BF02B070474FF080438C
:10931400D3F818341B0C03F00103002B14BF0123F2
:109324000023DBB21846704700B583B006238DF8DE
:1093340007304FF08040FFF73BFF03461846FFF726
:1093440079FF034683F00103DBB2002B13D04FF007
:109354008040FFF72DFF03461A469DF80730194653
:109364001046FFF72DFF4FF08040FFF721FF034623
:109374001846FFF751FF00BF03B05DF804FB00007F
:1093840000B585B00190019B002B03D10D49A420A9
:10939400FEF72AF8002303930B4B1B79002B02D012
:1093A4008523039308E0084A019B1360064B0122BE
:1093B4001A71054B00225A71039B184605B05DF8DB
:1093C40004FB00BF640C0300981A002008B5074B87
:1093D4001B79002B03D10649BD20FEF705F8FFF7E2
:1093E400A3FF0120FFF788FF00BF08BD981A0020E3
:1093F400640C030008B50D4B1B79002B03D10C49F9
:10940400F720FDF7F1FF0220FFF73AFF4FF48270D7
:10941400FFF74DFF0C20FFF73DFF00BFFFF776FF7E
:109424000346002BFAD100BF00BF08BD981A0020E4
:10943400640C030008B54FF48070FFF74CFF03463B
:10944400002B14D04FF48070FFF731FF0120FFF799
:1094540017FF114B5B7983F00103DBB2002B06D0BD
:109464000D4B01225A710C4B1B68002098474FF496
:109474008270FFF730FF0346002B0AD04FF482704E
:10948400FFF715FF0220FFF7FBFE034B1B680120CB
:10949400984700BF08BD00BF981A002082B0034659
:1094A4008DF807309DF90730002B0CDB9DF8073051
:1094B40003F01F0205499DF907305B09012000FAFA
:1094C40002F241F8232000BF02B0704700E100E03F
:1094D40082B0034600918DF807309DF90730002BC8
:1094E4000ADB009BDAB20C499DF907305201D2B273
:1094F4000B4483F800230BE0009BDAB207499DF884
:10950400073003F00F03043B5201D2B20B441A7626
:1095140000BF02B0704700BF00E100E000ED00E0D2
:1095240082B00190019B1B0B5BB2184602B07047DE
:1095340000B583B003460A468DF8073013468DF80C
:1095440006309DF80630012B03D99DF80630032B15
:109554000BD99DF80630042B03D99DF80630072B50
:1095640003D908496B20FDF73FFF9DF806209DF9BC
:10957400073011461846FFF7ABFF00BF03B05DF894
:1095840004FB00BF980C030000B583B003468DF8BC
:1095940007309DF907301846FFF780FF00BF03B07E
:1095A4005DF804FB00B583B00346ADF80630BDF8A2
:1095B4000630184600F026F803461B68012B0CBF42
:1095C40001230023DBB2184603B05DF804FB00B5A9
:1095D40085B00346ADF80630BDF80630184600F0F5
:1095E40011F803461A4600231360BDF806301846E6
:1095F40000F008F803461B680393039B00BF05B003
:109604005DF804FB82B00346ADF80630BDF80630C1
:1096140003F1804303F5C043184602B070470000CD
:1096240082B00190034A019BC2F8043300BF02B028
:10963400704700BF0060004082B00190034BD3F834
:109644000423019B1340184602B070470060004099
:1096540082B00190084A019B03F5A27352F82330AB
:10966400054943F00102019B03F5A27341F823204D
:1096740000BF02B0704700BF0060004084B0039098
:10968400029113468DF80730144A039B03F5A27325
:1096940052F82330114923F44F3323F44073039ACF
:1096A40002F5A27241F822300C4A039B03F5A2731F
:1096B40052F82320029B1B0203F47C519DF80730CF
:1096C4001B0403F440330B4304491A43039B03F57F
:1096D400A27341F8232000BF04B07047006000402B
:1096E40082B00190054A019B03F5A27352F823301E
:1096F4001B0A03F03F03184602B0704700600040A5
:1097040082B00190064A019B03F5A27352F82330FC
:109714001B0C03F00303DBB2184602B0704700BF12
:109724000060004000B583B00190019B1B6818469F
:1097340000F028F90346002B04D10B494FF4F670CE
:10974400FDF752FE019B1B681F2B02D84FF0A0436C
:1097540006E0019B1B6803F01F02019B1A60034B88
:10976400184603B05DF804FBC00C0300000300506E
:1097740000B585B00190084611461A4603468DF897
:1097840003300B468DF8023013468DF8013001ABDF
:109794001846FFF7C7FF03909DF803209DF8023099
:1097A4005B001A439DF801309B001A439DF8183062
:1097B4001B0242EA03019DF81C301B04019A194361
:1097C400039B02F5E07243F8221000BF05B05DF878
:1097D40004FB00B585B003900B468DF80B309DF863
:1097E4000B300022019200220092002200210398F3
:1097F400FFF7BEFF00BF05B05DF804FB00B585B000
:10980400019001AB1846FFF78DFF0390019A039B6B
:1098140002F5E07253F8223023F002030293019A16
:10982400039B02F5E072029943F8221000BF05B0D1
:109834005DF804FB00B585B001900B468DF803304C
:1098440001AB1846FFF76EFF0390019A039B02F5E4
:10985400E07253F82230019A23F44031039B02F55D
:10986400E07243F82210019A039B02F5E07253F868
:1098740022109DF803301B04019A1943039B02F53F
:10988400E07243F8221000BF05B05DF804FB00B598
:1098940085B0019001AB1846FFF744FF039003988D
:1098A40000F020F80246019B22FA03F303F00103BF
:1098B400184605B05DF804FB00B585B0019001AB16
:1098C4001846FFF72FFF0390019A039B02F5E072FD
:1098D40053F822301B0C03F00303DBB2184605B027
:1098E4005DF804FB82B00190019BD3F81035184653
:1098F40002B0704788B0039002910192164A05ABFA
:1099040092E8030083E80300039B079319E0079B95
:109914009B0020336B4453F80C3CD3F82025019B67
:109924001A60079B9B0020336B4453F80C3C019A4C
:109934001268C3F82025019B04330193079B01336C
:109944000793039A029B1344079A9A42DFD300BFFA
:1099540000BF08B0704700BFE80C030000B585B035
:10996400019001AB1846FFF7DDFE0390019B012235
:1099740002FA03F31A46039BC3F8202500BF05B07F
:109984005DF804FB84B00190019B5B090293002302
:109994000393029B002B03D0029B012B04D007E00E
:1099A4004FF0FF33039303E04FF6FF73039300BFBD
:1099B400019B03F01F030193039A019B22FA03F313
:1099C40003F00103002B14BF01230023DBB218466C
:1099D40004B0704784B001900091009B0393019BF5
:1099E400DB080293019B03F0070301930122019B0F
:1099F40002FA03F30399029A0A44127813401846B0
:109A040004B0704784B001900091009B0393019BC4
:109A1400DB080293019B03F007030193039A029B63
:109A240013441B785AB20121019B01FA03F35BB280
:109A3400134359B2039A029B1344CAB21A7000BF6B
:109A440004B0704782B001900C4A019B1344303338
:109A540093F90030002B09DB084A019B134430338F
:109A640093F90030072B01DC012300E0002303F00D
:109A74000103DBB2184602B0704700BFA01A0020F1
:109A840082B00190064A019B1344303393F90030AD
:109A9400072BCCBF01230023DBB2184602B070476A
:109AA400A01A002082B00190064A019B134430336F
:109AB40093F90030DB43DBB2DB09DBB2184602B0BA
:109AC400704700BFA01A002084B003900291019255
:109AD4008DF80330029B59B20E4A039B1344303372
:109AE4000A461A700B49029B019A41F823209DF8FB
:109AF400033083F00103DBB2002B08D0029B083B48
:109B0400039A51B2034A13440A4683F8602000BF03
:109B140004B07047A01A002082B00190044A019B4F
:109B240013443033FF221A7000BF02B0704700BFE5
:109B3400A01A002000B583B0019004490198FFF7F2
:109B440061FF00BF03B05DF804FB00BF041B0020ED
:109B540082B00190044A019B1344303393F90030DE
:109B6400184602B0704700BFA01A002082B00190CE
:109B7400034A019B52F82330184602B0704700BFD5
:109B8400A01A002084B00190074A019B134460335B
:109B940093F900308DF80F309DF80F3023F0C00397
:109BA400184604B0704700BFA01A002084B001908A
:109BB400074A019B1344603393F900308DF80F304A
:109BC4009DF80F309B09DBB2184604B0704700BF04
:109BD400A01A002000B589B00390029113468DF8B5
:109BE4000730FF238DF81F309DF80730002B01D07C
:109BF400002300E0082305939DF80730002B01D0D3
:109C0400082300E00C230493059B069314E00F4AF9
:109C1400069B52F82330B3F1FF3F0AD19DF8073079
:109C2400029A06990398FFF74FFF069B8DF81F30A1
:109C340006E0069B01330693069A049B9A42E6D3F8
:109C44009DF91F30184609B05DF804FBA01A0020E6
:109C540082B003468DF807309DF80730094A4FF06B
:109C6400FF3142F823109DF80730072B07D99DF8E0
:109C74000730083B034A1344FF2283F8602000BFE7
:109C840002B07047A01A002000B583B02D4B93F8A2
:109C94006A30002B03D008230093009B4EE000237E
:109CA4008DF8073011E09DF807301846FFF76AFE7B
:109CB4000346002B04D09DF807301846FFF72CFF0D
:109CC4009DF8073001338DF807309DF807302F2BAE
:109CD400E9D900238DF8073009E09DF807301846CC
:109CE400FFF7B6FF9DF8073001338DF807309DF874
:109CF40007300B2BF1D906220021134806F0AAFDE8
:109D04001248FFF70DFC034606211846FFF710FC26
:109D14000E48FFF705FC03461846FFF735FC4FF4E1
:109D2400BE70FFF754FC4FF00040FFF779FC054B81
:109D3400012283F86A2000230093009B184603B095
:109D44005DF804FBA01A0020041B00200060004002
:109D5400044B93F86A30002B14BF01230023DBB2B9
:109D640018467047A01A002000B587B003900291EE
:109D740001920398FFF706FE0346002B04D13649EF
:109D84004FF40C70FDF730FB002305930398FFF7A5
:109D940089FE0346002B02D00823059357E0029B5B
:109DA4009B78C3F34003DBB21A4601990398FFF78B
:109DB40011FF03468DF813309DF91330B3F1FF3FC3
:109DC40043D0029B9B78C3F38003DBB283F001038F
:109DD400DBB2002B13D0029B9B7803F00103DBB2B0
:109DE400002B03D00398FFF709FD05E0029B5B7885
:109DF40019460398FFF7EDFC0398FFF79BFE029BBF
:109E04009B7803F00203DBB2002B08D09DF913000A
:109E1400029B1B781A460399FFF730FC17E09DF963
:109E24001330083B0D4A134493F96010029B1B78CE
:109E34009B015AB29DF91330083B0A4351B2074AB9
:109E440013440A4683F8602001E004230593059B2C
:109E5400184607B05DF804FBF80C0300A01A0020B4
:109E640000B589B001900B468DF803300198FFF7D7
:109E740089FD0346002B04D13A494FF41870FDF7CD
:109E8400B3FA0198FFF70EFE0346002B04D13549BF
:109E940040F26120FDF7A8FA0198FFF7F1FD0346AF
:109EA400002B2AD00198FFF753FE0346083B1846BF
:109EB400FFF77CFE03468DF80F309DF80F30032B1F
:109EC4000BD10198FFF7E3FC0346002B01D00323D9
:109ED40000E002238DF81F3008E09DF80F30012BBD
:109EE40001D1022300E003238DF81F309DF81F30B9
:109EF40019460198FFF79EFC30E00198FFF7A2FD98
:109F04000346002B2AD00198FFF722FE034606934E
:109F1400069B9BB240339BB29B00ADF81630069B68
:109F24001846FFF795FBBDF816301846FFF74FFBB0
:109F34009DF80330002B11D00198FFF709FE03466A
:109F44001846FFF713FE0490049B002B06D0012251
:109F5400069B02FA03F31846FFF762FB00BF09B041
:109F64005DF804FBF80C030000B583B00190019880
:109F7400FFF708FD0346002B04D1094940F2B22043
:109F8400FDF732FA0198FFF782FC0346002B14BF59
:109F940001230023DBB2184603B05DF804FB00BFC5
:109FA400F80C030000B585B00190019A022100204D
:109FB400FFF7A0FC002303930BE0039B9B00019A93
:109FC40013441B68002B01D0012306E0039B0133DB
:109FD4000393039B012BF0D90023184605B05DF8C9
:109FE40004FB000000B587B00190002305935BE0FB
:109FF400344A059B1344603393F90030B3F1FF3FB7
:10A004004ED00598FFF7BEFD049001990498FFF720
:10A01400E1FC0346002B44D00598FFF7C7FD034637
:10A024008DF80F300498FFF747FC03468DF80E3087
:10A034009DF80E30022B01D1032300E002238DF89A
:10A044000D309DF80D3019460498FFF7F3FB049882
:10A05400FFF784FC0498FFF77BFD03461846FFF7DF
:10A0640085FD0290029B002B1BD09DF80F30032B23
:10A074000FD09DF80E30022B03D19DF80F30012B29
:10A0840007D09DF80E30032B0BD19DF80F30022B17
:10A0940007D19DF80F20029B11460498984700E0D1
:10A0A40000BF059B01330593059B032BA0D90198A1
:10A0B400FFF778FF0346002B97D100BF00BF07B01E
:10A0C4005DF804FBA01A002000B58BB000230893B0
:10A0D40001AB00221A605A604FF48073ADF81A3055
:10A0E400012309930023079321E0BDF81A30184691
:10A0F400FFF758FA0346002B0ED00998FFF79CFA95
:10A104000346002B08D0BDF81A301846FFF75FFA53
:10A11400089A099B13430893099B5B000993BDF8B4
:10A124001A300433ADF81A30079B01330793079BA9
:10A13400072BDAD94FF4BE70FFF734FA0346002B2D
:10A144000DD04FF4BE70FFF742FA089B43F0004372
:10A15400089301AB1A4602210020FFF7CBFB089BB2
:10A16400DBB2002B29D0012309930023079321E0BC
:10A17400099A089B1340002B16D00798FFF7B0FAF2
:10A1840005900798FFF7BCFA03468DF8133007983B
:10A19400FFF7ECFC0390039B002B05D09DF81320E4
:10A1A400039B114605989847099B5B000993079BFD
:10A1B40001330793079B072BDAD9089B002B03DA9B
:10A1C40001AB1846FFF70EFF00BF0BB05DF804FBB0
:10A1D40008B5064B1B68002B03D105495120FDF738
:10A1E40003F9024B1B68984708BD00BF0C1B0020F5
:10A1F400300D030082B00190019B044A934201D1C7
:10A20400034B00E00023184602B0704700200040D2
:10A214000C1B002000B587B001900091019B002B1E
:10A2240003D11C497720FDF7DFF80198FFF7E2FF1F
:10A234000590059B002B25D000238DF813300023B7
:10A244008DF80B300DF10B03184602F075FD059BDC
:10A254001B79002B03D001238DF8133005E0059BF7
:10A26400009A1A60059B01221A719DF80B3018465A
:10A2740002F078FD9DF81330002B03D011230393D3
:10A28400039B02E000230393039B184607B05DF889
:10A2940004FB00BF300D030000B585B00190019BA5
:10A2A400002B03D10A499B20FDF79EF80198FFF784
:10A2B400A1FF0390039B002B05D0039B00221A608F
:10A2C400039B00221A7100BF05B05DF804FB00BFB8
:10A2D400300D030082B003468DF807309DF9073036
:10A2E400002B0CDB9DF8073003F01F0205499DF994
:10A2F40007305B09012000FA02F241F8232000BF75
:10A3040002B0704700E100E082B003468DF80730E8
:10A314009DF90730002B13DB9DF8073003F01F0273
:10A3240009499DF907305B09012000FA02F2203344
:10A3340041F82320BFF34F8F00BFBFF36F8F00BFDF
:10A3440000BF02B0704700BF00E100E082B00346E6
:10A3540000918DF807309DF90730002B0ADB009B34
:10A36400DAB20C499DF907305201D2B20B4483F89A
:10A3740000230BE0009BDAB207499DF8073003F095
:10A384000F03043B5201D2B20B441A7600BF02B051
:10A39400704700BF00E100E000ED00E082B00190F2
:10A3A400019B1B0B5BB2184602B0704700B583B02B
:10A3B40003460A468DF8073013468DF806309DF89B
:10A3C4000630012B03D99DF80630032B0BD99DF8D9
:10A3D4000630042B03D99DF80630072B03D908490E
:10A3E4006B20FDF701F89DF806209DF90730114612
:10A3F4001846FFF7ABFF00BF03B05DF804FB00BFD6
:10A40400640D030000B583B003468DF807309DF951
:10A4140007301846FFF75EFF00BF03B05DF804FB8A
:10A4240000B583B003468DF807309DF90730184610
:10A43400FFF76AFF00BF03B05DF804FB84B001902E
:10A444000B46ADF80230BDF80230019A13440022E5
:10A454001A60BDF80230019A13441B680393039BEE
:10A4640000BF04B0704782B001900B46ADF80230D3
:10A47400BDF80230019A13441B68002B14BF01235A
:10A484000023DBB2184602B0704782B001900091FD
:10A49400019B009AC3F8042300BF02B0704782B046
:10A4A40001900091019BD3F80423009B1340002BDF
:10A4B40014BF01230023DBB2184602B0704782B0F8
:10A4C40001900091019B009AC3F8082300BF02B0D9
:10A4D400704784B00190019BD3F880340393019BAF
:10A4E400039AC3F88024039B184604B0704782B0D3
:10A4F4000190019B0422C3F8002500BF02B07047FD
:10A5040082B00190019B0022C3F8002500BF02B075
:10A51400704784B0039002910192039B019AC3F89F
:10A524001425039B029AC3F80C2500BF04B070479E
:10A5340000B583B001904FF0FF324FF0FF31019826
:10A54400FFF7E7FF00BF03B05DF804FB82B00190A2
:10A55400019BD3F80C35184602B0704782B00190C5
:10A56400019BD3F81435184602B0704782B00190AD
:10A57400019BD3F80835184602B0704782B00190A9
:10A58400019BD3F81035184602B0704784B003908D
:10A5940002910192039B029AC3F80825039B019A36
:10A5A400C3F8102500BF04B0704700B583B0019014
:10A5B4004FF0FF324FF0FF310198FFF7E7FF00BF84
:10A5C40003B05DF804FB82B00190019BD3F8183509
:10A5D400DBB2184602B0704782B001900B468DF88A
:10A5E40003309DF80320019BC3F81C2500BF02B073
:10A5F400704782B001900B468DF803309DF803300C
:10A60400019A134401221A6000BF02B0704782B05D
:10A6140001900B468DF8033013468DF802309DF8F7
:10A6240003209DF802301343DBB21A46019BC3F8A2
:10A634006C2500BF02B0704782B001900091019B6D
:10A64400009AC3F8242500BF02B0704700B583B058
:10A654000190019B1B68184600F0A4F80346002BE8
:10A6640004D10B494FF4F670FCF7BEFE019B1B6846
:10A674001F2B02D84FF0A04306E0019B1B6803F098
:10A684001F02019B1A60034B184603B05DF804FBDC
:10A694008C0D03000003005000B585B001900846FE
:10A6A40011461A4603468DF803300B468DF80230E6
:10A6B40013468DF8013001AB1846FFF7C7FF03902E
:10A6C4009DF803209DF802305B001A439DF8013089
:10A6D4009B001A439DF818301B0242EA03019DF8BF
:10A6E4001C301B04019A1943039B02F5E07243F8E2
:10A6F400221000BF05B05DF804FB00B585B00390DF
:10A7040000230193002300930023012201210398D5
:10A71400FFF7C2FF00BF05B05DF804FB00B585B0CC
:10A7240003900B468DF80B309DF80B3000220192FC
:10A7340000220092002200210398FFF7ADFF00BF22
:10A7440005B05DF804FB00B585B0039000230193C8
:10A75400002300930023012200210398FFF79CFFAC
:10A7640000BF05B05DF804FB00B585B0019001ABF6
:10A774001846FFF76BFF0390019B012202FA03F3D3
:10A784001946039800F004F800BF05B05DF804FB17
:10A7940082B001900091019B009AC3F8082500BF84
:10A7A40002B0704784B00190019B5B0902930023BF
:10A7B4000393029B002B03D0029B012B04D007E0E0
:10A7C4004FF0FF33039303E04FF6FF73039300BF8F
:10A7D400019B03F01F030193039A019B22FA03F3E5
:10A7E40003F00103002B14BF01230023DBB218463E
:10A7F40004B0704700B583B001900091009B1B68C2
:10A80400B3F1FF3F09D0009B1B681846FFF7ACFF6C
:10A81400009B1B681846FFF770FF009B5B68B3F151
:10A82400FF3F05D0009B5B6800211846FFF776FFC9
:10A83400019B1A68009B9B6919461046FFF7FCFEB2
:10A84400019B1868009B597D009B1B7D1A46FFF7EE
:10A85400DEFE019B1868009B1968009B5B681A4622
:10A86400FFF757FE009B1B7D012B22D1009B9B68A9
:10A87400B3F1FF3F05D0009B9B6800211846FFF70A
:10A884004DFF009BDB68B3F1FF3F09D0009BDB6801
:10A894001846FFF769FF009BDB681846FFF72DFF9A
:10A8A400019B1868009BD968009B9B681A46FFF7B8
:10A8B4006DFE00BF03B05DF804FB000000B583B07B
:10A8C40001900B468DF80330019B1B684FF48E7189
:10A8D4001846FFF7B3FD019B1B684FF4A27118469D
:10A8E400FFF7ACFD019B1B680E491846FFF7CDFD31
:10A8F400019B1B681846FFF751FD03461A469DF855
:10A90400033019461046FFF751FD019B1B6818469A
:10A91400FFF744FD03461846FFF774FD00BF03B07C
:10A924005DF804FB8000020000B583B00190019B38
:10A934001B6808491846FFF7C2FD019B1B681846AF
:10A94400FFF72CFD03461846FFF76AFD00BF03B06E
:10A954005DF804FB8402020000B587B00190019BFE
:10A964001B681846FFF7F2FD0590019B1B6818460B
:10A97400FFF7F4FD0490019B1B681846FFF7F6FDF2
:10A984000390019B1B681846FFF7F8FD0290019B9A
:10A994001B681846FFF7CCFD019B1B681846FFF7A0
:10A9A40004FE059BB3F1FF3F02D00598FFF7CBFEF1
:10A9B400049BB3F1FF3F02D00498FFF7C4FE029B4F
:10A9C400B3F1FF3F02D00298FFF7BDFE039BB3F142
:10A9D400FF3F02D00398FFF7B6FE00BF07B05DF853
:10A9E40004FB000000B587B0039002910192029B22
:10A9F400002B03D12D49AA20FCF7F6FC039B1B79FD
:10AA04001A462C2302FB03F3294A1344049300231C
:10AA14000593049B93F82A30002B03D00823059355
:10AA2400059B3EE0039B1A68039B1B791946214B47
:10AA340053F8213019461046FFF7ECFB0346002B70
:10AA440003D011230593059B2BE002990398FFF78C
:10AA5400D1FE049B019A5A60029B1A69049B1A60F6
:10AA6400049B5B68002B05D0029B1B7F194603984F
:10AA7400FFF724FF039B1B681846FFF738FD049B70
:10AA840000229A61049B0022DA61049B002283F86D
:10AA94002920049B00225A61049B012283F82A2066
:10AAA400059B184607B05DF804FB00BFBC0D03000E
:10AAB400141B0020EC0D030000B585B00190019B30
:10AAC4001B791A462C2302FB03F3114A1344039304
:10AAD400019B1B681846FFF713FD039B5B68002B63
:10AAE40002D00198FFF720FF0198FFF735FF019B83
:10AAF4001B681846FFF7D0FB039B002283F82A202B
:10AB0400039B00225A6000BF05B05DF804FB00BF40
:10AB1400141B002000B585B0019000914FF48E7194
:10AB24000198FFF78BFC009B9A68009B1B6A1344F7
:10AB34001B788DF80F30009B1B6A5A1C009B1A620D
:10AB44009DF80F3019460198FFF746FD00BF05B088
:10AB54005DF804FB00B585B001900091009B5B6932
:10AB6400039316E0009B93F82830DBB2002B01D04E
:10AB7400002314E04FF48E710198FFF774FC034630
:10AB840083F00103DBB2002BECD100990198FFF7AD
:10AB9400C1FF009B1B6A039A9A42EBD80123184613
:10ABA40005B05DF804FB000000B587B00390029186
:10ABB4000192039B1B791A462C2302FB03F33C4AA4
:10ABC40013440493049B93F82A30012B04D039498D
:10ABD4004FF48C70FCF708FC029B002B04D1354920
:10ABE40040F21910FCF700FC019B002B04D1314901
:10ABF4004FF48D70FCF7F8FB039800F05DF8034602
:10AC0400002B03D011230593059B4CE0049B019A70
:10AC14005A61049B029A9A60049B00221A62049B64
:10AC2400002283F8282000230593039B1B684FF41C
:10AC34008E711846FFF702FC039B1B680821184617
:10AC4400FFF7D7FC039B1B6804991846FFF762FFC4
:10AC5400049B5B68002B25D1039B1B680499184651
:10AC6400FFF778FF034683F00103DBB2002B02D029
:10AC74000F23059313E000BF039B1B684FF48E71F1
:10AC84001846FFF7F0FB034683F00103DBB2002B09
:10AC9400F2D1039B1B680C211846FFF7AAFC049B06
:10ACA40000225A61059B184607B05DF804FB00BFFB
:10ACB400141B0020BC0D030082B00190019B1B7982
:10ACC4001946074A2C2301FB03F3134414331B686E
:10ACD400002B14BF01230023DBB2184602B07047D7
:10ACE400141B002010B582B001900091009B9B6959
:10ACF400002B08D14FF484710198FFF79FFB019852
:10AD0400FFF761FC13E04FF484710198FFF796FBA1
:10AD1400009BDA68009B5B6AD4180198FFF753FC28
:10AD240003462370009B5B6A5A1C009B5A6202B064
:10AD340010BD00B589B003900291019201238DF8F2
:10AD44001030029B0693019B0593039B5B68039A57
:10AD5400116804AA1046984700BF09B05DF804FBC7
:10AD640000B587B00190009100238DF80830009B56
:10AD74000493019B9B680393019B00225A61019BEE
:10AD84005B68019A116802AA1046984700BF07B091
:10AD94005DF804FB00B58BB0019000914FF4007195
:10ADA4000198FFF77CFB0346002B39D04FF49271D6
:10ADB4000198FFF758FB0346002B31D04FF49271F2
:10ADC4000198FFF73BFB4FF401710198FFF777FB04
:10ADD400009B93F8293083F00103DBB2002B03D0EE
:10ADE40004210198FFF705FC02238DF80C3001982B
:10ADF400FFF76FFB03460693009B9B690593009B3B
:10AE0400DB680493009B00229A61009B0022DA61B4
:10AE1400009B5B68009A116803AA1046984752E0A9
:10AE240004210198FFF73BFB0346002B4BD04FF462
:10AE340084710198FFF717FB0346002B43D0009958
:10AE44000198FFF74FFF009B9A69009B5B6A9A4247
:10AE540039D1009BDB69002B19D0009BDB68099377
:10AE6400009B5B6A0893009BDA69009B9A61009BD4
:10AE74001A69009BDA60009B0022DA61009B0022C1
:10AE84005A62099A08990098FFF753FF1BE0009B48
:10AE940093F8293083F00103DBB2002B03D00421A3
:10AEA4000198FFF7A6FB4FF401710198FFF707FB28
:10AEB400009B00229A61009B596A009BDB681A463A
:10AEC4000098FFF736FF4FF48E710198FFF7CBFA25
:10AED4000346002B24D0009B5B690793009B1B6AED
:10AEE400079A9A420DD9009B93F82830DBB283F07D
:10AEF4000103DBB2002B04D000990198FFF70AFE8E
:10AF04000EE04FF48E710198FFF798FA009B5B698D
:10AF1400002B05D0009B5B6919460098FFF720FFC2
:10AF24004FF4A2710198FFF79EFA0346002B1CD040
:10AF34004FF4A2710198FFF781FA009B93F829302E
:10AF4400002B03D000210198FFF753FB009B9B6962
:10AF5400002B0AD0009B00229A61009B596A009B37
:10AF6400DB681A460098FFF7E4FE00BF0BB05DF8FB
:10AF740004FB000008B503490348FFF70BFF00BFBB
:10AF840008BD00BF141B00200020004082B003460F
:10AF94008DF807309DF90730002B0CDB9DF8073046
:10AFA40003F01F0205499DF907305B09012000FAEF
:10AFB40002F241F8232000BF02B0704700E100E034
:10AFC40082B003468DF807309DF90730002B13DB60
:10AFD4009DF8073003F01F0209499DF907305B090A
:10AFE400012000FA02F2203341F82320BFF34F8FEF
:10AFF40000BFBFF36F8F00BF00BF02B0704700BF38
:10B0040000E100E082B0034600918DF807309DF91D
:10B014000730002B0ADB009BDAB20C499DF907309C
:10B024005201D2B20B4483F800230BE0009BDAB246
:10B0340007499DF8073003F00F03043B5201D2B2D5
:10B044000B441A7600BF02B0704700BF00E100E075
:10B0540000ED00E082B00190019B03F06043B3F186
:10B06400005F0CBF01230023DBB2184602B0704717
:10B0740082B00190019B1B0B5BB2184602B0704773
:10B0840000B583B003460A468DF8073013468DF8A1
:10B0940006309DF80630012B03D99DF80630032BAA
:10B0A4000BD99DF80630042B03D99DF80630072BE5
:10B0B40003D908496B20FCF797F99DF806209DF900
:10B0C400073011461846FFF79DFF00BF03B05DF837
:10B0D40004FB00BFF00D030000B583B003468DF8F8
:10B0E40007309DF907301846FFF750FF00BF03B043
:10B0F4005DF804FB00B583B003468DF807309DF975
:10B1040007301846FFF75CFF00BF03B05DF804FB8F
:10B1140084B001900B46ADF80230BDF80230019ABC
:10B12400134400221A60BDF80230019A13441B68CC
:10B134000393039B00BF04B0704782B001900B4699
:10B14400ADF80230BDF80230019A13441B68002B9D
:10B1540014BF01230023DBB2184602B0704782B04B
:10B1640001900091019BD3F80022009BDB431A401D
:10B17400019BC3F8002200BF02B0704782B0019067
:10B184000091019B009AC3F8042300BF02B07047EA
:10B1940082B001900091019B009AC3F8082300BF7C
:10B1A40002B0704784B00190019BD3F880340393BC
:10B1B400019B039AC3F88024039B184604B070478C
:10B1C40082B00190019B0822C3F8002500BF02B0A1
:10B1D400704782B00190019B0022C3F8002500BF94
:10B1E40002B0704784B0039002910192039B029ACB
:10B1F400C3F80C25039B019AC3F8142500BF04B0BF
:10B20400704700B583B001904FF0FF324FF0FF312B
:10B214000198FFF7E7FF00BF03B05DF804FB82B0BD
:10B224000190019BD3F80C35184602B0704782B0E8
:10B234000190019BD3F81435184602B0704782B0D0
:10B244000190019BD3F80835184602B0704782B0CC
:10B254000190019BD3F81035184602B0704784B0B2
:10B26400039002910192039B029AC3F80825039B61
:10B27400019AC3F8102500BF04B0704700B583B02D
:10B2840001904FF0FF324FF0FF310198FFF7E7FFD5
:10B2940000BF03B05DF804FB82B001900B468DF84B
:10B2A40003309DF80330019A134401221A6000BF51
:10B2B40002B0704782B001900B468DF803301346FC
:10B2C4008DF802309DF803209DF802301343DBB261
:10B2D4001A46019BC3F86C2500BF02B0704782B0C8
:10B2E40001900091019B009AC3F8242500BF02B08D
:10B2F400704784B0039002910192029A039BC3F8B1
:10B304004425039B019AC3F8482500BF04B0704745
:10B3140082B00190019BD3F84C35184602B07047B7
:10B3240082B00190019BD3F83C35184602B07047B7
:10B3340000B583B00190019B1B68184600F0A4F887
:10B344000346002B04D10B494FF4F670FCF74CF87C
:10B35400019B1B681F2B02D84FF0A04306E0019B02
:10B364001B6803F01F02019B1A60034B184603B0CD
:10B374005DF804FB180E03000003005000B585B00F
:10B384000190084611461A4603468DF803300B46D1
:10B394008DF8023013468DF8013001AB1846FFF7E3
:10B3A400C7FF03909DF803209DF802305B001A4309
:10B3B4009DF801309B001A439DF818301B0242EAA5
:10B3C40003019DF81C301B04019A1943039B02F5E9
:10B3D400E07243F8221000BF05B05DF804FB00B52D
:10B3E40085B00390002301930023009300230122DE
:10B3F40001210398FFF7C2FF00BF05B05DF804FB0D
:10B4040000B585B003900B468DF80B309DF80B30DA
:10B414000022019200220092002200210398FFF7EB
:10B42400ADFF00BF05B05DF804FB00B585B0039027
:10B434000023019300230093002301220021039899
:10B44400FFF79CFF00BF05B05DF804FB00B585B0B5
:10B45400019001AB1846FFF76BFF0390019B01229B
:10B4640002FA03F31946039800F004F800BF05B08C
:10B474005DF804FB82B001900091019B009AC3F82F
:10B48400082500BF02B0704784B00190019B5B099E
:10B49400029300230393029B002B03D0029B012BF6
:10B4A40004D007E04FF0FF33039303E04FF6FF733C
:10B4B400039300BF019B03F01F030193039A019BB5
:10B4C40022FA03F303F00103002B14BF012300232A
:10B4D400DBB2184604B0704700B583B00190009108
:10B4E400009B1B68B3F1FF3F09D0009B1B68184603
:10B4F400FFF7ACFF009B1B681846FFF770FF009B2B
:10B504005B68B3F1FF3F05D0009B5B6800211846E0
:10B51400FFF776FF019B1A68009B9B69194610464A
:10B52400FFF7DDFE019B1868009B597D009B1B7D86
:10B534001A46FFF7BFFE019B1868009B1968009B21
:10B544005B681A46FFF74EFE009B1B7D012B22D140
:10B55400009B9B68B3F1FF3F05D0009B9B680021D3
:10B564001846FFF74DFF009BDB68B3F1FF3F09D09E
:10B57400009BDB681846FFF769FF009BDB681846F1
:10B58400FFF72DFF019B1868009BD968009B9B68FF
:10B594001A46FFF764FE00BF03B05DF804FB000029
:10B5A40000B583B001900B468DF80330019B1B68F6
:10B5B4004FF488711846FFF7ABFD019B1B684FF4ED
:10B5C40090711846FFF7A4FD019B1B684FF492711C
:10B5D4001846FFF79DFD019B1B684FF4A2711846A6
:10B5E400FFF796FD019B1B684FF4AC711846FFF7FB
:10B5F4008FFD019B1B680F491846FFF7BFFD019B98
:10B604001B681846FFF734FD03461A469DF80330BD
:10B6140019461046FFF734FD019B1B681846FFF7D7
:10B6240027FD03461846FFF757FD00BF03B05DF83A
:10B6340004FB00BF1003420000B583B00190019BDE
:10B644001B6808491846FFF7A3FD019B1B681846B1
:10B65400FFF70EFD03461846FFF74CFD00BF03B08D
:10B664005DF804FB1003420000B587B00190019B14
:10B674001B681846FFF7D3FD0590019B1B6818460D
:10B68400FFF7D5FD0490019B1B681846FFF7D7FD13
:10B694000390019B1B681846FFF7D9FD0290019B9C
:10B6A4001B681846FFF7ADFD019B1B681846FFF7A2
:10B6B400E5FD059BB3F1FF3F02D00598FFF7B5FE0A
:10B6C400049BB3F1FF3F02D00498FFF7AEFE029B48
:10B6D400B3F1FF3F02D00298FFF7A7FE039BB3F13B
:10B6E400FF3F02D00398FFF7A0FE00BF07B05DF84C
:10B6F40004FB000000B587B0039002910192029B05
:10B70400002B03D12B49CF20FBF76EFE039B1B7943
:10B714001A461346DB0013449B00274A1344049340
:10B7240000230593049B93F82030002B03D00823B7
:10B734000593059B3AE0039B1A68039B1B79194602
:10B744001E4B53F8213019461046FEF763FD03469D
:10B75400002B03D011230593059B27E0029903983E
:10B76400FFF7BAFE049B019A5A60029B1A69049B74
:10B774001A60049B5B68002B05D0029B1B7F194653
:10B784000398FFF70DFF039B1B681846FFF718FD8E
:10B79400049B00229A61049B0022DA61049B00222C
:10B7A4005A61049B012283F82020059B184607B0A8
:10B7B4005DF804FB480E0300401B00207C0E0300D0
:10B7C40000B585B00190019B1B791A461346DB0036
:10B7D40013449B002A4A13440393019B1B6802935E
:10B7E400039B5B68002B02D00198FFF725FF202103
:10B7F4000298FFF7B4FC039B9B69002B08D04FF41D
:10B80400A2710298FFF784FC04210298FFF744FD1B
:10B814004FF4AC710298FFF77BFC0C210298FFF700
:10B824003BFD00BF4FF4AC710298FFF786FC034662
:10B8340083F00103DBB2002BF4D1039B9B69002B43
:10B844000AD04FF4A2710298FFF777FC034683F005
:10B854000103DBB2002BE5D10298FFF7BAFC019893
:10B86400FFF702FF0298FEF717FD039B002283F8FF
:10B874002020039B00225A6000BF05B05DF804FB42
:10B88400401B002000B589B0039002910192039BF4
:10B894001B791A461346DB0013449B00574A134492
:10B8A4000593059B93F82030012B04D0544940F2B2
:10B8B4005310FBF799FD029B002B04D150494FF420
:10B8C400AA70FBF791FD019B002B04D14C4940F277
:10B8D4005510FBF789FD039B1B79002B03D1019BBA
:10B8E400B3F5803F04D346494FF4AB70FBF77CFDBE
:10B8F4000298FFF7AFFB034683F00103DBB2002B92
:10B9040003D010230793079B73E0039800F07AF8A1
:10B914000346002B03D011230793079B69E0059B83
:10B92400019A5A61059B029A9A6000230793039B2C
:10B934001B684FF490711846FFF7EAFB039B1B68E2
:10B944004FF4AC711846FFF7E3FB039B1868059BA3
:10B954009968059B5B691A46FFF7CBFC039B1B6840
:10B9640008211846FFF798FC059B5B68002B3FD124
:10B97400039B1B684FF490711846FFF7DEFB0346E8
:10B984008DF81B30039B1B684FF4AC711846FFF70E
:10B99400D4FB03468DF81A309DF81B3083F0010365
:10B9A400DBB2002B06D09DF81A3083F00103DBB222
:10B9B400002BDDD19DF81A30002B02D00F23079302
:10B9C40013E0039B1B680C211846FFF765FC00BFBE
:10B9D400039B1B684FF4AC711846FFF7AEFB03469C
:10B9E40083F00103DBB2002BF2D1059B00225A61E4
:10B9F400079B184609B05DF804FB00BF401B0020FC
:10BA0400480E030082B00190019B1B791946084A35
:10BA14000B46DB000B449B00134414331B68002BC0
:10BA240014BF01230023DBB2184602B0704700BFE5
:10BA3400401B002000B589B00390029101920123BC
:10BA44008DF81030029B0693019B0593039B5B6862
:10BA5400039A116804AA1046984700BF09B05DF81C
:10BA640004FB00B587B00190009100238DF80830E5
:10BA7400009B0493019B9B680393019B00225A61E2
:10BA8400019B5B68019A116802AA1046984700BF9F
:10BA940007B05DF804FB00B589B0019000914FF444
:10BAA40092710198FFF749FB0346002B22D04FF413
:10BAB40092710198FFF72CFB02238DF8083001984E
:10BAC400FFF770FB034605930198FFF729FC034633
:10BAD4000493009BDB680393009B00229A61009B04
:10BAE4000022DA61009B5B68009A116802AA104682
:10BAF40098473BE04FF488710198FFF71EFB03461B
:10BB0400002B33D04FF488710198FFF701FB0198A3
:10BB1400FFF706FC0790009B9B69079A9A4225D180
:10BB2400009BDB69002B17D0009BDB680693202168
:10BB34000198FFF714FB009BDA69009B9A61009B54
:10BB44001A69009BDA60009B0022DA61069A079961
:10BB54000098FFF76FFF09E0009B00229A61009BA9
:10BB6400DB681A4607990098FFF764FF4FF4A27147
:10BB74000198FFF7E2FA0346002B18D04FF4A271A4
:10BB84000198FFF7C5FA009B9B69002B0FD0009B1F
:10BB940000229A61009B0022DA610198FFF7C0FB42
:10BBA4000146009BDB681A460098FFF743FF4FF4F9
:10BBB40090710198FFF7C1FA0346002B14D04FF49B
:10BBC40090710198FFF7A4FA0C210198FFF764FB28
:10BBD400009B5B69002B07D00198FFF799FB034694
:10BBE40019460098FFF73DFF4FF4AC710198FFF739
:10BBF400A4FA0346002B10D04FF4AC710198FFF760
:10BC040087FA009B5B69002B07D00198FFF780FB44
:10BC1400034619460098FFF724FF00BF09B05DF8FA
:10BC240004FB000008B503490348FFF734FF00BFD5
:10BC340008BD00BF401B00200020004084B0034624
:10BC44008DF807309DF807305B08DBB21A460D4BC0
:10BC54009B5C8DF80F309DF8073003F00103002B37
:10BC640004D09DF80F301B09DBB204E09DF80F30BF
:10BC740003F00F03DBB28DF80E309DF80E3018463A
:10BC840004B07047781B002084B003460A468DF840
:10BC9400073013468DF806309DF8073003F0010392
:10BCA400002B01D00F2300E0F0238DF80F309DF816
:10BCB400073003F00103002B04D09DF806301B016C
:10BCC400DBB201E09DF806308DF80E309DF80730A8
:10BCD4005B08DBB21A46114B9A5C9DF807305B088F
:10BCE400DBB219469DF80F301340DAB20B4B5A54AD
:10BCF4009DF807305B08DBB21A46084B9A5C9DF846
:10BD040007305B08DBB219469DF80E301343DAB2F4
:10BD1400024B5A5400BF04B0704700BF781B002088
:10BD240000B585B003468DF807300023039310E077
:10BD34000F4B1A68039BDB0013440293029B1B788E
:10BD44009DF807209A4201D1029B0DE0039B013329
:10BD54000393084B1B781A46039B9342E8DB06497E
:10BD64008820FBF741FB0023184605B05DF804FB6F
:10BD7400641B0020681B00208C0E030000B585B0F6
:10BD840003460A468DF8073013468DF806309DF8B1
:10BD940007301846FFF7C4FF0390039B002B0BD01A
:10BDA400039B5B68002B07D0039B5B689DF8061020
:10BDB4009DF807201046984700BF05B05DF804FBC6
:10BDC4002DE9F04F87B003460A468DF80F3013462D
:10BDD4008DF80E309DF80F301846FFF72FFF0346FD
:10BDE400042B00F2C28001A252F823F005BE020027
:10BDF40079BE020095BE0200C5BE0200DBBE020091
:10BE04009DF80E30002B00F0AD809DF80F3001211D
:10BE14001846FFF739FF00238DF817300DF117038B
:10BE2400184600F089FF9DF80F104FF001024FF003
:10BE34000003A1F12004C1F1200003FA01F702FA82
:10BE440004F4274322FA00F0074302FA01F6494BAF
:10BE5400D3E9002346EA020100913B430193454B99
:10BE6400DDE90012C3E900129DF81730184600F00E
:10BE740079FF77E09DF80E30002B01D0022200E01C
:10BE840000229DF80F3011461846FFF7FDFE6CE0C6
:10BE94009DF80E30002B0CD09DF80F30032118466E
:10BEA400FFF7F2FE9DF80F3001211846FFF766FFF9
:10BEB4005BE09DF80F3001211846FFF7E5FE54E0E2
:10BEC4009DF80E30002B4FD19DF80F3004211846F9
:10BED400FFF7DAFE48E09DF80E30002B06D09DF8FF
:10BEE4000F3003211846FFF7CFFE3EE09DF80F30D8
:10BEF40000211846FFF7C8FE9DF80F3000211846B0
:10BF0400FFF73CFF00238DF816300DF11603184699
:10BF140000F012FF9DF80F104FF001024FF00003E4
:10BF2400A1F12006C1F1200003FA01F502FA06F698
:10BF3400354322FA00F0054302FA01F46FEA0408DB
:10BF44006FEA05090B4BD3E9002308EA020A09EA60
:10BF5400030B084BC3E900AB9DF81630184600F0FC
:10BF640001FF02E000BF00E000BF00BF07B0BDE872
:10BF7400F08F00BF701B002000B583B00648074B4C
:10BF84001B685B080022194600F0AEFD019000BF5B
:10BF940003B05DF804FB00BF481900206C1B0020AF
:10BFA40000B587B001900023059328E01C4B1A6864
:10BFB400059BDB0013440493049B1B781846FDF790
:10BFC400D3FF03468DF80F30049B5B78012B0CBF25
:10BFD40001230023DBB21A469DF80F309A420CBFAE
:10BFE400012300238DF80E30049B1B789DF80E204E
:10BFF40011461846FFF7E4FE059B01330593094BF0
:10C004001B781A46059B9342D0DB074BD3E90023E8
:10C01400134301D0FFF7B0FF00BF07B05DF804FB86
:10C02400641B0020681B0020701B002000B585B035
:10C0340001900B468DF80330019BDBB21846FFF7E5
:10C044006FFE0390039B1B781846FDF78DFF034694
:10C054008DF80B30039B5B78012B0CBF012300236D
:10C06400DBB21A469DF80B309A420CBF0123002321
:10C074008DF80A309DF80A30002B06D0054BD3E921
:10C084000023134301D1FFF777FF00BF05B05DF82C
:10C0940004FB00BF701B002000B58BB003900B465F
:10C0A40001928DF80B30019B092B01D8072367E01F
:10C0B400FDF74EFE034683F00103DBB2002B09D0EB
:10C0C400FDF7E2FD0990099B0893089B002B01D022
:10C0D400089B55E02C4A039B13602C4A9DF80B30B7
:10C0E40013702B4A019B136020220021294804F07D
:10C0F400B1FB29494FF000024FF00003C1E90023CE
:10C1040031E09DF80B30DB00039A134407930323BB
:10C114008DF8143000238DF815309DF816306FF328
:10C1240000038DF816309DF816306FF341038DF837
:10C1340016309DF816306FF382038DF81630079B86
:10C144009B788DF81530079B1B78184605AB134A6E
:10C154001946FDF709FE0990099B0693069B002BDF
:10C1640001D0069B0CE09DF80B305A1E8DF80B2075
:10C17400002BC6D10A4A00210A4800F07BFC034682
:10C1840018460BB05DF804FB641B0020681B0020FC
:10C194006C1B0020781B0020701B002031C00200A3
:10C1A400A5BF0200C00E030000B583B0114B1B688D
:10C1B400002B04D1104940F23510FBF715F9002388
:10C1C40001930CE00B4B1A68019BDB0013441B78B2
:10C1D40001211846FDF744FE019B01330193074BEF
:10C1E4001B781A46019B9342ECD30023184603B0F4
:10C1F4005DF804FB641B00208C0E0300681B002008
:10C2040086B003900291019201238DF817309DF8B6
:10C214001730204A039B13601E4A029B53601D4A39
:10C22400019B9360039B44F20102934212D0039B4F
:10C2340044F20202934220D1019B164AD360154B6B
:10C24400DB681B68134A9361124BDB685B68114A15
:10C25400D36112E0019B0F4A13610E4B1B699B686B
:10C264000C4A53610B4B1B691B680A4A9361094BC7
:10C274001B695B68074AD36100BF72B600BF00BF89
:10C284009DF81730DBB2002BFAD162B600BF00BFB5
:10C2940006B07047981B002000B583B0029000914F
:10C2A400019244F2010071466A4600F003F803B0BB
:10C2B40000BD00BF30B58BB007900691059272B6F1
:10C2C40000BF03F0ADFB03F069F90346002BFAD17C
:10C2D400079B44F2020293422FD0079B44F20202CE
:10C2E400934269D8079B44F20102934237D0079BDB
:10C2F40044F2010293425FD8079B012B05D0079BB0
:10C3040041F2010293420CD056E0394A394BD31A18
:10C31400DB081B0443F001033749184603F03EF8D9
:10C3240057E0334A334BD31ADB081B0443F00103B1
:10C334003249184603F032F84BE0059B09932C4A26
:10C344002C4BD31ADB081B0443F00100099B5B68E8
:10C354001A46099B1B682A4903F03FF839E0059BFC
:10C364000893234A234BD31ADB081B0443F001042C
:10C37400089B9D68089B9B68184602F0D9FA0346FF
:10C384001846089B5B681946089B1B68069A02922C
:10C394000193009103462A461A49204603F031F8D6
:10C3A400134A144BD31ADB081B0443F00103164948
:10C3B400184602F0F3FF0CE00D4A0E4BD31ADB08CB
:10C3C4001B0443F00103069A1049184602F0F4FFD7
:10C3D40000BF0F4B1B6803F00103002B00D000BE0D
:10C3E400059A06990798FFF70BFF00BF0BB030BD05
:10C3F40024090300FC080300C40E0300E40E030038
:10C40400080F0300240F03004C0F0300600F030008
:10C41400F0ED00E02DE9F04383B0144801F09DF8FD
:10C42400034600221C461546114BD3E9002314EBA6
:10C43400020845EB0309CDE900890E4BD3E900233B
:10C44400DDE90001904271EB030307D2DDE900232B
:10C4540012F1807643F10007CDE90067DDE900239E
:10C464001046194603B0BDE8F08300BF68190020E8
:10C47400C01B0020C81B002088B001900091019BC4
:10C484000793009B0693079BD3E90223CDE904237A
:10C49400069BD3E90223CDE90223DDE90423DDE988
:10C4A4000201904271EB03032CBF01230023DBB292
:10C4B400184608B070470000F0B585B00190019BA4
:10C4C4005B69002B03D14349A520FAF78DFF0023B4
:10C4D4008DF80F30404B1B78002B75D0019B002B3F
:10C4E40072D0FFF797FF019BD3E90223904271EBCF
:10C4F400030358D300238DF80D300DF10D031846B6
:10C5040000F01AFC019B1B69002B06D101994FF026
:10C51400FF324FF0FF33C1E902239DF80D30184676
:10C5240000F020FC019B5B69019A926910469847D0
:10C5340000238DF80C3003AB184600F0FDFB019B83
:10C544001B69002B1AD0019BD3E90223B3F1FF3FEF
:10C5540008BFB2F1FF3F11D0019BD3E90223019937
:10C56400096900200C460546161943EB0507019B93
:10C57400C3E9026701238DF80E3002E000238DF831
:10C584000E309DF80C30184600F0ECFB9DF80E3090
:10C59400002B19D0019B1946104802F023F90123FE
:10C5A4008DF80F3010E0019BD3E90223B3F1FF3F74
:10C5B40008BFB2F1FF3F07D0019B1946074802F0BC
:10C5C40011F901238DF80F309DF80F30184605B08E
:10C5D400F0BD00BF840F0300BC1B0020BC0F030090
:10C5E40030B58BB0019000910D230993009B00227C
:10C5F4001A70019BD3E90223CDE90623FFF70AFF52
:10C60400DDE90623141A63EB0105CDE90445DDE9F0
:10C614000423012A73F1000318DB049BB3F5350FDF
:10C6240005D300F00BFB0246144B134400E0069BB9
:10C6340003934FF49603039A0021114800F080FEFF
:10C644000990099B002B05D1012314E000210C481B
:10C6540000F04EFF099B0D2B07D10198FFF72CFF2B
:10C6640003461A46009B1A7004E006494FF486708C
:10C67400FAF7BAFE002318460BB030BDFFFFB40032
:10C6840068190020840F030000B583B0044802F049
:10C69400E3F80190019B184603B05DF804FB00BF6A
:10C6A400BC0F030000B583B0044802F0F7F8019012
:10C6B400019B184603B05DF804FB00BFBC0F0300E8
:10C6C40000B583B0FFF7E0FF0190019B002B06D07B
:10C6D40001994FF0FF324FF0FF33C1E90223019B70
:10C6E400002BEFD100BF00BF03B05DF804FB0000D6
:10C6F400054BD3E9002312F1807043F10001024B92
:10C70400C3E9000100BF7047C01B002010B582B010
:10C714000190124B1B68002B1DD0019800F01DFFE7
:10C7240004460021019800F009FF034619462046FB
:10C7340000F078FA0346B3F5960F04D3084940F2A3
:10C744004110FAF751FE054B1B681846FFF7B4FE7B
:10C75400024B00221A6000BF02B010BDB81B0020BB
:10C76400840F030000B583B00190FFF753FE024627
:10C774000B460349C1E9002300BF03B05DF804FB85
:10C78400C81B002000B587B00190FFF78BFF049011
:10C7940000238DF81730049B002B58D0049BD3E959
:10C7A4000223B3F1FF3F08BFB2F1FF3F02D1FFF70D
:10C7B4006BFF54E02E4B1B68002B03D101238DF833
:10C7C40017301DE0049BD3E90201294B1B68D3E910
:10C7D4000223904271EB030312D201238DF8173028
:10C7E400234B1B68D3E90223B3F1FF3F08BFB2F127
:10C7F400FF3F05D01E4B1B6819461E4801F0F2FF8F
:10C804009DF81730002B2BD0FFF73EFF04900DF15D
:10C814000F0319460498FFF7E3FE0346002B12D0DA
:10C82400134B1B68002B02D1019800F095FC104AB1
:10C83400049B13609DF80F3083F00103DBB2002BDF
:10C84400A3D000BF0FE00A4B00221A609DE7084BFB
:10C854001B68002B06D1019800F094FC02E094E7D9
:10C8640000BF00E000BF00BF07B05DF804FB00BFDD
:10C87400B81B0020BC0F030000B587B001902B4A01
:10C8840003AB1946104600F066FF049045E0049B94
:10C894001B78022B2BD0022B2FDC002B02D0012B78
:10C8A40011D02AE0049B5B68D3E90223B3F1FF3F74
:10C8B40008BFB2F1FF3F22D0049B5B6819461C48B5
:10C8C40001F090FF1BE0049B5A681A4B1B689A42C4
:10C8D40003D1184B00221A6012E0049B5B681946CE
:10C8E400134801F0EFFF03468DF8173008E0FFF717
:10C8F400E7FE114B01221A7002E000BF00E000BF06
:10C904000A4A03AB1946104600F03EFF074A03AB40
:10C914001946104600F01FFF0490049B002BB6D16B
:10C9240000BF00BF07B05DF804FB00BF281C002057
:10C93400BC0F0300B81B0020BC1B002000B583B053
:10C944000190019800F0C7FD0346002B01D0FFF7CA
:10C95400CFFE0021019800F0DCFD0346002B02D03D
:10C964000198FFF7D3FE0121019800F0D2FD0346A0
:10C97400002B02D00198FFF7F5FE0198FFF77CFF2A
:10C984000198FFF7FFFE00BF03B05DF804FB000051
:10C9940008B5024800F0EEFD00BF08BD681900208C
:10C9A40000B585B0034600918DF80730114A02ABFB
:10C9B4001946104600F0A2FE0390039B002B13D0EF
:10C9C400039B9DF807201A70039B009A5A60094A3A
:10C9D40002AB1946104600F0AAFE0346002B01D014
:10C9E400FFF7D6FF002300E00423184605B05DF8E6
:10C9F40004FB00BF281C002000B583B0164B1B6845
:10CA04000093164808235822154900F044FE01906B
:10CA1400019B002B01D0019B19E06B46114A19467A
:10CA2400114800F01BFB0190019B002B01D0019BDE
:10CA34000DE001210C4800F03DFD01230B4A0121CA
:10CA4400094800F0B5FB0A4B01221A70019B1846F5
:10CA540003B05DF804FB00BFB80F0300281C0020DE
:10CA6400D01B002041C9020068190020FFFF7F008D
:10CA7400BC1B002000B587B003900B4601928DF8D3
:10CA84000B30039B002B04D1164940F25A20FAF7CD
:10CA9400ABFC019B002B04D1124940F25B20FAF756
:10CAA400A3FC019B002B01D1072317E0039B1B6808
:10CAB400059305994FF0FF324FF0FF33C1E902238C
:10CAC400059B019A5A619DF80B30012B0CBF012381
